{
  "_format": "hh-sol-artifact-1",
  "contractName": "TranslationMarket",
  "sourceName": "src/contracts/TranslationMarket.sol",
  "abi": [
    {
      "inputs": [
        {
          "internalType": "address",
          "name": "_cultureToken",
          "type": "address"
        }
      ],
      "stateMutability": "nonpayable",
      "type": "constructor"
    },
    {
      "anonymous": false,
      "inputs": [
        {
          "indexed": true,
          "internalType": "address",
          "name": "previousOwner",
          "type": "address"
        },
        {
          "indexed": true,
          "internalType": "address",
          "name": "newOwner",
          "type": "address"
        }
      ],
      "name": "OwnershipTransferred",
      "type": "event"
    },
    {
      "anonymous": false,
      "inputs": [
        {
          "indexed": false,
          "internalType": "address",
          "name": "account",
          "type": "address"
        }
      ],
      "name": "Paused",
      "type": "event"
    },
    {
      "anonymous": false,
      "inputs": [
        {
          "indexed": false,
          "internalType": "uint256",
          "name": "platformFee",
          "type": "uint256"
        },
        {
          "indexed": false,
          "internalType": "uint256",
          "name": "minReward",
          "type": "uint256"
        },
        {
          "indexed": false,
          "internalType": "uint256",
          "name": "disputeWindow",
          "type": "uint256"
        },
        {
          "indexed": false,
          "internalType": "uint256",
          "name": "assignmentTimeout",
          "type": "uint256"
        }
      ],
      "name": "PlatformParametersUpdated",
      "type": "event"
    },
    {
      "anonymous": false,
      "inputs": [
        {
          "indexed": true,
          "internalType": "bytes32",
          "name": "requestId",
          "type": "bytes32"
        },
        {
          "indexed": true,
          "internalType": "address",
          "name": "translator",
          "type": "address"
        }
      ],
      "name": "RequestAssigned",
      "type": "event"
    },
    {
      "anonymous": false,
      "inputs": [
        {
          "indexed": true,
          "internalType": "bytes32",
          "name": "requestId",
          "type": "bytes32"
        }
      ],
      "name": "RequestCancelled",
      "type": "event"
    },
    {
      "anonymous": false,
      "inputs": [
        {
          "indexed": true,
          "internalType": "bytes32",
          "name": "requestId",
          "type": "bytes32"
        },
        {
          "indexed": true,
          "internalType": "address",
          "name": "translator",
          "type": "address"
        },
        {
          "indexed": false,
          "internalType": "string",
          "name": "translationHash",
          "type": "string"
        }
      ],
      "name": "RequestCompleted",
      "type": "event"
    },
    {
      "anonymous": false,
      "inputs": [
        {
          "indexed": true,
          "internalType": "bytes32",
          "name": "requestId",
          "type": "bytes32"
        },
        {
          "indexed": true,
          "internalType": "address",
          "name": "requester",
          "type": "address"
        },
        {
          "indexed": false,
          "internalType": "string",
          "name": "sourceLanguage",
          "type": "string"
        },
        {
          "indexed": false,
          "internalType": "string",
          "name": "targetLanguage",
          "type": "string"
        },
        {
          "indexed": false,
          "internalType": "uint256",
          "name": "reward",
          "type": "uint256"
        }
      ],
      "name": "RequestCreated",
      "type": "event"
    },
    {
      "anonymous": false,
      "inputs": [
        {
          "indexed": true,
          "internalType": "bytes32",
          "name": "requestId",
          "type": "bytes32"
        },
        {
          "indexed": false,
          "internalType": "address",
          "name": "disputer",
          "type": "address"
        }
      ],
      "name": "RequestDisputed",
      "type": "event"
    },
    {
      "anonymous": false,
      "inputs": [
        {
          "indexed": true,
          "internalType": "bytes32",
          "name": "requestId",
          "type": "bytes32"
        },
        {
          "indexed": false,
          "internalType": "uint8",
          "name": "quality",
          "type": "uint8"
        }
      ],
      "name": "RequestVerified",
      "type": "event"
    },
    {
      "anonymous": false,
      "inputs": [
        {
          "indexed": true,
          "internalType": "bytes32",
          "name": "requestId",
          "type": "bytes32"
        },
        {
          "indexed": true,
          "internalType": "address",
          "name": "translator",
          "type": "address"
        },
        {
          "indexed": false,
          "internalType": "uint256",
          "name": "amount",
          "type": "uint256"
        }
      ],
      "name": "RewardPaid",
      "type": "event"
    },
    {
      "anonymous": false,
      "inputs": [
        {
          "indexed": true,
          "internalType": "address",
          "name": "translator",
          "type": "address"
        },
        {
          "indexed": false,
          "internalType": "string[]",
          "name": "languages",
          "type": "string[]"
        }
      ],
      "name": "TranslatorRegistered",
      "type": "event"
    },
    {
      "anonymous": false,
      "inputs": [
        {
          "indexed": false,
          "internalType": "address",
          "name": "account",
          "type": "address"
        }
      ],
      "name": "Unpaused",
      "type": "event"
    },
    {
      "inputs": [
        {
          "internalType": "bytes32",
          "name": "requestId",
          "type": "bytes32"
        }
      ],
      "name": "acceptRequest",
      "outputs": [],
      "stateMutability": "nonpayable",
      "type": "function"
    },
    {
      "inputs": [
        {
          "internalType": "uint256",
          "name": "",
          "type": "uint256"
        }
      ],
      "name": "allRequestIds",
      "outputs": [
        {
          "internalType": "bytes32",
          "name": "",
          "type": "bytes32"
        }
      ],
      "stateMutability": "view",
      "type": "function"
    },
    {
      "inputs": [],
      "name": "assignmentTimeout",
      "outputs": [
        {
          "internalType": "uint256",
          "name": "",
          "type": "uint256"
        }
      ],
      "stateMutability": "view",
      "type": "function"
    },
    {
      "inputs": [
        {
          "internalType": "bytes32",
          "name": "requestId",
          "type": "bytes32"
        }
      ],
      "name": "cancelRequest",
      "outputs": [],
      "stateMutability": "nonpayable",
      "type": "function"
    },
    {
      "inputs": [
        {
          "internalType": "string",
          "name": "contentHash",
          "type": "string"
        },
        {
          "internalType": "string",
          "name": "sourceLanguage",
          "type": "string"
        },
        {
          "internalType": "string",
          "name": "targetLanguage",
          "type": "string"
        },
        {
          "internalType": "uint256",
          "name": "reward",
          "type": "uint256"
        },
        {
          "internalType": "uint256",
          "name": "deadline",
          "type": "uint256"
        },
        {
          "internalType": "bool",
          "name": "isAIAssisted",
          "type": "bool"
        }
      ],
      "name": "createRequest",
      "outputs": [
        {
          "internalType": "bytes32",
          "name": "",
          "type": "bytes32"
        }
      ],
      "stateMutability": "nonpayable",
      "type": "function"
    },
    {
      "inputs": [],
      "name": "cultureToken",
      "outputs": [
        {
          "internalType": "contract CultureToken",
          "name": "",
          "type": "address"
        }
      ],
      "stateMutability": "view",
      "type": "function"
    },
    {
      "inputs": [
        {
          "internalType": "bytes32",
          "name": "requestId",
          "type": "bytes32"
        }
      ],
      "name": "disputeTranslation",
      "outputs": [],
      "stateMutability": "nonpayable",
      "type": "function"
    },
    {
      "inputs": [],
      "name": "disputeWindow",
      "outputs": [
        {
          "internalType": "uint256",
          "name": "",
          "type": "uint256"
        }
      ],
      "stateMutability": "view",
      "type": "function"
    },
    {
      "inputs": [],
      "name": "getRequestCount",
      "outputs": [
        {
          "internalType": "uint256",
          "name": "",
          "type": "uint256"
        }
      ],
      "stateMutability": "view",
      "type": "function"
    },
    {
      "inputs": [
        {
          "internalType": "uint256",
          "name": "offset",
          "type": "uint256"
        },
        {
          "internalType": "uint256",
          "name": "limit",
          "type": "uint256"
        }
      ],
      "name": "getRequestIds",
      "outputs": [
        {
          "internalType": "bytes32[]",
          "name": "",
          "type": "bytes32[]"
        }
      ],
      "stateMutability": "view",
      "type": "function"
    },
    {
      "inputs": [
        {
          "internalType": "address",
          "name": "translator",
          "type": "address"
        }
      ],
      "name": "getTranslatorInfo",
      "outputs": [
        {
          "internalType": "address",
          "name": "wallet",
          "type": "address"
        },
        {
          "internalType": "string[]",
          "name": "languages",
          "type": "string[]"
        },
        {
          "internalType": "uint256",
          "name": "completedJobs",
          "type": "uint256"
        },
        {
          "internalType": "uint256",
          "name": "totalEarned",
          "type": "uint256"
        },
        {
          "internalType": "uint256",
          "name": "averageQuality",
          "type": "uint256"
        },
        {
          "internalType": "uint256",
          "name": "reputation",
          "type": "uint256"
        },
        {
          "internalType": "bool",
          "name": "isVerified",
          "type": "bool"
        },
        {
          "internalType": "bool",
          "name": "isActive",
          "type": "bool"
        }
      ],
      "stateMutability": "view",
      "type": "function"
    },
    {
      "inputs": [
        {
          "internalType": "address",
          "name": "translator",
          "type": "address"
        }
      ],
      "name": "getTranslatorJobs",
      "outputs": [
        {
          "internalType": "bytes32[]",
          "name": "",
          "type": "bytes32[]"
        }
      ],
      "stateMutability": "view",
      "type": "function"
    },
    {
      "inputs": [
        {
          "internalType": "address",
          "name": "user",
          "type": "address"
        }
      ],
      "name": "getUserRequests",
      "outputs": [
        {
          "internalType": "bytes32[]",
          "name": "",
          "type": "bytes32[]"
        }
      ],
      "stateMutability": "view",
      "type": "function"
    },
    {
      "inputs": [
        {
          "internalType": "bytes32",
          "name": "requestId",
          "type": "bytes32"
        }
      ],
      "name": "handleExpiredAssignment",
      "outputs": [],
      "stateMutability": "nonpayable",
      "type": "function"
    },
    {
      "inputs": [],
      "name": "minReward",
      "outputs": [
        {
          "internalType": "uint256",
          "name": "",
          "type": "uint256"
        }
      ],
      "stateMutability": "view",
      "type": "function"
    },
    {
      "inputs": [],
      "name": "owner",
      "outputs": [
        {
          "internalType": "address",
          "name": "",
          "type": "address"
        }
      ],
      "stateMutability": "view",
      "type": "function"
    },
    {
      "inputs": [],
      "name": "pause",
      "outputs": [],
      "stateMutability": "nonpayable",
      "type": "function"
    },
    {
      "inputs": [],
      "name": "paused",
      "outputs": [
        {
          "internalType": "bool",
          "name": "",
          "type": "bool"
        }
      ],
      "stateMutability": "view",
      "type": "function"
    },
    {
      "inputs": [],
      "name": "platformFee",
      "outputs": [
        {
          "internalType": "uint256",
          "name": "",
          "type": "uint256"
        }
      ],
      "stateMutability": "view",
      "type": "function"
    },
    {
      "inputs": [
        {
          "internalType": "string[]",
          "name": "languages",
          "type": "string[]"
        }
      ],
      "name": "registerTranslator",
      "outputs": [],
      "stateMutability": "nonpayable",
      "type": "function"
    },
    {
      "inputs": [],
      "name": "renounceOwnership",
      "outputs": [],
      "stateMutability": "nonpayable",
      "type": "function"
    },
    {
      "inputs": [
        {
          "internalType": "bytes32",
          "name": "",
          "type": "bytes32"
        }
      ],
      "name": "requests",
      "outputs": [
        {
          "internalType": "address",
          "name": "requester",
          "type": "address"
        },
        {
          "internalType": "string",
          "name": "contentHash",
          "type": "string"
        },
        {
          "internalType": "string",
          "name": "sourceLanguage",
          "type": "string"
        },
        {
          "internalType": "string",
          "name": "targetLanguage",
          "type": "string"
        },
        {
          "internalType": "uint256",
          "name": "reward",
          "type": "uint256"
        },
        {
          "internalType": "uint256",
          "name": "deadline",
          "type": "uint256"
        },
        {
          "internalType": "address",
          "name": "translator",
          "type": "address"
        },
        {
          "internalType": "string",
          "name": "translationHash",
          "type": "string"
        },
        {
          "internalType": "enum TranslationMarket.RequestStatus",
          "name": "status",
          "type": "uint8"
        },
        {
          "internalType": "uint256",
          "name": "createdAt",
          "type": "uint256"
        },
        {
          "internalType": "uint256",
          "name": "completedAt",
          "type": "uint256"
        },
        {
          "internalType": "uint8",
          "name": "quality",
          "type": "uint8"
        },
        {
          "internalType": "bool",
          "name": "isAIAssisted",
          "type": "bool"
        }
      ],
      "stateMutability": "view",
      "type": "function"
    },
    {
      "inputs": [
        {
          "internalType": "bytes32",
          "name": "requestId",
          "type": "bytes32"
        },
        {
          "internalType": "uint8",
          "name": "quality",
          "type": "uint8"
        },
        {
          "internalType": "uint8",
          "name": "refundPercentage",
          "type": "uint8"
        }
      ],
      "name": "resolveDispute",
      "outputs": [],
      "stateMutability": "nonpayable",
      "type": "function"
    },
    {
      "inputs": [
        {
          "internalType": "bytes32",
          "name": "requestId",
          "type": "bytes32"
        },
        {
          "internalType": "string",
          "name": "translationHash",
          "type": "string"
        }
      ],
      "name": "submitTranslation",
      "outputs": [],
      "stateMutability": "nonpayable",
      "type": "function"
    },
    {
      "inputs": [
        {
          "internalType": "address",
          "name": "newOwner",
          "type": "address"
        }
      ],
      "name": "transferOwnership",
      "outputs": [],
      "stateMutability": "nonpayable",
      "type": "function"
    },
    {
      "inputs": [
        {
          "internalType": "address",
          "name": "",
          "type": "address"
        },
        {
          "internalType": "uint256",
          "name": "",
          "type": "uint256"
        }
      ],
      "name": "translatorJobs",
      "outputs": [
        {
          "internalType": "bytes32",
          "name": "",
          "type": "bytes32"
        }
      ],
      "stateMutability": "view",
      "type": "function"
    },
    {
      "inputs": [
        {
          "internalType": "address",
          "name": "",
          "type": "address"
        }
      ],
      "name": "translators",
      "outputs": [
        {
          "internalType": "address",
          "name": "wallet",
          "type": "address"
        },
        {
          "internalType": "uint256",
          "name": "completedJobs",
          "type": "uint256"
        },
        {
          "internalType": "uint256",
          "name": "totalEarned",
          "type": "uint256"
        },
        {
          "internalType": "uint256",
          "name": "averageQuality",
          "type": "uint256"
        },
        {
          "internalType": "uint256",
          "name": "reputation",
          "type": "uint256"
        },
        {
          "internalType": "bool",
          "name": "isVerified",
          "type": "bool"
        },
        {
          "internalType": "bool",
          "name": "isActive",
          "type": "bool"
        }
      ],
      "stateMutability": "view",
      "type": "function"
    },
    {
      "inputs": [],
      "name": "unpause",
      "outputs": [],
      "stateMutability": "nonpayable",
      "type": "function"
    },
    {
      "inputs": [
        {
          "internalType": "uint256",
          "name": "_platformFee",
          "type": "uint256"
        },
        {
          "internalType": "uint256",
          "name": "_minReward",
          "type": "uint256"
        },
        {
          "internalType": "uint256",
          "name": "_disputeWindow",
          "type": "uint256"
        },
        {
          "internalType": "uint256",
          "name": "_assignmentTimeout",
          "type": "uint256"
        }
      ],
      "name": "updatePlatformParameters",
      "outputs": [],
      "stateMutability": "nonpayable",
      "type": "function"
    },
    {
      "inputs": [
        {
          "internalType": "address",
          "name": "",
          "type": "address"
        },
        {
          "internalType": "uint256",
          "name": "",
          "type": "uint256"
        }
      ],
      "name": "userRequests",
      "outputs": [
        {
          "internalType": "bytes32",
          "name": "",
          "type": "bytes32"
        }
      ],
      "stateMutability": "view",
      "type": "function"
    },
    {
      "inputs": [
        {
          "internalType": "bytes32",
          "name": "requestId",
          "type": "bytes32"
        },
        {
          "internalType": "uint8",
          "name": "quality",
          "type": "uint8"
        }
      ],
      "name": "verifyTranslation",
      "outputs": [],
      "stateMutability": "nonpayable",
      "type": "function"
    }
  ],
  "bytecode": "0x6080346200012e57601f6200319738819003918201601f19168301916001600160401b0383118484101762000133578084926020946040528339810103126200012e57516001600160a01b03808216918290036200012e5760005460405191339082167f8be0079c531659141344cd1fd0a4f28419497f9722a3daafe3b4186f6b6457e0600080a36001600160a81b0319163360ff60a01b191617600055600180556005600855678ac7230489e800006009556203f480600a5562015180600b558115620000ec5750600280546001600160a01b03191691909117905560405161304d90816200014a8239f35b62461bcd60e51b815260206004820152601560248201527f496e76616c696420746f6b656e206164647265737300000000000000000000006044820152606490fd5b600080fd5b634e487b7160e01b600052604160045260246000fdfe608080604052600436101561001357600080fd5b60003560e01c908163117f5f92146128ed5750806315b68e221461287557806326232a2e14612857578063263cb6b61461280d57806327151985146126b357806327c79d6e146123105780632c11cda814611f3a5780632fb6e41d14611e8c5780633f4ba83a14611df05780633fad183414611dd25780635012554614611c30578063583d70921461186a5780635c975abb146118445780635ffce6aa146117ec578063715018a61461179357806374d311f41461176a5780638456cb59146117085780638da5cb5b146116df578063968e5a0d1461168e5780639d86698514611526578063a721cd30146112b5578063b337cf7414611231578063b46060761461109e578063ba16d60014611080578063bbf5d7eb14611062578063bf19441814610f2b578063cbb96b0014610ea5578063e3ec3cd6146105d1578063ed7561ee1461034e578063f12856881461023d5763f2fde38b1461017457600080fd5b346102385760203660031901126102385761018d612908565b610195612adf565b6001600160a01b039081169081156101e457600054826001600160601b0360a01b821617600055167f8be0079c531659141344cd1fd0a4f28419497f9722a3daafe3b4186f6b6457e0600080a3005b60405162461bcd60e51b815260206004820152602660248201527f4f776e61626c653a206e6577206f776e657220697320746865207a65726f206160448201526564647265737360d01b6064820152608490fd5b600080fd5b3461023857604036600319011261023857602460043561025e823582612eda565b6007918254808311610346575b6102758284612f07565b9361027f85612fe0565b9461028d6040519687612a91565b80865261029c601f1991612fe0565b01916020923684880137835b8581106102c157604051806102bd898261291e565b0390f35b818110156103315782600052807fa66cc928b5edb82af9bd49922954155ab7b0942694bea4ce44661d9a8736c6880154906102fc8682612f07565b91885183101561031c57856103179360051b8a010152612d7e565b6102a8565b89634e487b7160e01b60005260326004526000fd5b87634e487b7160e01b60005260326004526000fd5b91508161026b565b34610238576040366003190112610238576001600160401b0360043560243582811161023857610382903690600401612ab2565b9161038b612b37565b610393612ca5565b806000526020916003835260406000209360018060a01b03946103ba868254161515612cfb565b6008810160ff8154169660068810156105bb576103da6001809914612e0f565b6006830154163303610580576103f560058301544210612d40565b821561053b57600782019783116105255761041a836104148a546129c1565b8a612ba8565b600097601f84116001146104a257837f9753e4569622139d8864a1b406bcb5667b4ec32a476fc0502d8c17737e4de3ef96979899600091610497575b50600019600386901b1c1916848a1b1790555b600260ff19825416179055600a429101556104906040519283928784523397840191612bef565b0390a38055005b90508501358a610456565b601f1984169881600052876000209060005b8b81106105105750857f9753e4569622139d8864a1b406bcb5667b4ec32a476fc0502d8c17737e4de3ef98999a9b106104f6575b50508884811b019055610469565b860135600019600387901b60f8161c1916905589806104e8565b878201358355918a01919089019089016104b4565b634e487b7160e01b600052604160045260246000fd5b60405162461bcd60e51b815260048101879052601960248201527f5472616e736c6174696f6e2068617368207265717569726564000000000000006044820152606490fd5b60405162461bcd60e51b81526004810187905260136024820152724e6f742061737369676e656420746f20796f7560681b6044820152606490fd5b634e487b7160e01b600052602160045260246000fd5b346102385760c0366003190112610238576004356001600160401b03811161023857610601903690600401612ab2565b6024356001600160401b03811161023857610620903690600401612ab2565b906044356001600160401b03811161023857610640903690600401612ab2565b91909460a435801515810361023857610657612b37565b61065f612ca5565b8515610e68578415610e23578315610dde5760095460643510610da857426084351115610d70576002546040516323b872dd60e01b81523360048201523060248201526064803560448301529091602091839182906000906001600160a01b03165af1908115610d6457600091610d35575b5015610cf85785604051610724605482888c818c60208501983360601b8a52808c60348801378501818d603483016000815237019160348301600081523701426034820152036034810184520182612a91565b5190209560405192836101a08101106001600160401b036101a0860111176105255761075c916101a085016040523385523691612c28565b602083015261076c368685612c28565b604083015261077c368589612c28565b6060830152606435608083015260843560a0830152600060c08301526040518060208101106001600160401b0360208301111761052557602081016040526000815260e0830152600061010083015242610120830152600061014083015260006101608301521515610180820152846000526003602052604060002060018060a01b038251166001600160601b0360a01b82541617815560208201518051906001600160401b0382116105255781906108458261083c60018701546129c1565b60018701612ba8565b602090601f8311600114610c8657600092610c7b575b50508160011b916000199060031b1c19161760018201555b60408201518051906001600160401b0382116105255781906108a58261089c60028701546129c1565b60028701612ba8565b602090601f8311600114610c0957600092610bfe575b50508160011b916000199060031b1c19161760028201555b60608201518051906001600160401b038211610525578190610905826108fc60038701546129c1565b60038701612ba8565b602090601f8311600114610b8c57600092610b81575b50508160011b916000199060031b1c19161760038201555b6080820151600482015560a082015160058201556006810160018060a01b0360c0840151166001600160601b0360a01b82541617905560e08201518051906001600160401b03821161052557819061099b8261099260078701546129c1565b60078701612ba8565b602090601f8311600114610b0f57600092610b04575b50508160011b916000199060031b1c19161760078201555b610100820151906008810160068310156105bb57600b9260ff801983541691161790556101208301516009820155610140830151600a820155019060ff6101608201511661ff006101808454930151151560081b169161ffff191617179055336000526005602052610a3f846040600020612c6e565b60075490600160401b821015610525576001820180600755821015610aee576020958593610ac6610ad393867ec54bddb41c06c364eb8cf8dd274588eeaf2f51aa5f3dfd749c85ed3fd5631f9660076000527fa66cc928b5edb82af9bd49922954155ab7b0942694bea4ce44661d9a8736c688015560405197606089526060890191612bef565b9186830389880152612bef565b9260643560408201528033940390a360018055604051908152f35b634e487b7160e01b600052603260045260246000fd5b0151905089806109b1565b9250600784016000526020600020906000935b601f1984168510610b66576001945083601f19811610610b4d575b505050811b0160078201556109c9565b015160001960f88460031b161c19169055898080610b3d565b81810151835560209485019460019093019290910190610b22565b01519050898061091b565b9250600384016000526020600020906000935b601f1984168510610be3576001945083601f19811610610bca575b505050811b016003820155610933565b015160001960f88460031b161c19169055898080610bba565b81810151835560209485019460019093019290910190610b9f565b0151905089806108bb565b9250600284016000526020600020906000935b601f1984168510610c60576001945083601f19811610610c47575b505050811b0160028201556108d3565b015160001960f88460031b161c19169055898080610c37565b81810151835560209485019460019093019290910190610c1c565b01519050898061085b565b9250600184016000526020600020906000935b601f1984168510610cdd576001945083601f19811610610cc4575b505050811b016001820155610873565b015160001960f88460031b161c19169055898080610cb4565b81810151835560209485019460019093019290910190610c99565b60405162461bcd60e51b8152602060048201526015602482015274151bdad95b881d1c985b9cd9995c8819985a5b1959605a1b6044820152606490fd5b610d57915060203d602011610d5d575b610d4f8183612a91565b810190612c10565b886106d1565b503d610d45565b6040513d6000823e3d90fd5b60405162461bcd60e51b815260206004820152601060248201526f496e76616c696420646561646c696e6560801b6044820152606490fd5b60405162461bcd60e51b815260206004820152600e60248201526d52657761726420746f6f206c6f7760901b6044820152606490fd5b60405162461bcd60e51b815260206004820152601860248201527f546172676574206c616e677561676520726571756972656400000000000000006044820152606490fd5b60405162461bcd60e51b815260206004820152601860248201527f536f75726365206c616e677561676520726571756972656400000000000000006044820152606490fd5b60405162461bcd60e51b815260206004820152601560248201527410dbdb9d195b9d081a185cda081c995c5d5a5c9959605a1b6044820152606490fd5b346102385760203660031901126102385760e06001600160a01b0380610ec9612908565b16600052600460205260ff60406000209182541691600281015490600381015460048201549060066005840154930154936040519687526020870152604086015260608501526080840152818116151560a084015260081c16151560c0820152f35b3461023857602036600319011261023857600435610f47612b37565b610f4f612ca5565b600081815260036020526040902080546001600160a01b0316330361101d57600881019081549060ff821660068110156105bb57610fa091610f956002600a9314612e52565b0154600a5490612eda565b4211610fe05760049060ff19161790557f04058b2667862571c68da65c28269c17b24e2f0577b6ad02fe39ae8e98e92b726020604051338152a260018055005b60405162461bcd60e51b8152602060048201526015602482015274111a5cdc1d5d19481dda5b991bddc818db1bdcd959605a1b6044820152606490fd5b60405162461bcd60e51b815260206004820152601a60248201527f4f6e6c79207265717565737465722063616e20646973707574650000000000006044820152606490fd5b34610238576000366003190112610238576020600b54604051908152f35b34610238576000366003190112610238576020600954604051908152f35b34610238576020366003190112610238576004356110ba612b37565b6110c2612ca5565b80600052600360205260406000209060088201805460ff811660068110156105bb5760016110f09114612e0f565b60058401544211156111f65760ff191690556006820180546001600160a01b031981169091556001600160a01b039081166000908152600460205260409020600590810180549182116111a7575b50506111987ec54bddb41c06c364eb8cf8dd274588eeaf2f51aa5f3dfd749c85ed3fd5631f9184541693600481015460405192839260608452600361118960608601600284016129fb565b918583036020870152016129fb565b9060408301520390a360018055005b600419820192909183116111e0579190556111987ec54bddb41c06c364eb8cf8dd274588eeaf2f51aa5f3dfd749c85ed3fd5631f61113e565b634e487b7160e01b600052601160045260246000fd5b60405162461bcd60e51b815260206004820152601360248201527214995c5d595cdd081b9bdd08195e1c1a5c9959606a1b6044820152606490fd5b3461023857602080600319360112610238576001600160a01b03611253612908565b1660005260058152604060002090604051908181845491828152019360005281600020916000905b82821061129e576102bd8561129281890382612a91565b6040519182918261291e565b83548652948501946001938401939091019061127b565b346102385760208060031936011261023857600435906112d3612b37565b6112db612ca5565b81600052600381526040600020906112fd60018060a01b038354161515612cfb565b60088201805460ff811660068110156105bb576114e95761132360058501544210612d40565b336000526004835260ff60066040600020015460081c16156114ac5760038401936000805b33600052600486526001806040600020015482101561149f576113718282604060002001612959565b508860405191826113858b82018093612d8d565b0392611399601f1994858101835282612a91565b519020916113be60405191826113b28d82018096612d8d565b03908101835282612a91565b519020146113d557506113d090612d7e565b611348565b92939495965050505b156114465760069392918460019201336001600160601b0360a01b82541617905560ff19161790553360005252611419816040600020612c6e565b33907f94cb47fe0ec34755e49cddd5727d5227ffea86fff9d5662457db4b8b9c2c1ead600080a360018055005b60405162461bcd60e51b815260048101859052602b60248201527f5472616e736c61746f7220646f6573206e6f7420737570706f7274207461726760448201526a6574206c616e677561676560a81b6064820152608490fd5b50509091929394506113de565b60405162461bcd60e51b81526004810184905260156024820152745472616e736c61746f72206e6f742061637469766560581b6044820152606490fd5b60405162461bcd60e51b815260048101849052601560248201527452657175657374206e6f7420617661696c61626c6560581b6044820152606490fd5b346102385760203660031901126102385760043560005260036020526040600020600160a01b6001900380825416916040519182806001840190611569916129fb565b036115749084612a91565b604051928361158681600286016129fb565b036115919085612a91565b60405191826115a381600387016129fb565b036115ae9084612a91565b600484015460058501546006860154604051931690836115d18160078a016129fb565b036115dc9085612a91565b600887015460ff1695600988015498600a89015498600b0154966040519b8c528b6101a06020819201528c0161161191612971565b8b810360408d015261162291612971565b8a810360608c015261163391612971565b9260808a015260a089015260c088015286810360e088015261165491612971565b9260068310156105bb57859460ff9361010087015261012086015261014085015281811661016085015260081c1615156101808301520390f35b34610238576020366003190112610238576004356007548110156102385760209060076000527fa66cc928b5edb82af9bd49922954155ab7b0942694bea4ce44661d9a8736c6880154604051908152f35b34610238576000366003190112610238576000546040516001600160a01b039091168152602090f35b3461023857600036600319011261023857611721612adf565b611729612b37565b6000805460ff60a01b1916600160a01b1790556040513381527f62e78cea01bee320cd4e420270b5ea74000d11b0c9f74754ebdbfc544b05a25890602090a1005b34610238576000366003190112610238576002546040516001600160a01b039091168152602090f35b34610238576000366003190112610238576117ac612adf565b600080546001600160a01b0319811682556001600160a01b03167f8be0079c531659141344cd1fd0a4f28419497f9722a3daafe3b4186f6b6457e08280a3005b3461023857604036600319011261023857611805612908565b6001600160a01b03166000908152600660205260409020805460243591908210156102385760209161183691612959565b90546040519160031b1c8152f35b3461023857600036600319011261023857602060ff60005460a01c166040519015158152f35b34610238576020366003190112610238576001600160401b03600435116102385736602360043501121561023857600435600401356001600160401b038111610238576024600435013660248360051b600435010111610238576118cc612b37565b8115611be0573360005260046020526040600020336001600160601b0360a01b82541617815560018101600160401b8411610525578054848255808510611b65575b5060009081526020812090835b858210611a025750505060068101805461ff0019166101001790556002810154156119f5575b5060405182602082016020835252604081019260408160051b830101929060005b81811061199257337fc3b2d9a198b0628bc8916bea63b38fbc8a4d74cdfac29749b265d8374a0c1b2a85870386a2005b909193603f198482030186528435604219600435360301811215610238576004350190604460248301359201916001600160401b038111610238578036038313610238576119e66020928392600195612bef565b96019601910194919094611962565b6005603291015582611941565b8035600435360360421901811215610238576001600160401b03602482600435010135116102385760043581016024810135360360449091011361023857611a5c602482600435010135611a5686546129c1565b86612ba8565b6000601f60248360043501013511600114611ac8576001928392602092600090602483600435010135611ab6575b5060001960043590920160240135600381901b9290921c191690841b1786555b0193019101909161191b565b6044915082600435010101358b611a8a565b8460005260206000209060005b600435840160240135601f19168110611b465750600193849360209391928592602492916004358301840135601f19811610611b1e575b5050600435010135811b018655611aaa565b604460001960f8868660043501013560031b161c199184600435010101351690558c80611b0c565b9091602060018192604486886004350101013581550193019101611ad5565b8160005284602060002091820191015b818110611b82575061190e565b80611b8f600192546129c1565b80611b9c575b5001611b75565b601f908181118414611bb5575050600081555b87611b95565b83611bd192846000526020600020920160051c82019101612b91565b60006020812081835555611baf565b60405162461bcd60e51b815260206004820152602260248201527f4d75737420737570706f7274206174206c65617374206f6e65206c616e677561604482015261676560f01b6064820152608490fd5b34610238576020806003193601126102385760043590611c4e612b37565b611c56612ca5565b6000828152600382526040902080546001600160a01b039081169190338303611d8d5760088201805460ff811660068110156105bb57611d3c5760ff1916600517905560025460049283015460405163a9059cbb60e01b81526001600160a01b039095169385019390935260248401929092528391839116816000816044810103925af1908115610d6457611cf492600092611d1f575b5050612f9b565b7ff903f4774c7bd27355f9d7fcbc382b079b164a697a44ac5d95267a4c3cb3bb22600080a260018055005b611d359250803d10610d5d57610d4f8183612a91565b8380611ced565b60405162461bcd60e51b815260048101879052602360248201527f43616e206f6e6c792063616e63656c20756e61737369676e656420726571756560448201526273747360e81b6064820152608490fd5b60405162461bcd60e51b815260048101859052601960248201527f4f6e6c79207265717565737465722063616e2063616e63656c000000000000006044820152606490fd5b34610238576000366003190112610238576020600754604051908152f35b3461023857600036600319011261023857611e09612adf565b60005460ff8160a01c1615611e505760ff60a01b19166000556040513381527f5db9ee0a495bf2e6ff9c91a7834c1ba4fdd244a5e8aa4e537bd38aeae4b073aa90602090a1005b60405162461bcd60e51b815260206004820152601460248201527314185d5cd8589b194e881b9bdd081c185d5cd95960621b6044820152606490fd5b3461023857608036600319011261023857604435602435600435606435611eb1612adf565b60148211611f06577f75ac513b739a4d6b2462e9995b48358de3cde535cbf31e4cb44aa20fca84b44493608093836008558060095581600a5582600b55604051938452602084015260408301526060820152a1005b60405162461bcd60e51b815260206004820152600c60248201526b08ccaca40e8dede40d0d2ced60a31b6044820152606490fd5b3461023857606036600319011261023857600435611f566129b1565b6044359060ff821680920361023857611f6d612adf565b611f75612ca5565b826000526020906003825260406000206008810180549260ff841660068110156105bb576004036122d45760ff1692611fb16064851115612e96565b6064861161229857600390600b84019060ff199186838254161790551617905582611fee6064611fe660048501549788612b7e565b048096612f07565b94612008606461200060085489612b7e565b048097612f07565b80612135575b50806120bf575b5050508261203c575b600080516020612ff88339815191529250604051908152a260018055005b6002546000805460405163a9059cbb60e01b81526001600160a01b0391821660048201526024810196909652849286926044928492165af1928315610d6457600080516020612ff88339815191529361209d916000916120a2575b50612f59565b61201e565b6120b99150843d8611610d5d57610d4f8183612a91565b86612097565b600254925460405163a9059cbb60e01b81526001600160a01b0391821660048201526024810192909252909283916044918391600091165af18015610d645761211091600091612118575b50612f9b565b848281612015565b61212f9150843d8611610d5d57610d4f8183612a91565b8661210a565b9150600683019160018060a01b03928381541660005260048752604060002060028101805490600182018083116111e0578061219a92556003840161217b878254612eda565b90556121958a61219060048701958654612b7e565b612eda565b612ee7565b90556050871061226057600501805490600182018092116111e057555b600254815460405163a9059cbb60e01b81529086166001600160a01b031660048201526024810184905290889082908716816000816044810103925af18015610d645788958b9361223388937f42c8f6f0e2fa04d746b26cc4f4a8691dd37fa46aa42ef1ea594826db86d23b2395600091612243575b50612f14565b541693604051908152a38761200e565b61225a9150853d8711610d5d57610d4f8183612a91565b8f61222d565b6032871061226f575b506121b7565b600501805490600a8211612284575b50612269565b60001982019182116111e05755898061227e565b60405162461bcd60e51b81526004810186905260146024820152730526566756e64206d75737420626520302d3130360641b6044820152606490fd5b60405162461bcd60e51b815260048101869052601460248201527314995c5d595cdd081b9bdd08191a5cdc1d5d195960621b6044820152606490fd5b346102385760403660031901126102385760043561232c6129b1565b90612335612b37565b61233d612ca5565b8060005260206003815260406000209060018060a01b0380835416330361266e576008830180549560ff87169060068210156105bb57612381600260ff9314612e52565b16956123906064881115612e96565b6123a1600a860154600a5490612eda565b421161262957600390600b86019060ff19918983825416179055161790556004830154926123de60646123d660085487612b7e565b048095612f07565b95603281109182612611575b60060191838354166000526004855260406000206002810191825460018101938482116111e0578460059561243f92558c61242a60038701918254612eda565b90556121958761219060048801958654612b7e565b9055605084106125c8575001948554600281018091116111e057600096555b600254835460405163a9059cbb60e01b8082529187166001600160a01b03166004820152602481018b90529790918791899160449183918a165af1968715610d645788976124b3916000916125ab5750612f14565b81612505575b505093600080516020612ff8833981519152847f42c8f6f0e2fa04d746b26cc4f4a8691dd37fa46aa42ef1ea594826db86d23b2396604051908152a2541693604051908152a360018055005b6002546000805460405193845287166001600160a01b03166004840152602483019390935290965085918791604491839188165af1948515610d64578487926125867f42c8f6f0e2fa04d746b26cc4f4a8691dd37fa46aa42ef1ea594826db86d23b2398600080516020612ff88339815191529460009161258e5750612f59565b9296506124b9565b6125a59150843d8611610d5d57610d4f8183612a91565b8c612097565b6125c29150883d8a11610d5d57610d4f8183612a91565b8b61222d565b6125e45701948554600181018091116111e0576000965561245e565b01948554600a81116125fb575b506000955061245e565b60011981019081116111e05760009655886125f1565b96606461262083600693612b7e565b049790506123ea565b60405162461bcd60e51b815260048101859052601a60248201527f566572696669636174696f6e2077696e646f7720636c6f7365640000000000006044820152606490fd5b60405162461bcd60e51b815260048101839052601960248201527f4f6e6c79207265717565737465722063616e20766572696679000000000000006044820152606490fd5b3461023857602080600319360112610238576001600160a01b0390816126d7612908565b166000526004815260406000209182541690600192838101916002820154600383015490600484015492600660058601549501549786549761271889612fe0565b986127266040519a8b612a91565b808a52838a018099600052846000206000915b8383106127dc575050505060405198610100808b01928b52848b01525180915261012092838a01938260051b8b010198936000905b8382106127ad57508a808b60ff8f8d8d8d8d60408801526060870152608086015260a0850152818116151560c085015260081c16151560e08301520390f35b9091929383806127cc889d8f99859a61011f1990830301875251612971565b9c0192019201909493929161276e565b948087819896976040516127fb816127f481896129fb565b0382612a91565b81520192019201919095949395612739565b3461023857604036600319011261023857612826612908565b6001600160a01b03166000908152600560205260409020805460243591908210156102385760209161183691612959565b34610238576000366003190112610238576020600854604051908152f35b3461023857602080600319360112610238576001600160a01b03612897612908565b1660005260068152604060002090604051908181845491828152019360005281600020916000905b8282106128d6576102bd8561129281890382612a91565b8354865294850194600193840193909101906128bf565b3461023857600036600319011261023857602090600a548152f35b600435906001600160a01b038216820361023857565b6020908160408183019282815285518094520193019160005b828110612945575050505090565b835185529381019392810192600101612937565b8054821015610aee5760005260206000200190600090565b919082519283825260005b84811061299d575050826000602080949584010152601f8019910116010190565b60208183018101518483018201520161297c565b6024359060ff8216820361023857565b90600182811c921680156129f1575b60208310146129db57565b634e487b7160e01b600052602260045260246000fd5b91607f16916129d0565b9060009291805491612a0c836129c1565b918282526001938481169081600014612a6e5750600114612a2e575b50505050565b90919394506000526020928360002092846000945b838610612a5a575050505001019038808080612a28565b805485870183015294019385908201612a43565b9294505050602093945060ff191683830152151560051b01019038808080612a28565b90601f801991011681019081106001600160401b0382111761052557604052565b9181601f84011215610238578235916001600160401b038311610238576020838186019501011161023857565b6000546001600160a01b03163303612af357565b606460405162461bcd60e51b815260206004820152602060248201527f4f776e61626c653a2063616c6c6572206973206e6f7420746865206f776e65726044820152fd5b60ff60005460a01c16612b4657565b60405162461bcd60e51b815260206004820152601060248201526f14185d5cd8589b194e881c185d5cd95960821b6044820152606490fd5b818102929181159184041417156111e057565b818110612b9c575050565b60008155600101612b91565b9190601f8111612bb757505050565b612be3926000526020600020906020601f840160051c83019310612be5575b601f0160051c0190612b91565b565b9091508190612bd6565b908060209392818452848401376000828201840152601f01601f1916010190565b90816020910312610238575180151581036102385790565b9291926001600160401b0382116105255760405191612c51601f8201601f191660200184612a91565b829481845281830111610238578281602093846000960137010152565b8054600160401b81101561052557612c8b91600182018155612959565b819291549060031b600019811b9283911b16911916179055565b600260015414612cb6576002600155565b60405162461bcd60e51b815260206004820152601f60248201527f5265656e7472616e637947756172643a207265656e7472616e742063616c6c006044820152606490fd5b15612d0257565b60405162461bcd60e51b815260206004820152601660248201527514995c5d595cdd08191bd95cc81b9bdd08195e1a5cdd60521b6044820152606490fd5b15612d4757565b60405162461bcd60e51b815260206004820152600f60248201526e14995c5d595cdd08195e1c1a5c9959608a1b6044820152606490fd5b60001981146111e05760010190565b600092918154612d9c816129c1565b92600191808316908115612df45750600114612db85750505050565b90919293945060005260209081600020906000915b858310612de35750505050019038808080612a28565b805485840152918301918101612dcd565b60ff1916845250505081151590910201915038808080612a28565b15612e1657565b60405162461bcd60e51b815260206004820152601460248201527314995c5d595cdd081b9bdd08185cdcda59db995960621b6044820152606490fd5b15612e5957565b60405162461bcd60e51b815260206004820152601560248201527414995c5d595cdd081b9bdd0818dbdb5c1b195d1959605a1b6044820152606490fd5b15612e9d57565b60405162461bcd60e51b815260206004820152601560248201527405175616c697479206d75737420626520302d31303605c1b6044820152606490fd5b919082018092116111e057565b8115612ef1570490565b634e487b7160e01b600052601260045260246000fd5b919082039182116111e057565b15612f1b57565b60405162461bcd60e51b815260206004820152601660248201527514995dd85c99081d1c985b9cd9995c8819985a5b195960521b6044820152606490fd5b15612f6057565b60405162461bcd60e51b8152602060048201526013602482015272119959481d1c985b9cd9995c8819985a5b1959606a1b6044820152606490fd5b15612fa257565b60405162461bcd60e51b81526020600482015260166024820152751499599d5b99081d1c985b9cd9995c8819985a5b195960521b6044820152606490fd5b6001600160401b0381116105255760051b6020019056fec12e935a4bb96e1c91a98ab1d06bb84d8c93f1ce2688ae68d5ec18cbf04c264ea2646970667358221220e8b64b63306fcfc432e54ba97dcc5629c5f0c2f06eba6e476638cb694bf225d364736f6c63430008110033",
  "linkReferences": {},
  "deployedLinkReferences": {}
}