{"src/contracts/AIRequest.sol":{"AIRequest":{"abi":[{"inputs":[{"internalType":"address","name":"tokenAddress","type":"address"},{"internalType":"address","name":"registryAddress","type":"address"}],"stateMutability":"nonpayable","type":"constructor"},{"anonymous":false,"inputs":[{"indexed":true,"internalType":"address","name":"previousOwner","type":"address"},{"indexed":true,"internalType":"address","name":"newOwner","type":"address"}],"name":"OwnershipTransferred","type":"event"},{"anonymous":false,"inputs":[{"indexed":false,"internalType":"uint256","name":"newFeePercent","type":"uint256"}],"name":"PlatformFeeUpdated","type":"event"},{"anonymous":false,"inputs":[{"indexed":true,"internalType":"uint256","name":"requestId","type":"uint256"},{"indexed":true,"internalType":"address","name":"provider","type":"address"}],"name":"RequestAccepted","type":"event"},{"anonymous":false,"inputs":[{"indexed":true,"internalType":"uint256","name":"requestId","type":"uint256"}],"name":"RequestCancelled","type":"event"},{"anonymous":false,"inputs":[{"indexed":true,"internalType":"uint256","name":"requestId","type":"uint256"},{"indexed":false,"internalType":"string","name":"outputDataURI","type":"string"}],"name":"RequestCompleted","type":"event"},{"anonymous":false,"inputs":[{"indexed":true,"internalType":"uint256","name":"requestId","type":"uint256"},{"indexed":true,"internalType":"address","name":"requester","type":"address"},{"indexed":true,"internalType":"uint256","name":"serviceId","type":"uint256"},{"indexed":false,"internalType":"uint256","name":"reward","type":"uint256"}],"name":"RequestCreated","type":"event"},{"anonymous":false,"inputs":[{"indexed":true,"internalType":"uint256","name":"requestId","type":"uint256"},{"indexed":false,"internalType":"string","name":"disputeReason","type":"string"}],"name":"RequestDisputed","type":"event"},{"anonymous":false,"inputs":[{"indexed":true,"internalType":"uint256","name":"requestId","type":"uint256"}],"name":"RequestProcessing","type":"event"},{"anonymous":false,"inputs":[{"indexed":true,"internalType":"uint256","name":"requestId","type":"uint256"},{"indexed":false,"internalType":"uint256","name":"qualityScore","type":"uint256"}],"name":"RequestVerified","type":"event"},{"inputs":[{"internalType":"uint256","name":"requestId","type":"uint256"}],"name":"acceptRequest","outputs":[],"stateMutability":"nonpayable","type":"function"},{"inputs":[],"name":"aiRegistry","outputs":[{"internalType":"contract IAIRegistry","name":"","type":"address"}],"stateMutability":"view","type":"function"},{"inputs":[{"internalType":"uint256","name":"requestId","type":"uint256"}],"name":"cancelRequest","outputs":[],"stateMutability":"nonpayable","type":"function"},{"inputs":[{"internalType":"uint256","name":"requestId","type":"uint256"},{"internalType":"string","name":"outputDataURI","type":"string"}],"name":"completeRequest","outputs":[],"stateMutability":"nonpayable","type":"function"},{"inputs":[{"internalType":"uint256","name":"serviceId","type":"uint256"},{"internalType":"string","name":"requestType","type":"string"},{"internalType":"string[]","name":"inputLanguages","type":"string[]"},{"internalType":"string[]","name":"outputLanguages","type":"string[]"},{"internalType":"uint256","name":"inputTokenCount","type":"uint256"},{"internalType":"uint256","name":"reward","type":"uint256"},{"internalType":"uint256","name":"deadline","type":"uint256"},{"internalType":"string","name":"inputDataURI","type":"string"}],"name":"createRequest","outputs":[{"internalType":"uint256","name":"","type":"uint256"}],"stateMutability":"nonpayable","type":"function"},{"inputs":[],"name":"cultureToken","outputs":[{"internalType":"contract IERC20","name":"","type":"address"}],"stateMutability":"view","type":"function"},{"inputs":[{"internalType":"uint256","name":"requestId","type":"uint256"}],"name":"getInputLanguages","outputs":[{"internalType":"string[]","name":"","type":"string[]"}],"stateMutability":"view","type":"function"},{"inputs":[{"internalType":"uint256","name":"requestId","type":"uint256"}],"name":"getOutputLanguages","outputs":[{"internalType":"string[]","name":"","type":"string[]"}],"stateMutability":"view","type":"function"},{"inputs":[{"internalType":"address","name":"provider","type":"address"}],"name":"getProviderRequests","outputs":[{"internalType":"uint256[]","name":"","type":"uint256[]"}],"stateMutability":"view","type":"function"},{"inputs":[{"internalType":"address","name":"requester","type":"address"}],"name":"getRequesterRequests","outputs":[{"internalType":"uint256[]","name":"","type":"uint256[]"}],"stateMutability":"view","type":"function"},{"inputs":[{"internalType":"enum AIRequest.RequestStatus","name":"status","type":"uint8"}],"name":"getRequestsByStatus","outputs":[{"internalType":"uint256[]","name":"","type":"uint256[]"}],"stateMutability":"view","type":"function"},{"inputs":[{"internalType":"uint256","name":"requestId","type":"uint256"}],"name":"markRequestAsProcessing","outputs":[],"stateMutability":"nonpayable","type":"function"},{"inputs":[],"name":"owner","outputs":[{"internalType":"address","name":"","type":"address"}],"stateMutability":"view","type":"function"},{"inputs":[],"name":"platformFeePercent","outputs":[{"internalType":"uint256","name":"","type":"uint256"}],"stateMutability":"view","type":"function"},{"inputs":[{"internalType":"address","name":"","type":"address"},{"internalType":"uint256","name":"","type":"uint256"}],"name":"providerRequests","outputs":[{"internalType":"uint256","name":"","type":"uint256"}],"stateMutability":"view","type":"function"},{"inputs":[],"name":"renounceOwnership","outputs":[],"stateMutability":"nonpayable","type":"function"},{"inputs":[],"name":"requestCount","outputs":[{"internalType":"uint256","name":"","type":"uint256"}],"stateMutability":"view","type":"function"},{"inputs":[{"internalType":"uint256","name":"","type":"uint256"},{"internalType":"uint256","name":"","type":"uint256"}],"name":"requestInputLanguages","outputs":[{"internalType":"string","name":"","type":"string"}],"stateMutability":"view","type":"function"},{"inputs":[{"internalType":"uint256","name":"","type":"uint256"},{"internalType":"uint256","name":"","type":"uint256"}],"name":"requestOutputLanguages","outputs":[{"internalType":"string","name":"","type":"string"}],"stateMutability":"view","type":"function"},{"inputs":[{"internalType":"address","name":"","type":"address"},{"internalType":"uint256","name":"","type":"uint256"}],"name":"requesterRequests","outputs":[{"internalType":"uint256","name":"","type":"uint256"}],"stateMutability":"view","type":"function"},{"inputs":[{"internalType":"uint256","name":"","type":"uint256"}],"name":"requests","outputs":[{"internalType":"address","name":"requester","type":"address"},{"internalType":"uint256","name":"serviceId","type":"uint256"},{"internalType":"address","name":"provider","type":"address"},{"internalType":"string","name":"requestType","type":"string"},{"internalType":"uint256","name":"inputTokenCount","type":"uint256"},{"internalType":"uint256","name":"reward","type":"uint256"},{"internalType":"uint256","name":"deadline","type":"uint256"},{"internalType":"enum AIRequest.RequestStatus","name":"status","type":"uint8"},{"internalType":"string","name":"inputDataURI","type":"string"},{"internalType":"string","name":"outputDataURI","type":"string"},{"internalType":"uint256","name":"qualityScore","type":"uint256"},{"internalType":"uint256","name":"creationTime","type":"uint256"},{"internalType":"uint256","name":"completionTime","type":"uint256"},{"internalType":"string","name":"disputeReason","type":"string"}],"stateMutability":"view","type":"function"},{"inputs":[{"internalType":"uint256","name":"requestId","type":"uint256"},{"internalType":"bool","name":"refundToRequester","type":"bool"}],"name":"resolveDispute","outputs":[],"stateMutability":"nonpayable","type":"function"},{"inputs":[{"internalType":"uint256","name":"newFeePercent","type":"uint256"}],"name":"setPlatformFee","outputs":[],"stateMutability":"nonpayable","type":"function"},{"inputs":[{"internalType":"enum AIRequest.RequestStatus","name":"","type":"uint8"},{"internalType":"uint256","name":"","type":"uint256"}],"name":"statusIndex","outputs":[{"internalType":"uint256","name":"","type":"uint256"}],"stateMutability":"view","type":"function"},{"inputs":[{"internalType":"address","name":"newOwner","type":"address"}],"name":"transferOwnership","outputs":[],"stateMutability":"nonpayable","type":"function"},{"inputs":[{"internalType":"uint256","name":"requestId","type":"uint256"},{"internalType":"bool","name":"accepted","type":"bool"},{"internalType":"uint256","name":"qualityScore","type":"uint256"}],"name":"verifyRequest","outputs":[],"stateMutability":"nonpayable","type":"function"}],"evm":{"bytecode":{"linkReferences":{},"object":"6080346200017457601f6200291938819003918201601f19168301916001600160401b038311848410176200017957808492604094855283398101031262000174576200005a602062000052836200018f565b92016200018f565b60008054336001600160a01b0319808316821784556040519590946001600160a01b03949093859391908416907f8be0079c531659141344cd1fd0a4f28419497f9722a3daafe3b4186f6b6457e09080a3600180551693841562000132575016918215620000ed5781600454161760045560055416176005556005600b5560006007556040516127749081620001a58239f35b60405162461bcd60e51b815260206004820152601860248201527f496e76616c6964207265676973747279206164647265737300000000000000006044820152606490fd5b62461bcd60e51b815260206004820152601560248201527f496e76616c696420746f6b656e206164647265737300000000000000000000006044820152606490fd5b600080fd5b634e487b7160e01b600052604160045260246000fd5b51906001600160a01b0382168203620001745756fe6080604052600436101561001257600080fd5b60003560e01c80630d497b9414611e5957806312e8e2c314611dd05780633015394c14611b7157806334b25ee2146118225780634ba1f098146116f85780635badbe4c146116da578063715018a61461168157806374d311f4146116585780637d524600146115d057806381d12c58146114a3578063822e69e514611460578063832ee7de14610c225780638579a97214610bec57806389e3f91e14610b9c5780638c639a8514610b7e5780638da5cb5b14610b55578063a508e86414610add578063a97c275b14610a6d578063ab2cb4f91461089c578063ab55891914610852578063bb2df77714610721578063dae8c384146106c9578063e64e8a1114610641578063eab2edf314610618578063f2fde38b146105545763fc24db191461013a57600080fd5b3461032257606036600319011261032257600435610156611f8b565b906044356101626124ea565b61016f6007548310612540565b816000526020906006825260406000209360018060a01b039081865416330361051b57600786019060ff82541690600782101561050557600382036104c0576064851161047b57156103b457506101ca60ff8254168661266e565b600460ff198254161790556004600052600a83526101ec8460406000206124ac565b81600a860155600585015494600084610258610217606461020f600b548c612602565b04809a612615565b938560028160045416920154169460405194858094819363a9059cbb60e01b998a84526004840160209093929193604081019460018060a01b031681520152565b03925af190811561032e5760009161037f575b501561033a57600480546000805460405194855285166001600160a01b0316928401929092526024830197909752949590948492869260449284929091165af192831561032e576000936102e1575b506102d360008051602061271f83398151915293612622565b604051908152a25b60018055005b92508183813d8311610327575b6102f88183611fef565b81010312610322576102d361031b60008051602061271f8339815191529461231e565b93506102ba565b600080fd5b503d6102ee565b6040513d6000823e3d90fd5b60405162461bcd60e51b815260048101859052601f60248201527f50726f766964657220726577617264207472616e73666572206661696c6564006044820152606490fd5b90508481813d83116103ad575b6103968183611fef565b81010312610322576103a79061231e565b3861026b565b503d61038c565b6060949350600d9250906103eb8697927feb48300ae8d9bb9005d6350cdae8612511f5fe9e23226aef75f3a050b6366a109761266e565b600560ff198254161790556005600052600a835261040d8660406000206124ac565b016104188154611f9a565b601f811161045a575b50755175616c697479206e6f742061636365707461626c6560501b90602c820190556016604051928084528301526040820152a26102db565b6104759082600052601f84600020910160051c810190612350565b38610421565b60405162461bcd60e51b815260048101879052601b60248201527f5175616c6974792073636f7265206d75737420626520302d31303000000000006044820152606490fd5b60405162461bcd60e51b815260048101879052601e60248201527f52657175657374206e6f7420696e20636f6d706c6574656420737461746500006044820152606490fd5b634e487b7160e01b600052602160045260246000fd5b60405162461bcd60e51b81526004810185905260116024820152702737ba103a3432903932b8bab2b9ba32b960791b6044820152606490fd5b346103225760203660031901126103225761056d612233565b610575612284565b6001600160a01b039081169081156105c457600054826001600160601b0360a01b821617600055167f8be0079c531659141344cd1fd0a4f28419497f9722a3daafe3b4186f6b6457e0600080a3005b60405162461bcd60e51b815260206004820152602660248201527f4f776e61626c653a206e6577206f776e657220697320746865207a65726f206160448201526564647265737360d01b6064820152608490fd5b34610322576000366003190112610322576005546040516001600160a01b039091168152602090f35b3461032257602080600319360112610322576001600160a01b03610663612233565b1660005260088152604060002090604051908181845491828152019360005281600020916000905b8282106106b2576106ae856106a281890382611fef565b60405191829182612249565b0390f35b83548652948501946001938401939091019061068b565b34610322576040366003190112610322576106e2612233565b6001600160a01b031660009081526008602052604090208054602435919082101561032257602091610713916120cf565b90546040519160031b1c8152f35b346103225760203660031901126103225760043561073d6124ea565b61074a6007548210612540565b806000526006602052604060002061076f60018060a01b036002830154163314612585565b600781019060ff8254166007811015610505576001810361080d5761079c60066107a293015442106125c4565b8361266e565b805460ff19166002908117909155600052600a6020526107e2817fbff4442b8ed600beeb8e26b1279a0f0d14c6edfaec26d968ee13c86f7d4c2ba86124ac565b7f9ca36018c8cfd762ddaa3afaa30d9e218a02a2d3618e27d454abb1862f329ef8600080a260018055005b60405162461bcd60e51b815260206004820152601d60248201527f52657175657374206e6f7420696e2061636365707465642073746174650000006044820152606490fd5b346103225760403660031901126103225761086b612233565b6001600160a01b031660009081526009602052604090208054602435919082101561032257602091610713916120cf565b34610322576040366003190112610322576004356024356001600160401b038111610322576108cf903690600401612118565b906108d86124ea565b6108e56007548210612540565b806000526020916006835260406000209261090d60018060a01b036002860154163314612585565b600784019360ff85541694600786101561050557600186148015610a63575b15610a0a57610940600683015442106125c4565b8351156109c55761097385967f881f663e057ac4d2c1ea5d12f689f065fb14ca20ddb2230a99abeb4a85072fe09661266e565b600360ff198254161790556003600052600a82526109958560406000206124ac565b6109a28360098301612367565b600c429101556109bc604051928284938452830190611f04565b0390a260018055005b60405162461bcd60e51b815260048101849052601860248201527f4f757470757420646174612055524920726571756972656400000000000000006044820152606490fd5b60405162461bcd60e51b815260048101849052602b60248201527f52657175657374206e6f7420696e206163636570746564206f722070726f636560448201526a7373696e6720737461746560a81b6064820152608490fd5b506002861461092c565b346103225760208060031936011261032257600435600781101561032257610a94906120b6565b90604051908181845491828152019360005281600020916000905b828210610ac6576106ae856106a281890382611fef565b835486529485019460019384019390910190610aaf565b3461032257602080600319360112610322576001600160a01b03610aff612233565b1660005260098152604060002090604051908181845491828152019360005281600020916000905b828210610b3e576106ae856106a281890382611fef565b835486529485019460019384019390910190610b27565b34610322576000366003190112610322576000546040516001600160a01b039091168152602090f35b34610322576000366003190112610322576020600b54604051908152f35b3461032257610baa366121f6565b906000526002602052604060002090815481101561032257610bd2610bd8916106ae936120cf565b9061220c565b604051918291602083526020830190611f04565b3461032257610bfa366121f6565b906000526003602052604060002090815481101561032257610bd2610bd8916106ae936120cf565b3461032257610100366003190112610322576024356001600160401b03811161032257610c53903690600401612118565b6044356001600160401b03811161032257610c72903690600401612176565b906064356001600160401b03811161032257610c92903690600401612176565b60e4356001600160401b03811161032257610cb1903690600401612118565b90610cba6124ea565b825115611423578351156113de5780511561139957608435156113495760a43515611304574260c43511156112bf5781511561127a5760055460405163ef0e239b60e01b815260048035908201529390600090859060249082906001600160a01b03165afa801561032e57600094600091611144575b506001600160a01b0385161561110b57156110d1576000602060018060a01b03600454166064604051809481936323b872dd60e01b835233600484015230602484015260a43560448401525af190811561032e57600091611097575b501561105a5760075492610d9f8461232b565b60075560405191826101c08101106001600160401b036101c085011117611044576101c08301604052338352600435602084015260018060a01b03861660408401526060830152608435608083015260a43560a083015260c43560c0830152600060e0830152610100820152604051610e1781611fd4565b600081526101208201526000610140820152426101608201526000610180820152604051610e4481611fd4565b600081526101a0820152826000526006602052604060002060018060a01b038251166001600160601b0360a01b825416178155602082015160018201556002810160018060a01b036040840151166001600160601b0360a01b825416179055610eb4606083015160038301612367565b6080820151600482015560a0820151600582015560c0820151600682015560e0820151916007831015610505576101a0600d91610f4a94600785019060ff80198354169116179055610f0e61010082015160088601612367565b610f2061012082015160098601612367565b610140810151600a850155610160810151600b850155610180810151600c85015501519101612367565b60005b8451811015610f8657610f8190836000526002602052610f7c6040600020610f75838961246b565b519061247f565b61232b565b610f4d565b50925060005b8351811015610fb957610fb490826000526003602052610f7c6040600020610f75838861246b565b610f8c565b506020913360005260088352610fd38260406000206124ac565b60018060a01b031660005260098252610ff08160406000206124ac565b60008052600a82526110068160406000206124ac565b60405160a435815260043590827f41612386090d3716f01a2fa2e0e5b436c89d4479f1bd27e2644fe2ebad825cfe853393a460018055604051908152f35b634e487b7160e01b600052604160045260246000fd5b60405162461bcd60e51b8152602060048201526015602482015274151bdad95b881d1c985b9cd9995c8819985a5b1959605a1b6044820152606490fd5b90506020813d6020116110c9575b816110b260209383611fef565b81010312610322576110c39061231e565b86610d8c565b3d91506110a5565b60405162461bcd60e51b815260206004820152601260248201527153657276696365206e6f742061637469766560701b6044820152606490fd5b60405162461bcd60e51b815260206004820152601160248201527014d95c9d9a58d9481b9bdd08199bdd5b99607a1b6044820152606490fd5b9450503d806000863e6111578186611fef565b610100858281010312610322578451906001600160a01b03821682036103225760208601516001600160401b03811161032257611199908288019088016122dc565b5060408601516001600160401b03811161032257818701601f82890101121561032257808701519060206111cc8361215f565b6111d96040519182611fef565b838152019083890160208460051b838c01010111610322576020818a0101915b60208460051b838c0101018310611243575050505061121a60a0870161231e565b9560c08101516001600160401b0381116103225761123b92820191016122dc565b509386610d30565b8251906001600160401b03821161032257602080929161126d8d838095888c8401930101016122dc565b81520193019290506111f9565b60405162461bcd60e51b815260206004820152601760248201527f496e7075742064617461205552492072657175697265640000000000000000006044820152606490fd5b60405162461bcd60e51b815260206004820152601a60248201527f446561646c696e65206d75737420626520696e206675747572650000000000006044820152606490fd5b60405162461bcd60e51b815260206004820152601760248201527f526577617264206d75737420626520706f7369746976650000000000000000006044820152606490fd5b60405162461bcd60e51b815260206004820152602260248201527f496e70757420746f6b656e20636f756e74206d75737420626520706f73697469604482015261766560f01b6064820152608490fd5b60405162461bcd60e51b815260206004820152601860248201527f4f7574707574206c616e677561676520726571756972656400000000000000006044820152606490fd5b60405162461bcd60e51b815260206004820152601760248201527f496e707574206c616e67756167652072657175697265640000000000000000006044820152606490fd5b60405162461bcd60e51b815260206004820152601560248201527414995c5d595cdd081d1e5c19481c995c5d5a5c9959605a1b6044820152606490fd5b346103225760403660031901126103225760043560078110156103225760243590600052600a6020526040600020805482101561032257602091610713916120cf565b346103225760203660031901126103225760043560009081526006602052604090208054600182015460028301546001600160a01b0392831693921691906114ed60038301612010565b906004830154926005810154946006820154600783015460ff16966008840161151590612010565b9161152260098601612010565b91600a86015497600b87015495600c88015497600d0161154190612010565b98604051809e81526020015260408d01528b6101c06060819201528c0161156791611f04565b9860808c015260a08b015260c08a01526007881015610505576115a06106ae976115af938b9a60e08c01528a82036101008c0152611f04565b908882036101208a0152611f04565b936101408701526101608601526101808501528382036101a0850152611f04565b3461032257602080600319360112610322576004356115f26007548210612540565b60005260038152604060002080546116098161215f565b916116176040519384611fef565b8183526000908152838120938084015b83831061163c57604051806106ae8782611f29565b600182819261164a89612010565b815201960192019194611627565b34610322576000366003190112610322576004546040516001600160a01b039091168152602090f35b346103225760003660031901126103225761169a612284565b600080546001600160a01b0319811682556001600160a01b03167f8be0079c531659141344cd1fd0a4f28419497f9722a3daafe3b4186f6b6457e08280a3005b34610322576000366003190112610322576020600754604051908152f35b34610322576020366003190112610322576004356117146124ea565b6117216007548210612540565b806000526006602052604060002061174660018060a01b036002830154163314612585565b600781019060ff825416600781101561050557806117dd5761079c600661177093015442106125c4565b805460ff19166001908117909155600052600a6020526117b0817fbbc70db1b6c7afd11e79c0fb0051300458f1a3acb8ee9789d9b6b26c61ad9bc76124ac565b33907fa74a28866064b16e695ebbf53f8b0f9aa0bb93885dbbcc373004f1a052cc4248600080a360018055005b60405162461bcd60e51b815260206004820152601c60248201527f52657175657374206e6f7420696e2063726561746564207374617465000000006044820152606490fd5b346103225760403660031901126103225760043561183e611f8b565b611846612284565b61184e6124ea565b61185b6007548310612540565b8160005260209160068352604060002091600783019060ff825416600781101561050557600503611b35571561195357505060048054825460059093015460405163a9059cbb60e01b81526001600160a01b039485169381019390935260248301529091839183916044918391600091165af190811561032e5760009161191e575b50156118ea575060018055005b6064906040519062461bcd60e51b82526004820152600d60248201526c1499599d5b990819985a5b1959609a1b6044820152fd5b90508181813d831161194c575b6119358183611fef565b81010312610322576119469061231e565b826118dd565b503d61192b565b916005819492940154611975606461196d600b5484612602565b048092612615565b60048054600285015460405163a9059cbb60e01b8082526001600160a01b03928316948201949094526024810194909452929086908290604490829060009088165af190811561032e57600091611b00575b5015611abb57600480546000805460405194855285166001600160a01b03169284019290925260248301949094529092859284926044928492165af190811561032e57600091611a6c575b509060008051602061271f83398151915293611a2f600a93612622565b611a3d60ff8254168761266e565b600460ff198254161790556004600052818352611a5e8560406000206124ac565b0154604051908152a26102db565b9190508282813d8311611ab4575b611a848183611fef565b810103126103225760008051602061271f83398151915293611a2f611aaa600a9461231e565b9293505093611a12565b503d611a7a565b60405162461bcd60e51b815260048101869052601760248201527f50726f7669646572207061796d656e74206661696c65640000000000000000006044820152606490fd5b90508581813d8311611b2e575b611b178183611fef565b8101031261032257611b289061231e565b886119c7565b503d611b0d565b60405162461bcd60e51b815260048101869052601460248201527314995c5d595cdd081b9bdd08191a5cdc1d5d195960621b6044820152606490fd5b34610322576020806003193601126103225760043590611b8f6124ea565b611b9c6007548310612540565b6000828152600682526040902080546001600160a01b0390811633148015611dc1575b8015611db4575b15611d7e576007820160ff81541660078110156105055780158015611d74575b15611d2f57611bf5908661266e565b600660ff198254161790556006600052600a8352611c178460406000206124ac565b808254163381148015611d22575b611c56575b847fee243f878b7fc2f54e934ca33783d4395d42bc07612e2bd4b8e0e178639f7a28600080a260018055005b6004805460059094015460405163a9059cbb60e01b81526001600160a01b03909316918301919091526024820152918391839116816000816044810103925af190811561032e57600091611ced575b5015611cb357808080611c2a565b6064906040519062461bcd60e51b825260048201526013602482015272151bdad95b881c995d1d5c9b8819985a5b1959606a1b6044820152fd5b90508181813d8311611d1b575b611d048183611fef565b8101031261032257611d159061231e565b83611ca5565b503d611cfa565b5081600054163314611c25565b60405162461bcd60e51b815260048101869052601e60248201527f43616e6e6f742063616e63656c20696e2063757272656e7420737461746500006044820152606490fd5b5060018114611be6565b60405162461bcd60e51b815260048101849052600e60248201526d139bdd08185d5d1a1bdc9a5e995960921b6044820152606490fd5b5080600054163314611bc6565b50338160028401541614611bbf565b3461032257602036600319011261032257600435611dec612284565b60148111611e25576020817f45610d581145924dd7090a5017e5f2b1d6f42213bb2e95707ff86846bbfcb1ca92600b55604051908152a1005b60405162461bcd60e51b815260206004820152600c60248201526b08ccaca40e8dede40d0d2ced60a31b6044820152606490fd5b346103225760208060031936011261032257600435611e7b6007548210612540565b6000526002815260406000208054611e928161215f565b91611ea06040519384611fef565b8183526000908152838120938084015b838310611ec557604051806106ae8782611f29565b6001828192611ed389612010565b815201960192019194611eb0565b60005b838110611ef45750506000910152565b8181015183820152602001611ee4565b90602091611f1d81518092818552858086019101611ee1565b601f01601f1916010190565b602080820190808352835180925260408301928160408460051b8301019501936000915b848310611f5d5750505050505090565b9091929394958480611f7b600193603f198682030187528a51611f04565b9801930193019194939290611f4d565b60243590811515820361032257565b90600182811c92168015611fca575b6020831014611fb457565b634e487b7160e01b600052602260045260246000fd5b91607f1691611fa9565b602081019081106001600160401b0382111761104457604052565b90601f801991011681019081106001600160401b0382111761104457604052565b906040519182600082549261202484611f9a565b9081845260019485811690816000146120935750600114612050575b505061204e92500383611fef565b565b9093915060005260209081600020936000915b81831061207b57505061204e93508201013880612040565b85548884018501529485019487945091830191612063565b91505061204e94506020925060ff191682840152151560051b8201013880612040565b600781101561050557600052600a602052604060002090565b80548210156120e75760005260206000200190600090565b634e487b7160e01b600052603260045260246000fd5b6001600160401b03811161104457601f01601f191660200190565b81601f820112156103225780359061212f826120fd565b9261213d6040519485611fef565b8284526020838301011161032257816000926020809301838601378301015290565b6001600160401b0381116110445760051b60200190565b9080601f830112156103225781359061218e8261215f565b9261219c6040519485611fef565b828452602092838086019160051b8301019280841161032257848301915b8483106121ca5750505050505090565b82356001600160401b0381116103225786916121eb84848094890101612118565b8152019201916121ba565b6040906003190112610322576004359060243590565b9061221d5761221a90612010565b90565b634e487b7160e01b600052600060045260246000fd5b600435906001600160a01b038216820361032257565b6020908160408183019282815285518094520193019160005b828110612270575050505090565b835185529381019392810192600101612262565b6000546001600160a01b0316330361229857565b606460405162461bcd60e51b815260206004820152602060248201527f4f776e61626c653a2063616c6c6572206973206e6f7420746865206f776e65726044820152fd5b81601f820112156103225780516122f2816120fd565b926123006040519485611fef565b818452602082840101116103225761221a9160208085019101611ee1565b5190811515820361032257565b600019811461233a5760010190565b634e487b7160e01b600052601160045260246000fd5b81811061235b575050565b60008155600101612350565b91909182516001600160401b038111611044576123848254611f9a565b601f811161242e575b50602080601f83116001146123ca5750819293946000926123bf575b50508160011b916000199060031b1c1916179055565b0151905038806123a9565b90601f198316958460005282600020926000905b888210612416575050836001959697106123fd575b505050811b019055565b015160001960f88460031b161c191690553880806123f3565b806001859682949686015181550195019301906123de565b61245b90836000526020600020601f840160051c81019160208510612461575b601f0160051c0190612350565b3861238d565b909150819061244e565b80518210156120e75760209160051b010190565b8054600160401b8110156110445761249c916001820181556120cf565b91909161221d5761204e91612367565b90815491600160401b83101561104457826124cf91600161204e950181556120cf565b90919082549060031b600019811b9283911b16911916179055565b6002600154146124fb576002600155565b60405162461bcd60e51b815260206004820152601f60248201527f5265656e7472616e637947756172643a207265656e7472616e742063616c6c006044820152606490fd5b1561254757565b60405162461bcd60e51b815260206004820152601660248201527514995c5d595cdd08191bd95cc81b9bdd08195e1a5cdd60521b6044820152606490fd5b1561258c57565b60405162461bcd60e51b815260206004820152601060248201526f2737ba103a343290383937bb34b232b960811b6044820152606490fd5b156125cb57565b60405162461bcd60e51b815260206004820152600f60248201526e14995c5d595cdd08195e1c1a5c9959608a1b6044820152606490fd5b8181029291811591840414171561233a57565b9190820391821161233a57565b1561262957565b60405162461bcd60e51b815260206004820152601c60248201527f506c6174666f726d20666565207472616e73666572206661696c6564000000006044820152606490fd5b90612678906120b6565b9060005b82548082101561271857829061269283866120cf565b929054600393841b1c146126b05750506126ab9061232b565b61267c565b909392506000199182820191821161233a576124cf6126d26126df93866120cf565b905490871b1c91856120cf565b81548015612702578101926126f484846120cf565b81939154921b1b1916905555565b634e487b7160e01b600052603160045260246000fd5b5050505056fe7e3d1c85338a9ee9187454178ea54ce1685e9d3e6295ea6d4f3e4393ca921862a2646970667358221220d399329c35a465535d38f3236b4a6f2a8ac00289f43eb659f9b42888200e065364736f6c63430008110033","opcodes":"PUSH1 0x80 CALLVALUE PUSH3 0x174 JUMPI PUSH1 0x1F PUSH3 0x2919 CODESIZE DUP2 SWAP1 SUB SWAP2 DUP3 ADD PUSH1 0x1F NOT AND DUP4 ADD SWAP2 PUSH1 0x1 PUSH1 0x1 PUSH1 0x40 SHL SUB DUP4 GT DUP5 DUP5 LT OR PUSH3 0x179 JUMPI DUP1 DUP5 SWAP3 PUSH1 0x40 SWAP5 DUP6 MSTORE DUP4 CODECOPY DUP2 ADD SUB SLT PUSH3 0x174 JUMPI PUSH3 0x5A PUSH1 0x20 PUSH3 0x52 DUP4 PUSH3 0x18F JUMP JUMPDEST SWAP3 ADD PUSH3 0x18F JUMP JUMPDEST PUSH1 0x0 DUP1 SLOAD CALLER PUSH1 0x1 PUSH1 0x1 PUSH1 0xA0 SHL SUB NOT DUP1 DUP4 AND DUP3 OR DUP5 SSTORE PUSH1 0x40 MLOAD SWAP6 SWAP1 SWAP5 PUSH1 0x1 PUSH1 0x1 PUSH1 0xA0 SHL SUB SWAP5 SWAP1 SWAP4 DUP6 SWAP4 SWAP2 SWAP1 DUP5 AND SWAP1 PUSH32 0x8BE0079C531659141344CD1FD0A4F28419497F9722A3DAAFE3B4186F6B6457E0 SWAP1 DUP1 LOG3 PUSH1 0x1 DUP1 SSTORE AND SWAP4 DUP5 ISZERO PUSH3 0x132 JUMPI POP AND SWAP2 DUP3 ISZERO PUSH3 0xED JUMPI DUP2 PUSH1 0x4 SLOAD AND OR PUSH1 0x4 SSTORE PUSH1 0x5 SLOAD AND OR PUSH1 0x5 SSTORE PUSH1 0x5 PUSH1 0xB SSTORE PUSH1 0x0 PUSH1 0x7 SSTORE PUSH1 0x40 MLOAD PUSH2 0x2774 SWAP1 DUP2 PUSH3 0x1A5 DUP3 CODECOPY RETURN JUMPDEST PUSH1 0x40 MLOAD PUSH3 0x461BCD PUSH1 0xE5 SHL DUP2 MSTORE PUSH1 0x20 PUSH1 0x4 DUP3 ADD MSTORE PUSH1 0x18 PUSH1 0x24 DUP3 ADD MSTORE PUSH32 0x496E76616C696420726567697374727920616464726573730000000000000000 PUSH1 0x44 DUP3 ADD MSTORE PUSH1 0x64 SWAP1 REVERT JUMPDEST PUSH3 0x461BCD PUSH1 0xE5 SHL DUP2 MSTORE PUSH1 0x20 PUSH1 0x4 DUP3 ADD MSTORE PUSH1 0x15 PUSH1 0x24 DUP3 ADD MSTORE PUSH32 0x496E76616C696420746F6B656E20616464726573730000000000000000000000 PUSH1 0x44 DUP3 ADD MSTORE PUSH1 0x64 SWAP1 REVERT JUMPDEST PUSH1 0x0 DUP1 REVERT JUMPDEST PUSH4 0x4E487B71 PUSH1 0xE0 SHL PUSH1 0x0 MSTORE PUSH1 0x41 PUSH1 0x4 MSTORE PUSH1 0x24 PUSH1 0x0 REVERT JUMPDEST MLOAD SWAP1 PUSH1 0x1 PUSH1 0x1 PUSH1 0xA0 SHL SUB DUP3 AND DUP3 SUB PUSH3 0x174 JUMPI JUMP INVALID PUSH1 0x80 PUSH1 0x40 MSTORE PUSH1 0x4 CALLDATASIZE LT ISZERO PUSH2 0x12 JUMPI PUSH1 0x0 DUP1 REVERT JUMPDEST PUSH1 0x0 CALLDATALOAD PUSH1 0xE0 SHR DUP1 PUSH4 0xD497B94 EQ PUSH2 0x1E59 JUMPI DUP1 PUSH4 0x12E8E2C3 EQ PUSH2 0x1DD0 JUMPI DUP1 PUSH4 0x3015394C EQ PUSH2 0x1B71 JUMPI DUP1 PUSH4 0x34B25EE2 EQ PUSH2 0x1822 JUMPI DUP1 PUSH4 0x4BA1F098 EQ PUSH2 0x16F8 JUMPI DUP1 PUSH4 0x5BADBE4C EQ PUSH2 0x16DA JUMPI DUP1 PUSH4 0x715018A6 EQ PUSH2 0x1681 JUMPI DUP1 PUSH4 0x74D311F4 EQ PUSH2 0x1658 JUMPI DUP1 PUSH4 0x7D524600 EQ PUSH2 0x15D0 JUMPI DUP1 PUSH4 0x81D12C58 EQ PUSH2 0x14A3 JUMPI DUP1 PUSH4 0x822E69E5 EQ PUSH2 0x1460 JUMPI DUP1 PUSH4 0x832EE7DE EQ PUSH2 0xC22 JUMPI DUP1 PUSH4 0x8579A972 EQ PUSH2 0xBEC JUMPI DUP1 PUSH4 0x89E3F91E EQ PUSH2 0xB9C JUMPI DUP1 PUSH4 0x8C639A85 EQ PUSH2 0xB7E JUMPI DUP1 PUSH4 0x8DA5CB5B EQ PUSH2 0xB55 JUMPI DUP1 PUSH4 0xA508E864 EQ PUSH2 0xADD JUMPI DUP1 PUSH4 0xA97C275B EQ PUSH2 0xA6D JUMPI DUP1 PUSH4 0xAB2CB4F9 EQ PUSH2 0x89C JUMPI DUP1 PUSH4 0xAB558919 EQ PUSH2 0x852 JUMPI DUP1 PUSH4 0xBB2DF777 EQ PUSH2 0x721 JUMPI DUP1 PUSH4 0xDAE8C384 EQ PUSH2 0x6C9 JUMPI DUP1 PUSH4 0xE64E8A11 EQ PUSH2 0x641 JUMPI DUP1 PUSH4 0xEAB2EDF3 EQ PUSH2 0x618 JUMPI DUP1 PUSH4 0xF2FDE38B EQ PUSH2 0x554 JUMPI PUSH4 0xFC24DB19 EQ PUSH2 0x13A JUMPI PUSH1 0x0 DUP1 REVERT JUMPDEST CALLVALUE PUSH2 0x322 JUMPI PUSH1 0x60 CALLDATASIZE PUSH1 0x3 NOT ADD SLT PUSH2 0x322 JUMPI PUSH1 0x4 CALLDATALOAD PUSH2 0x156 PUSH2 0x1F8B JUMP JUMPDEST SWAP1 PUSH1 0x44 CALLDATALOAD PUSH2 0x162 PUSH2 0x24EA JUMP JUMPDEST PUSH2 0x16F PUSH1 0x7 SLOAD DUP4 LT PUSH2 0x2540 JUMP JUMPDEST DUP2 PUSH1 0x0 MSTORE PUSH1 0x20 SWAP1 PUSH1 0x6 DUP3 MSTORE PUSH1 0x40 PUSH1 0x0 KECCAK256 SWAP4 PUSH1 0x1 DUP1 PUSH1 0xA0 SHL SUB SWAP1 DUP2 DUP7 SLOAD AND CALLER SUB PUSH2 0x51B JUMPI PUSH1 0x7 DUP7 ADD SWAP1 PUSH1 0xFF DUP3 SLOAD AND SWAP1 PUSH1 0x7 DUP3 LT ISZERO PUSH2 0x505 JUMPI PUSH1 0x3 DUP3 SUB PUSH2 0x4C0 JUMPI PUSH1 0x64 DUP6 GT PUSH2 0x47B JUMPI ISZERO PUSH2 0x3B4 JUMPI POP PUSH2 0x1CA PUSH1 0xFF DUP3 SLOAD AND DUP7 PUSH2 0x266E JUMP JUMPDEST PUSH1 0x4 PUSH1 0xFF NOT DUP3 SLOAD AND OR SWAP1 SSTORE PUSH1 0x4 PUSH1 0x0 MSTORE PUSH1 0xA DUP4 MSTORE PUSH2 0x1EC DUP5 PUSH1 0x40 PUSH1 0x0 KECCAK256 PUSH2 0x24AC JUMP JUMPDEST DUP2 PUSH1 0xA DUP7 ADD SSTORE PUSH1 0x5 DUP6 ADD SLOAD SWAP5 PUSH1 0x0 DUP5 PUSH2 0x258 PUSH2 0x217 PUSH1 0x64 PUSH2 0x20F PUSH1 0xB SLOAD DUP13 PUSH2 0x2602 JUMP JUMPDEST DIV DUP1 SWAP11 PUSH2 0x2615 JUMP JUMPDEST SWAP4 DUP6 PUSH1 0x2 DUP2 PUSH1 0x4 SLOAD AND SWAP3 ADD SLOAD AND SWAP5 PUSH1 0x40 MLOAD SWAP5 DUP6 DUP1 SWAP5 DUP2 SWAP4 PUSH4 0xA9059CBB PUSH1 0xE0 SHL SWAP10 DUP11 DUP5 MSTORE PUSH1 0x4 DUP5 ADD PUSH1 0x20 SWAP1 SWAP4 SWAP3 SWAP2 SWAP4 PUSH1 0x40 DUP2 ADD SWAP5 PUSH1 0x1 DUP1 PUSH1 0xA0 SHL SUB AND DUP2 MSTORE ADD MSTORE JUMP JUMPDEST SUB SWAP3 GAS CALL SWAP1 DUP2 ISZERO PUSH2 0x32E JUMPI PUSH1 0x0 SWAP2 PUSH2 0x37F JUMPI JUMPDEST POP ISZERO PUSH2 0x33A JUMPI PUSH1 0x4 DUP1 SLOAD PUSH1 0x0 DUP1 SLOAD PUSH1 0x40 MLOAD SWAP5 DUP6 MSTORE DUP6 AND PUSH1 0x1 PUSH1 0x1 PUSH1 0xA0 SHL SUB AND SWAP3 DUP5 ADD SWAP3 SWAP1 SWAP3 MSTORE PUSH1 0x24 DUP4 ADD SWAP8 SWAP1 SWAP8 MSTORE SWAP5 SWAP6 SWAP1 SWAP5 DUP5 SWAP3 DUP7 SWAP3 PUSH1 0x44 SWAP3 DUP5 SWAP3 SWAP1 SWAP2 AND GAS CALL SWAP3 DUP4 ISZERO PUSH2 0x32E JUMPI PUSH1 0x0 SWAP4 PUSH2 0x2E1 JUMPI JUMPDEST POP PUSH2 0x2D3 PUSH1 0x0 DUP1 MLOAD PUSH1 0x20 PUSH2 0x271F DUP4 CODECOPY DUP2 MLOAD SWAP2 MSTORE SWAP4 PUSH2 0x2622 JUMP JUMPDEST PUSH1 0x40 MLOAD SWAP1 DUP2 MSTORE LOG2 JUMPDEST PUSH1 0x1 DUP1 SSTORE STOP JUMPDEST SWAP3 POP DUP2 DUP4 DUP2 RETURNDATASIZE DUP4 GT PUSH2 0x327 JUMPI JUMPDEST PUSH2 0x2F8 DUP2 DUP4 PUSH2 0x1FEF JUMP JUMPDEST DUP2 ADD SUB SLT PUSH2 0x322 JUMPI PUSH2 0x2D3 PUSH2 0x31B PUSH1 0x0 DUP1 MLOAD PUSH1 0x20 PUSH2 0x271F DUP4 CODECOPY DUP2 MLOAD SWAP2 MSTORE SWAP5 PUSH2 0x231E JUMP JUMPDEST SWAP4 POP PUSH2 0x2BA JUMP JUMPDEST PUSH1 0x0 DUP1 REVERT JUMPDEST POP RETURNDATASIZE PUSH2 0x2EE JUMP JUMPDEST PUSH1 0x40 MLOAD RETURNDATASIZE PUSH1 0x0 DUP3 RETURNDATACOPY RETURNDATASIZE SWAP1 REVERT JUMPDEST PUSH1 0x40 MLOAD PUSH3 0x461BCD PUSH1 0xE5 SHL DUP2 MSTORE PUSH1 0x4 DUP2 ADD DUP6 SWAP1 MSTORE PUSH1 0x1F PUSH1 0x24 DUP3 ADD MSTORE PUSH32 0x50726F766964657220726577617264207472616E73666572206661696C656400 PUSH1 0x44 DUP3 ADD MSTORE PUSH1 0x64 SWAP1 REVERT JUMPDEST SWAP1 POP DUP5 DUP2 DUP2 RETURNDATASIZE DUP4 GT PUSH2 0x3AD JUMPI JUMPDEST PUSH2 0x396 DUP2 DUP4 PUSH2 0x1FEF JUMP JUMPDEST DUP2 ADD SUB SLT PUSH2 0x322 JUMPI PUSH2 0x3A7 SWAP1 PUSH2 0x231E JUMP JUMPDEST CODESIZE PUSH2 0x26B JUMP JUMPDEST POP RETURNDATASIZE PUSH2 0x38C JUMP JUMPDEST PUSH1 0x60 SWAP5 SWAP4 POP PUSH1 0xD SWAP3 POP SWAP1 PUSH2 0x3EB DUP7 SWAP8 SWAP3 PUSH32 0xEB48300AE8D9BB9005D6350CDAE8612511F5FE9E23226AEF75F3A050B6366A10 SWAP8 PUSH2 0x266E JUMP JUMPDEST PUSH1 0x5 PUSH1 0xFF NOT DUP3 SLOAD AND OR SWAP1 SSTORE PUSH1 0x5 PUSH1 0x0 MSTORE PUSH1 0xA DUP4 MSTORE PUSH2 0x40D DUP7 PUSH1 0x40 PUSH1 0x0 KECCAK256 PUSH2 0x24AC JUMP JUMPDEST ADD PUSH2 0x418 DUP2 SLOAD PUSH2 0x1F9A JUMP JUMPDEST PUSH1 0x1F DUP2 GT PUSH2 0x45A JUMPI JUMPDEST POP PUSH22 0x5175616C697479206E6F742061636365707461626C65 PUSH1 0x50 SHL SWAP1 PUSH1 0x2C DUP3 ADD SWAP1 SSTORE PUSH1 0x16 PUSH1 0x40 MLOAD SWAP3 DUP1 DUP5 MSTORE DUP4 ADD MSTORE PUSH1 0x40 DUP3 ADD MSTORE LOG2 PUSH2 0x2DB JUMP JUMPDEST PUSH2 0x475 SWAP1 DUP3 PUSH1 0x0 MSTORE PUSH1 0x1F DUP5 PUSH1 0x0 KECCAK256 SWAP2 ADD PUSH1 0x5 SHR DUP2 ADD SWAP1 PUSH2 0x2350 JUMP JUMPDEST CODESIZE PUSH2 0x421 JUMP JUMPDEST PUSH1 0x40 MLOAD PUSH3 0x461BCD PUSH1 0xE5 SHL DUP2 MSTORE PUSH1 0x4 DUP2 ADD DUP8 SWAP1 MSTORE PUSH1 0x1B PUSH1 0x24 DUP3 ADD MSTORE PUSH32 0x5175616C6974792073636F7265206D75737420626520302D3130300000000000 PUSH1 0x44 DUP3 ADD MSTORE PUSH1 0x64 SWAP1 REVERT JUMPDEST PUSH1 0x40 MLOAD PUSH3 0x461BCD PUSH1 0xE5 SHL DUP2 MSTORE PUSH1 0x4 DUP2 ADD DUP8 SWAP1 MSTORE PUSH1 0x1E PUSH1 0x24 DUP3 ADD MSTORE PUSH32 0x52657175657374206E6F7420696E20636F6D706C657465642073746174650000 PUSH1 0x44 DUP3 ADD MSTORE PUSH1 0x64 SWAP1 REVERT JUMPDEST PUSH4 0x4E487B71 PUSH1 0xE0 SHL PUSH1 0x0 MSTORE PUSH1 0x21 PUSH1 0x4 MSTORE PUSH1 0x24 PUSH1 0x0 REVERT JUMPDEST PUSH1 0x40 MLOAD PUSH3 0x461BCD PUSH1 0xE5 SHL DUP2 MSTORE PUSH1 0x4 DUP2 ADD DUP6 SWAP1 MSTORE PUSH1 0x11 PUSH1 0x24 DUP3 ADD MSTORE PUSH17 0x2737BA103A3432903932B8BAB2B9BA32B9 PUSH1 0x79 SHL PUSH1 0x44 DUP3 ADD MSTORE PUSH1 0x64 SWAP1 REVERT JUMPDEST CALLVALUE PUSH2 0x322 JUMPI PUSH1 0x20 CALLDATASIZE PUSH1 0x3 NOT ADD SLT PUSH2 0x322 JUMPI PUSH2 0x56D PUSH2 0x2233 JUMP JUMPDEST PUSH2 0x575 PUSH2 0x2284 JUMP JUMPDEST PUSH1 0x1 PUSH1 0x1 PUSH1 0xA0 SHL SUB SWAP1 DUP2 AND SWAP1 DUP2 ISZERO PUSH2 0x5C4 JUMPI PUSH1 0x0 SLOAD DUP3 PUSH1 0x1 PUSH1 0x1 PUSH1 0x60 SHL SUB PUSH1 0xA0 SHL DUP3 AND OR PUSH1 0x0 SSTORE AND PUSH32 0x8BE0079C531659141344CD1FD0A4F28419497F9722A3DAAFE3B4186F6B6457E0 PUSH1 0x0 DUP1 LOG3 STOP JUMPDEST PUSH1 0x40 MLOAD PUSH3 0x461BCD PUSH1 0xE5 SHL DUP2 MSTORE PUSH1 0x20 PUSH1 0x4 DUP3 ADD MSTORE PUSH1 0x26 PUSH1 0x24 DUP3 ADD MSTORE PUSH32 0x4F776E61626C653A206E6577206F776E657220697320746865207A65726F2061 PUSH1 0x44 DUP3 ADD MSTORE PUSH6 0x646472657373 PUSH1 0xD0 SHL PUSH1 0x64 DUP3 ADD MSTORE PUSH1 0x84 SWAP1 REVERT JUMPDEST CALLVALUE PUSH2 0x322 JUMPI PUSH1 0x0 CALLDATASIZE PUSH1 0x3 NOT ADD SLT PUSH2 0x322 JUMPI PUSH1 0x5 SLOAD PUSH1 0x40 MLOAD PUSH1 0x1 PUSH1 0x1 PUSH1 0xA0 SHL SUB SWAP1 SWAP2 AND DUP2 MSTORE PUSH1 0x20 SWAP1 RETURN JUMPDEST CALLVALUE PUSH2 0x322 JUMPI PUSH1 0x20 DUP1 PUSH1 0x3 NOT CALLDATASIZE ADD SLT PUSH2 0x322 JUMPI PUSH1 0x1 PUSH1 0x1 PUSH1 0xA0 SHL SUB PUSH2 0x663 PUSH2 0x2233 JUMP JUMPDEST AND PUSH1 0x0 MSTORE PUSH1 0x8 DUP2 MSTORE PUSH1 0x40 PUSH1 0x0 KECCAK256 SWAP1 PUSH1 0x40 MLOAD SWAP1 DUP2 DUP2 DUP5 SLOAD SWAP2 DUP3 DUP2 MSTORE ADD SWAP4 PUSH1 0x0 MSTORE DUP2 PUSH1 0x0 KECCAK256 SWAP2 PUSH1 0x0 SWAP1 JUMPDEST DUP3 DUP3 LT PUSH2 0x6B2 JUMPI PUSH2 0x6AE DUP6 PUSH2 0x6A2 DUP2 DUP10 SUB DUP3 PUSH2 0x1FEF JUMP JUMPDEST PUSH1 0x40 MLOAD SWAP2 DUP3 SWAP2 DUP3 PUSH2 0x2249 JUMP JUMPDEST SUB SWAP1 RETURN JUMPDEST DUP4 SLOAD DUP7 MSTORE SWAP5 DUP6 ADD SWAP5 PUSH1 0x1 SWAP4 DUP5 ADD SWAP4 SWAP1 SWAP2 ADD SWAP1 PUSH2 0x68B JUMP JUMPDEST CALLVALUE PUSH2 0x322 JUMPI PUSH1 0x40 CALLDATASIZE PUSH1 0x3 NOT ADD SLT PUSH2 0x322 JUMPI PUSH2 0x6E2 PUSH2 0x2233 JUMP JUMPDEST PUSH1 0x1 PUSH1 0x1 PUSH1 0xA0 SHL SUB AND PUSH1 0x0 SWAP1 DUP2 MSTORE PUSH1 0x8 PUSH1 0x20 MSTORE PUSH1 0x40 SWAP1 KECCAK256 DUP1 SLOAD PUSH1 0x24 CALLDATALOAD SWAP2 SWAP1 DUP3 LT ISZERO PUSH2 0x322 JUMPI PUSH1 0x20 SWAP2 PUSH2 0x713 SWAP2 PUSH2 0x20CF JUMP JUMPDEST SWAP1 SLOAD PUSH1 0x40 MLOAD SWAP2 PUSH1 0x3 SHL SHR DUP2 MSTORE RETURN JUMPDEST CALLVALUE PUSH2 0x322 JUMPI PUSH1 0x20 CALLDATASIZE PUSH1 0x3 NOT ADD SLT PUSH2 0x322 JUMPI PUSH1 0x4 CALLDATALOAD PUSH2 0x73D PUSH2 0x24EA JUMP JUMPDEST PUSH2 0x74A PUSH1 0x7 SLOAD DUP3 LT PUSH2 0x2540 JUMP JUMPDEST DUP1 PUSH1 0x0 MSTORE PUSH1 0x6 PUSH1 0x20 MSTORE PUSH1 0x40 PUSH1 0x0 KECCAK256 PUSH2 0x76F PUSH1 0x1 DUP1 PUSH1 0xA0 SHL SUB PUSH1 0x2 DUP4 ADD SLOAD AND CALLER EQ PUSH2 0x2585 JUMP JUMPDEST PUSH1 0x7 DUP2 ADD SWAP1 PUSH1 0xFF DUP3 SLOAD AND PUSH1 0x7 DUP2 LT ISZERO PUSH2 0x505 JUMPI PUSH1 0x1 DUP2 SUB PUSH2 0x80D JUMPI PUSH2 0x79C PUSH1 0x6 PUSH2 0x7A2 SWAP4 ADD SLOAD TIMESTAMP LT PUSH2 0x25C4 JUMP JUMPDEST DUP4 PUSH2 0x266E JUMP JUMPDEST DUP1 SLOAD PUSH1 0xFF NOT AND PUSH1 0x2 SWAP1 DUP2 OR SWAP1 SWAP2 SSTORE PUSH1 0x0 MSTORE PUSH1 0xA PUSH1 0x20 MSTORE PUSH2 0x7E2 DUP2 PUSH32 0xBFF4442B8ED600BEEB8E26B1279A0F0D14C6EDFAEC26D968EE13C86F7D4C2BA8 PUSH2 0x24AC JUMP JUMPDEST PUSH32 0x9CA36018C8CFD762DDAA3AFAA30D9E218A02A2D3618E27D454ABB1862F329EF8 PUSH1 0x0 DUP1 LOG2 PUSH1 0x1 DUP1 SSTORE STOP JUMPDEST PUSH1 0x40 MLOAD PUSH3 0x461BCD PUSH1 0xE5 SHL DUP2 MSTORE PUSH1 0x20 PUSH1 0x4 DUP3 ADD MSTORE PUSH1 0x1D PUSH1 0x24 DUP3 ADD MSTORE PUSH32 0x52657175657374206E6F7420696E206163636570746564207374617465000000 PUSH1 0x44 DUP3 ADD MSTORE PUSH1 0x64 SWAP1 REVERT JUMPDEST CALLVALUE PUSH2 0x322 JUMPI PUSH1 0x40 CALLDATASIZE PUSH1 0x3 NOT ADD SLT PUSH2 0x322 JUMPI PUSH2 0x86B PUSH2 0x2233 JUMP JUMPDEST PUSH1 0x1 PUSH1 0x1 PUSH1 0xA0 SHL SUB AND PUSH1 0x0 SWAP1 DUP2 MSTORE PUSH1 0x9 PUSH1 0x20 MSTORE PUSH1 0x40 SWAP1 KECCAK256 DUP1 SLOAD PUSH1 0x24 CALLDATALOAD SWAP2 SWAP1 DUP3 LT ISZERO PUSH2 0x322 JUMPI PUSH1 0x20 SWAP2 PUSH2 0x713 SWAP2 PUSH2 0x20CF JUMP JUMPDEST CALLVALUE PUSH2 0x322 JUMPI PUSH1 0x40 CALLDATASIZE PUSH1 0x3 NOT ADD SLT PUSH2 0x322 JUMPI PUSH1 0x4 CALLDATALOAD PUSH1 0x24 CALLDATALOAD PUSH1 0x1 PUSH1 0x1 PUSH1 0x40 SHL SUB DUP2 GT PUSH2 0x322 JUMPI PUSH2 0x8CF SWAP1 CALLDATASIZE SWAP1 PUSH1 0x4 ADD PUSH2 0x2118 JUMP JUMPDEST SWAP1 PUSH2 0x8D8 PUSH2 0x24EA JUMP JUMPDEST PUSH2 0x8E5 PUSH1 0x7 SLOAD DUP3 LT PUSH2 0x2540 JUMP JUMPDEST DUP1 PUSH1 0x0 MSTORE PUSH1 0x20 SWAP2 PUSH1 0x6 DUP4 MSTORE PUSH1 0x40 PUSH1 0x0 KECCAK256 SWAP3 PUSH2 0x90D PUSH1 0x1 DUP1 PUSH1 0xA0 SHL SUB PUSH1 0x2 DUP7 ADD SLOAD AND CALLER EQ PUSH2 0x2585 JUMP JUMPDEST PUSH1 0x7 DUP5 ADD SWAP4 PUSH1 0xFF DUP6 SLOAD AND SWAP5 PUSH1 0x7 DUP7 LT ISZERO PUSH2 0x505 JUMPI PUSH1 0x1 DUP7 EQ DUP1 ISZERO PUSH2 0xA63 JUMPI JUMPDEST ISZERO PUSH2 0xA0A JUMPI PUSH2 0x940 PUSH1 0x6 DUP4 ADD SLOAD TIMESTAMP LT PUSH2 0x25C4 JUMP JUMPDEST DUP4 MLOAD ISZERO PUSH2 0x9C5 JUMPI PUSH2 0x973 DUP6 SWAP7 PUSH32 0x881F663E057AC4D2C1EA5D12F689F065FB14CA20DDB2230A99ABEB4A85072FE0 SWAP7 PUSH2 0x266E JUMP JUMPDEST PUSH1 0x3 PUSH1 0xFF NOT DUP3 SLOAD AND OR SWAP1 SSTORE PUSH1 0x3 PUSH1 0x0 MSTORE PUSH1 0xA DUP3 MSTORE PUSH2 0x995 DUP6 PUSH1 0x40 PUSH1 0x0 KECCAK256 PUSH2 0x24AC JUMP JUMPDEST PUSH2 0x9A2 DUP4 PUSH1 0x9 DUP4 ADD PUSH2 0x2367 JUMP JUMPDEST PUSH1 0xC TIMESTAMP SWAP2 ADD SSTORE PUSH2 0x9BC PUSH1 0x40 MLOAD SWAP3 DUP3 DUP5 SWAP4 DUP5 MSTORE DUP4 ADD SWAP1 PUSH2 0x1F04 JUMP JUMPDEST SUB SWAP1 LOG2 PUSH1 0x1 DUP1 SSTORE STOP JUMPDEST PUSH1 0x40 MLOAD PUSH3 0x461BCD PUSH1 0xE5 SHL DUP2 MSTORE PUSH1 0x4 DUP2 ADD DUP5 SWAP1 MSTORE PUSH1 0x18 PUSH1 0x24 DUP3 ADD MSTORE PUSH32 0x4F75747075742064617461205552492072657175697265640000000000000000 PUSH1 0x44 DUP3 ADD MSTORE PUSH1 0x64 SWAP1 REVERT JUMPDEST PUSH1 0x40 MLOAD PUSH3 0x461BCD PUSH1 0xE5 SHL DUP2 MSTORE PUSH1 0x4 DUP2 ADD DUP5 SWAP1 MSTORE PUSH1 0x2B PUSH1 0x24 DUP3 ADD MSTORE PUSH32 0x52657175657374206E6F7420696E206163636570746564206F722070726F6365 PUSH1 0x44 DUP3 ADD MSTORE PUSH11 0x7373696E67207374617465 PUSH1 0xA8 SHL PUSH1 0x64 DUP3 ADD MSTORE PUSH1 0x84 SWAP1 REVERT JUMPDEST POP PUSH1 0x2 DUP7 EQ PUSH2 0x92C JUMP JUMPDEST CALLVALUE PUSH2 0x322 JUMPI PUSH1 0x20 DUP1 PUSH1 0x3 NOT CALLDATASIZE ADD SLT PUSH2 0x322 JUMPI PUSH1 0x4 CALLDATALOAD PUSH1 0x7 DUP2 LT ISZERO PUSH2 0x322 JUMPI PUSH2 0xA94 SWAP1 PUSH2 0x20B6 JUMP JUMPDEST SWAP1 PUSH1 0x40 MLOAD SWAP1 DUP2 DUP2 DUP5 SLOAD SWAP2 DUP3 DUP2 MSTORE ADD SWAP4 PUSH1 0x0 MSTORE DUP2 PUSH1 0x0 KECCAK256 SWAP2 PUSH1 0x0 SWAP1 JUMPDEST DUP3 DUP3 LT PUSH2 0xAC6 JUMPI PUSH2 0x6AE DUP6 PUSH2 0x6A2 DUP2 DUP10 SUB DUP3 PUSH2 0x1FEF JUMP JUMPDEST DUP4 SLOAD DUP7 MSTORE SWAP5 DUP6 ADD SWAP5 PUSH1 0x1 SWAP4 DUP5 ADD SWAP4 SWAP1 SWAP2 ADD SWAP1 PUSH2 0xAAF JUMP JUMPDEST CALLVALUE PUSH2 0x322 JUMPI PUSH1 0x20 DUP1 PUSH1 0x3 NOT CALLDATASIZE ADD SLT PUSH2 0x322 JUMPI PUSH1 0x1 PUSH1 0x1 PUSH1 0xA0 SHL SUB PUSH2 0xAFF PUSH2 0x2233 JUMP JUMPDEST AND PUSH1 0x0 MSTORE PUSH1 0x9 DUP2 MSTORE PUSH1 0x40 PUSH1 0x0 KECCAK256 SWAP1 PUSH1 0x40 MLOAD SWAP1 DUP2 DUP2 DUP5 SLOAD SWAP2 DUP3 DUP2 MSTORE ADD SWAP4 PUSH1 0x0 MSTORE DUP2 PUSH1 0x0 KECCAK256 SWAP2 PUSH1 0x0 SWAP1 JUMPDEST DUP3 DUP3 LT PUSH2 0xB3E JUMPI PUSH2 0x6AE DUP6 PUSH2 0x6A2 DUP2 DUP10 SUB DUP3 PUSH2 0x1FEF JUMP JUMPDEST DUP4 SLOAD DUP7 MSTORE SWAP5 DUP6 ADD SWAP5 PUSH1 0x1 SWAP4 DUP5 ADD SWAP4 SWAP1 SWAP2 ADD SWAP1 PUSH2 0xB27 JUMP JUMPDEST CALLVALUE PUSH2 0x322 JUMPI PUSH1 0x0 CALLDATASIZE PUSH1 0x3 NOT ADD SLT PUSH2 0x322 JUMPI PUSH1 0x0 SLOAD PUSH1 0x40 MLOAD PUSH1 0x1 PUSH1 0x1 PUSH1 0xA0 SHL SUB SWAP1 SWAP2 AND DUP2 MSTORE PUSH1 0x20 SWAP1 RETURN JUMPDEST CALLVALUE PUSH2 0x322 JUMPI PUSH1 0x0 CALLDATASIZE PUSH1 0x3 NOT ADD SLT PUSH2 0x322 JUMPI PUSH1 0x20 PUSH1 0xB SLOAD PUSH1 0x40 MLOAD SWAP1 DUP2 MSTORE RETURN JUMPDEST CALLVALUE PUSH2 0x322 JUMPI PUSH2 0xBAA CALLDATASIZE PUSH2 0x21F6 JUMP JUMPDEST SWAP1 PUSH1 0x0 MSTORE PUSH1 0x2 PUSH1 0x20 MSTORE PUSH1 0x40 PUSH1 0x0 KECCAK256 SWAP1 DUP2 SLOAD DUP2 LT ISZERO PUSH2 0x322 JUMPI PUSH2 0xBD2 PUSH2 0xBD8 SWAP2 PUSH2 0x6AE SWAP4 PUSH2 0x20CF JUMP JUMPDEST SWAP1 PUSH2 0x220C JUMP JUMPDEST PUSH1 0x40 MLOAD SWAP2 DUP3 SWAP2 PUSH1 0x20 DUP4 MSTORE PUSH1 0x20 DUP4 ADD SWAP1 PUSH2 0x1F04 JUMP JUMPDEST CALLVALUE PUSH2 0x322 JUMPI PUSH2 0xBFA CALLDATASIZE PUSH2 0x21F6 JUMP JUMPDEST SWAP1 PUSH1 0x0 MSTORE PUSH1 0x3 PUSH1 0x20 MSTORE PUSH1 0x40 PUSH1 0x0 KECCAK256 SWAP1 DUP2 SLOAD DUP2 LT ISZERO PUSH2 0x322 JUMPI PUSH2 0xBD2 PUSH2 0xBD8 SWAP2 PUSH2 0x6AE SWAP4 PUSH2 0x20CF JUMP JUMPDEST CALLVALUE PUSH2 0x322 JUMPI PUSH2 0x100 CALLDATASIZE PUSH1 0x3 NOT ADD SLT PUSH2 0x322 JUMPI PUSH1 0x24 CALLDATALOAD PUSH1 0x1 PUSH1 0x1 PUSH1 0x40 SHL SUB DUP2 GT PUSH2 0x322 JUMPI PUSH2 0xC53 SWAP1 CALLDATASIZE SWAP1 PUSH1 0x4 ADD PUSH2 0x2118 JUMP JUMPDEST PUSH1 0x44 CALLDATALOAD PUSH1 0x1 PUSH1 0x1 PUSH1 0x40 SHL SUB DUP2 GT PUSH2 0x322 JUMPI PUSH2 0xC72 SWAP1 CALLDATASIZE SWAP1 PUSH1 0x4 ADD PUSH2 0x2176 JUMP JUMPDEST SWAP1 PUSH1 0x64 CALLDATALOAD PUSH1 0x1 PUSH1 0x1 PUSH1 0x40 SHL SUB DUP2 GT PUSH2 0x322 JUMPI PUSH2 0xC92 SWAP1 CALLDATASIZE SWAP1 PUSH1 0x4 ADD PUSH2 0x2176 JUMP JUMPDEST PUSH1 0xE4 CALLDATALOAD PUSH1 0x1 PUSH1 0x1 PUSH1 0x40 SHL SUB DUP2 GT PUSH2 0x322 JUMPI PUSH2 0xCB1 SWAP1 CALLDATASIZE SWAP1 PUSH1 0x4 ADD PUSH2 0x2118 JUMP JUMPDEST SWAP1 PUSH2 0xCBA PUSH2 0x24EA JUMP JUMPDEST DUP3 MLOAD ISZERO PUSH2 0x1423 JUMPI DUP4 MLOAD ISZERO PUSH2 0x13DE JUMPI DUP1 MLOAD ISZERO PUSH2 0x1399 JUMPI PUSH1 0x84 CALLDATALOAD ISZERO PUSH2 0x1349 JUMPI PUSH1 0xA4 CALLDATALOAD ISZERO PUSH2 0x1304 JUMPI TIMESTAMP PUSH1 0xC4 CALLDATALOAD GT ISZERO PUSH2 0x12BF JUMPI DUP2 MLOAD ISZERO PUSH2 0x127A JUMPI PUSH1 0x5 SLOAD PUSH1 0x40 MLOAD PUSH4 0xEF0E239B PUSH1 0xE0 SHL DUP2 MSTORE PUSH1 0x4 DUP1 CALLDATALOAD SWAP1 DUP3 ADD MSTORE SWAP4 SWAP1 PUSH1 0x0 SWAP1 DUP6 SWAP1 PUSH1 0x24 SWAP1 DUP3 SWAP1 PUSH1 0x1 PUSH1 0x1 PUSH1 0xA0 SHL SUB AND GAS STATICCALL DUP1 ISZERO PUSH2 0x32E JUMPI PUSH1 0x0 SWAP5 PUSH1 0x0 SWAP2 PUSH2 0x1144 JUMPI JUMPDEST POP PUSH1 0x1 PUSH1 0x1 PUSH1 0xA0 SHL SUB DUP6 AND ISZERO PUSH2 0x110B JUMPI ISZERO PUSH2 0x10D1 JUMPI PUSH1 0x0 PUSH1 0x20 PUSH1 0x1 DUP1 PUSH1 0xA0 SHL SUB PUSH1 0x4 SLOAD AND PUSH1 0x64 PUSH1 0x40 MLOAD DUP1 SWAP5 DUP2 SWAP4 PUSH4 0x23B872DD PUSH1 0xE0 SHL DUP4 MSTORE CALLER PUSH1 0x4 DUP5 ADD MSTORE ADDRESS PUSH1 0x24 DUP5 ADD MSTORE PUSH1 0xA4 CALLDATALOAD PUSH1 0x44 DUP5 ADD MSTORE GAS CALL SWAP1 DUP2 ISZERO PUSH2 0x32E JUMPI PUSH1 0x0 SWAP2 PUSH2 0x1097 JUMPI JUMPDEST POP ISZERO PUSH2 0x105A JUMPI PUSH1 0x7 SLOAD SWAP3 PUSH2 0xD9F DUP5 PUSH2 0x232B JUMP JUMPDEST PUSH1 0x7 SSTORE PUSH1 0x40 MLOAD SWAP2 DUP3 PUSH2 0x1C0 DUP2 ADD LT PUSH1 0x1 PUSH1 0x1 PUSH1 0x40 SHL SUB PUSH2 0x1C0 DUP6 ADD GT OR PUSH2 0x1044 JUMPI PUSH2 0x1C0 DUP4 ADD PUSH1 0x40 MSTORE CALLER DUP4 MSTORE PUSH1 0x4 CALLDATALOAD PUSH1 0x20 DUP5 ADD MSTORE PUSH1 0x1 DUP1 PUSH1 0xA0 SHL SUB DUP7 AND PUSH1 0x40 DUP5 ADD MSTORE PUSH1 0x60 DUP4 ADD MSTORE PUSH1 0x84 CALLDATALOAD PUSH1 0x80 DUP4 ADD MSTORE PUSH1 0xA4 CALLDATALOAD PUSH1 0xA0 DUP4 ADD MSTORE PUSH1 0xC4 CALLDATALOAD PUSH1 0xC0 DUP4 ADD MSTORE PUSH1 0x0 PUSH1 0xE0 DUP4 ADD MSTORE PUSH2 0x100 DUP3 ADD MSTORE PUSH1 0x40 MLOAD PUSH2 0xE17 DUP2 PUSH2 0x1FD4 JUMP JUMPDEST PUSH1 0x0 DUP2 MSTORE PUSH2 0x120 DUP3 ADD MSTORE PUSH1 0x0 PUSH2 0x140 DUP3 ADD MSTORE TIMESTAMP PUSH2 0x160 DUP3 ADD MSTORE PUSH1 0x0 PUSH2 0x180 DUP3 ADD MSTORE PUSH1 0x40 MLOAD PUSH2 0xE44 DUP2 PUSH2 0x1FD4 JUMP JUMPDEST PUSH1 0x0 DUP2 MSTORE PUSH2 0x1A0 DUP3 ADD MSTORE DUP3 PUSH1 0x0 MSTORE PUSH1 0x6 PUSH1 0x20 MSTORE PUSH1 0x40 PUSH1 0x0 KECCAK256 PUSH1 0x1 DUP1 PUSH1 0xA0 SHL SUB DUP3 MLOAD AND PUSH1 0x1 PUSH1 0x1 PUSH1 0x60 SHL SUB PUSH1 0xA0 SHL DUP3 SLOAD AND OR DUP2 SSTORE PUSH1 0x20 DUP3 ADD MLOAD PUSH1 0x1 DUP3 ADD SSTORE PUSH1 0x2 DUP2 ADD PUSH1 0x1 DUP1 PUSH1 0xA0 SHL SUB PUSH1 0x40 DUP5 ADD MLOAD AND PUSH1 0x1 PUSH1 0x1 PUSH1 0x60 SHL SUB PUSH1 0xA0 SHL DUP3 SLOAD AND OR SWAP1 SSTORE PUSH2 0xEB4 PUSH1 0x60 DUP4 ADD MLOAD PUSH1 0x3 DUP4 ADD PUSH2 0x2367 JUMP JUMPDEST PUSH1 0x80 DUP3 ADD MLOAD PUSH1 0x4 DUP3 ADD SSTORE PUSH1 0xA0 DUP3 ADD MLOAD PUSH1 0x5 DUP3 ADD SSTORE PUSH1 0xC0 DUP3 ADD MLOAD PUSH1 0x6 DUP3 ADD SSTORE PUSH1 0xE0 DUP3 ADD MLOAD SWAP2 PUSH1 0x7 DUP4 LT ISZERO PUSH2 0x505 JUMPI PUSH2 0x1A0 PUSH1 0xD SWAP2 PUSH2 0xF4A SWAP5 PUSH1 0x7 DUP6 ADD SWAP1 PUSH1 0xFF DUP1 NOT DUP4 SLOAD AND SWAP2 AND OR SWAP1 SSTORE PUSH2 0xF0E PUSH2 0x100 DUP3 ADD MLOAD PUSH1 0x8 DUP7 ADD PUSH2 0x2367 JUMP JUMPDEST PUSH2 0xF20 PUSH2 0x120 DUP3 ADD MLOAD PUSH1 0x9 DUP7 ADD PUSH2 0x2367 JUMP JUMPDEST PUSH2 0x140 DUP2 ADD MLOAD PUSH1 0xA DUP6 ADD SSTORE PUSH2 0x160 DUP2 ADD MLOAD PUSH1 0xB DUP6 ADD SSTORE PUSH2 0x180 DUP2 ADD MLOAD PUSH1 0xC DUP6 ADD SSTORE ADD MLOAD SWAP2 ADD PUSH2 0x2367 JUMP JUMPDEST PUSH1 0x0 JUMPDEST DUP5 MLOAD DUP2 LT ISZERO PUSH2 0xF86 JUMPI PUSH2 0xF81 SWAP1 DUP4 PUSH1 0x0 MSTORE PUSH1 0x2 PUSH1 0x20 MSTORE PUSH2 0xF7C PUSH1 0x40 PUSH1 0x0 KECCAK256 PUSH2 0xF75 DUP4 DUP10 PUSH2 0x246B JUMP JUMPDEST MLOAD SWAP1 PUSH2 0x247F JUMP JUMPDEST PUSH2 0x232B JUMP JUMPDEST PUSH2 0xF4D JUMP JUMPDEST POP SWAP3 POP PUSH1 0x0 JUMPDEST DUP4 MLOAD DUP2 LT ISZERO PUSH2 0xFB9 JUMPI PUSH2 0xFB4 SWAP1 DUP3 PUSH1 0x0 MSTORE PUSH1 0x3 PUSH1 0x20 MSTORE PUSH2 0xF7C PUSH1 0x40 PUSH1 0x0 KECCAK256 PUSH2 0xF75 DUP4 DUP9 PUSH2 0x246B JUMP JUMPDEST PUSH2 0xF8C JUMP JUMPDEST POP PUSH1 0x20 SWAP2 CALLER PUSH1 0x0 MSTORE PUSH1 0x8 DUP4 MSTORE PUSH2 0xFD3 DUP3 PUSH1 0x40 PUSH1 0x0 KECCAK256 PUSH2 0x24AC JUMP JUMPDEST PUSH1 0x1 DUP1 PUSH1 0xA0 SHL SUB AND PUSH1 0x0 MSTORE PUSH1 0x9 DUP3 MSTORE PUSH2 0xFF0 DUP2 PUSH1 0x40 PUSH1 0x0 KECCAK256 PUSH2 0x24AC JUMP JUMPDEST PUSH1 0x0 DUP1 MSTORE PUSH1 0xA DUP3 MSTORE PUSH2 0x1006 DUP2 PUSH1 0x40 PUSH1 0x0 KECCAK256 PUSH2 0x24AC JUMP JUMPDEST PUSH1 0x40 MLOAD PUSH1 0xA4 CALLDATALOAD DUP2 MSTORE PUSH1 0x4 CALLDATALOAD SWAP1 DUP3 PUSH32 0x41612386090D3716F01A2FA2E0E5B436C89D4479F1BD27E2644FE2EBAD825CFE DUP6 CALLER SWAP4 LOG4 PUSH1 0x1 DUP1 SSTORE PUSH1 0x40 MLOAD SWAP1 DUP2 MSTORE RETURN JUMPDEST PUSH4 0x4E487B71 PUSH1 0xE0 SHL PUSH1 0x0 MSTORE PUSH1 0x41 PUSH1 0x4 MSTORE PUSH1 0x24 PUSH1 0x0 REVERT JUMPDEST PUSH1 0x40 MLOAD PUSH3 0x461BCD PUSH1 0xE5 SHL DUP2 MSTORE PUSH1 0x20 PUSH1 0x4 DUP3 ADD MSTORE PUSH1 0x15 PUSH1 0x24 DUP3 ADD MSTORE PUSH21 0x151BDAD95B881D1C985B9CD9995C8819985A5B1959 PUSH1 0x5A SHL PUSH1 0x44 DUP3 ADD MSTORE PUSH1 0x64 SWAP1 REVERT JUMPDEST SWAP1 POP PUSH1 0x20 DUP2 RETURNDATASIZE PUSH1 0x20 GT PUSH2 0x10C9 JUMPI JUMPDEST DUP2 PUSH2 0x10B2 PUSH1 0x20 SWAP4 DUP4 PUSH2 0x1FEF JUMP JUMPDEST DUP2 ADD SUB SLT PUSH2 0x322 JUMPI PUSH2 0x10C3 SWAP1 PUSH2 0x231E JUMP JUMPDEST DUP7 PUSH2 0xD8C JUMP JUMPDEST RETURNDATASIZE SWAP2 POP PUSH2 0x10A5 JUMP JUMPDEST PUSH1 0x40 MLOAD PUSH3 0x461BCD PUSH1 0xE5 SHL DUP2 MSTORE PUSH1 0x20 PUSH1 0x4 DUP3 ADD MSTORE PUSH1 0x12 PUSH1 0x24 DUP3 ADD MSTORE PUSH18 0x53657276696365206E6F7420616374697665 PUSH1 0x70 SHL PUSH1 0x44 DUP3 ADD MSTORE PUSH1 0x64 SWAP1 REVERT JUMPDEST PUSH1 0x40 MLOAD PUSH3 0x461BCD PUSH1 0xE5 SHL DUP2 MSTORE PUSH1 0x20 PUSH1 0x4 DUP3 ADD MSTORE PUSH1 0x11 PUSH1 0x24 DUP3 ADD MSTORE PUSH17 0x14D95C9D9A58D9481B9BDD08199BDD5B99 PUSH1 0x7A SHL PUSH1 0x44 DUP3 ADD MSTORE PUSH1 0x64 SWAP1 REVERT JUMPDEST SWAP5 POP POP RETURNDATASIZE DUP1 PUSH1 0x0 DUP7 RETURNDATACOPY PUSH2 0x1157 DUP2 DUP7 PUSH2 0x1FEF JUMP JUMPDEST PUSH2 0x100 DUP6 DUP3 DUP2 ADD SUB SLT PUSH2 0x322 JUMPI DUP5 MLOAD SWAP1 PUSH1 0x1 PUSH1 0x1 PUSH1 0xA0 SHL SUB DUP3 AND DUP3 SUB PUSH2 0x322 JUMPI PUSH1 0x20 DUP7 ADD MLOAD PUSH1 0x1 PUSH1 0x1 PUSH1 0x40 SHL SUB DUP2 GT PUSH2 0x322 JUMPI PUSH2 0x1199 SWAP1 DUP3 DUP9 ADD SWAP1 DUP9 ADD PUSH2 0x22DC JUMP JUMPDEST POP PUSH1 0x40 DUP7 ADD MLOAD PUSH1 0x1 PUSH1 0x1 PUSH1 0x40 SHL SUB DUP2 GT PUSH2 0x322 JUMPI DUP2 DUP8 ADD PUSH1 0x1F DUP3 DUP10 ADD ADD SLT ISZERO PUSH2 0x322 JUMPI DUP1 DUP8 ADD MLOAD SWAP1 PUSH1 0x20 PUSH2 0x11CC DUP4 PUSH2 0x215F JUMP JUMPDEST PUSH2 0x11D9 PUSH1 0x40 MLOAD SWAP2 DUP3 PUSH2 0x1FEF JUMP JUMPDEST DUP4 DUP2 MSTORE ADD SWAP1 DUP4 DUP10 ADD PUSH1 0x20 DUP5 PUSH1 0x5 SHL DUP4 DUP13 ADD ADD ADD GT PUSH2 0x322 JUMPI PUSH1 0x20 DUP2 DUP11 ADD ADD SWAP2 JUMPDEST PUSH1 0x20 DUP5 PUSH1 0x5 SHL DUP4 DUP13 ADD ADD ADD DUP4 LT PUSH2 0x1243 JUMPI POP POP POP POP PUSH2 0x121A PUSH1 0xA0 DUP8 ADD PUSH2 0x231E JUMP JUMPDEST SWAP6 PUSH1 0xC0 DUP2 ADD MLOAD PUSH1 0x1 PUSH1 0x1 PUSH1 0x40 SHL SUB DUP2 GT PUSH2 0x322 JUMPI PUSH2 0x123B SWAP3 DUP3 ADD SWAP2 ADD PUSH2 0x22DC JUMP JUMPDEST POP SWAP4 DUP7 PUSH2 0xD30 JUMP JUMPDEST DUP3 MLOAD SWAP1 PUSH1 0x1 PUSH1 0x1 PUSH1 0x40 SHL SUB DUP3 GT PUSH2 0x322 JUMPI PUSH1 0x20 DUP1 SWAP3 SWAP2 PUSH2 0x126D DUP14 DUP4 DUP1 SWAP6 DUP9 DUP13 DUP5 ADD SWAP4 ADD ADD ADD PUSH2 0x22DC JUMP JUMPDEST DUP2 MSTORE ADD SWAP4 ADD SWAP3 SWAP1 POP PUSH2 0x11F9 JUMP JUMPDEST PUSH1 0x40 MLOAD PUSH3 0x461BCD PUSH1 0xE5 SHL DUP2 MSTORE PUSH1 0x20 PUSH1 0x4 DUP3 ADD MSTORE PUSH1 0x17 PUSH1 0x24 DUP3 ADD MSTORE PUSH32 0x496E707574206461746120555249207265717569726564000000000000000000 PUSH1 0x44 DUP3 ADD MSTORE PUSH1 0x64 SWAP1 REVERT JUMPDEST PUSH1 0x40 MLOAD PUSH3 0x461BCD PUSH1 0xE5 SHL DUP2 MSTORE PUSH1 0x20 PUSH1 0x4 DUP3 ADD MSTORE PUSH1 0x1A PUSH1 0x24 DUP3 ADD MSTORE PUSH32 0x446561646C696E65206D75737420626520696E20667574757265000000000000 PUSH1 0x44 DUP3 ADD MSTORE PUSH1 0x64 SWAP1 REVERT JUMPDEST PUSH1 0x40 MLOAD PUSH3 0x461BCD PUSH1 0xE5 SHL DUP2 MSTORE PUSH1 0x20 PUSH1 0x4 DUP3 ADD MSTORE PUSH1 0x17 PUSH1 0x24 DUP3 ADD MSTORE PUSH32 0x526577617264206D75737420626520706F736974697665000000000000000000 PUSH1 0x44 DUP3 ADD MSTORE PUSH1 0x64 SWAP1 REVERT JUMPDEST PUSH1 0x40 MLOAD PUSH3 0x461BCD PUSH1 0xE5 SHL DUP2 MSTORE PUSH1 0x20 PUSH1 0x4 DUP3 ADD MSTORE PUSH1 0x22 PUSH1 0x24 DUP3 ADD MSTORE PUSH32 0x496E70757420746F6B656E20636F756E74206D75737420626520706F73697469 PUSH1 0x44 DUP3 ADD MSTORE PUSH2 0x7665 PUSH1 0xF0 SHL PUSH1 0x64 DUP3 ADD MSTORE PUSH1 0x84 SWAP1 REVERT JUMPDEST PUSH1 0x40 MLOAD PUSH3 0x461BCD PUSH1 0xE5 SHL DUP2 MSTORE PUSH1 0x20 PUSH1 0x4 DUP3 ADD MSTORE PUSH1 0x18 PUSH1 0x24 DUP3 ADD MSTORE PUSH32 0x4F7574707574206C616E67756167652072657175697265640000000000000000 PUSH1 0x44 DUP3 ADD MSTORE PUSH1 0x64 SWAP1 REVERT JUMPDEST PUSH1 0x40 MLOAD PUSH3 0x461BCD PUSH1 0xE5 SHL DUP2 MSTORE PUSH1 0x20 PUSH1 0x4 DUP3 ADD MSTORE PUSH1 0x17 PUSH1 0x24 DUP3 ADD MSTORE PUSH32 0x496E707574206C616E6775616765207265717569726564000000000000000000 PUSH1 0x44 DUP3 ADD MSTORE PUSH1 0x64 SWAP1 REVERT JUMPDEST PUSH1 0x40 MLOAD PUSH3 0x461BCD PUSH1 0xE5 SHL DUP2 MSTORE PUSH1 0x20 PUSH1 0x4 DUP3 ADD MSTORE PUSH1 0x15 PUSH1 0x24 DUP3 ADD MSTORE PUSH21 0x14995C5D595CDD081D1E5C19481C995C5D5A5C9959 PUSH1 0x5A SHL PUSH1 0x44 DUP3 ADD MSTORE PUSH1 0x64 SWAP1 REVERT JUMPDEST CALLVALUE PUSH2 0x322 JUMPI PUSH1 0x40 CALLDATASIZE PUSH1 0x3 NOT ADD SLT PUSH2 0x322 JUMPI PUSH1 0x4 CALLDATALOAD PUSH1 0x7 DUP2 LT ISZERO PUSH2 0x322 JUMPI PUSH1 0x24 CALLDATALOAD SWAP1 PUSH1 0x0 MSTORE PUSH1 0xA PUSH1 0x20 MSTORE PUSH1 0x40 PUSH1 0x0 KECCAK256 DUP1 SLOAD DUP3 LT ISZERO PUSH2 0x322 JUMPI PUSH1 0x20 SWAP2 PUSH2 0x713 SWAP2 PUSH2 0x20CF JUMP JUMPDEST CALLVALUE PUSH2 0x322 JUMPI PUSH1 0x20 CALLDATASIZE PUSH1 0x3 NOT ADD SLT PUSH2 0x322 JUMPI PUSH1 0x4 CALLDATALOAD PUSH1 0x0 SWAP1 DUP2 MSTORE PUSH1 0x6 PUSH1 0x20 MSTORE PUSH1 0x40 SWAP1 KECCAK256 DUP1 SLOAD PUSH1 0x1 DUP3 ADD SLOAD PUSH1 0x2 DUP4 ADD SLOAD PUSH1 0x1 PUSH1 0x1 PUSH1 0xA0 SHL SUB SWAP3 DUP4 AND SWAP4 SWAP3 AND SWAP2 SWAP1 PUSH2 0x14ED PUSH1 0x3 DUP4 ADD PUSH2 0x2010 JUMP JUMPDEST SWAP1 PUSH1 0x4 DUP4 ADD SLOAD SWAP3 PUSH1 0x5 DUP2 ADD SLOAD SWAP5 PUSH1 0x6 DUP3 ADD SLOAD PUSH1 0x7 DUP4 ADD SLOAD PUSH1 0xFF AND SWAP7 PUSH1 0x8 DUP5 ADD PUSH2 0x1515 SWAP1 PUSH2 0x2010 JUMP JUMPDEST SWAP2 PUSH2 0x1522 PUSH1 0x9 DUP7 ADD PUSH2 0x2010 JUMP JUMPDEST SWAP2 PUSH1 0xA DUP7 ADD SLOAD SWAP8 PUSH1 0xB DUP8 ADD SLOAD SWAP6 PUSH1 0xC DUP9 ADD SLOAD SWAP8 PUSH1 0xD ADD PUSH2 0x1541 SWAP1 PUSH2 0x2010 JUMP JUMPDEST SWAP9 PUSH1 0x40 MLOAD DUP1 SWAP15 DUP2 MSTORE PUSH1 0x20 ADD MSTORE PUSH1 0x40 DUP14 ADD MSTORE DUP12 PUSH2 0x1C0 PUSH1 0x60 DUP2 SWAP3 ADD MSTORE DUP13 ADD PUSH2 0x1567 SWAP2 PUSH2 0x1F04 JUMP JUMPDEST SWAP9 PUSH1 0x80 DUP13 ADD MSTORE PUSH1 0xA0 DUP12 ADD MSTORE PUSH1 0xC0 DUP11 ADD MSTORE PUSH1 0x7 DUP9 LT ISZERO PUSH2 0x505 JUMPI PUSH2 0x15A0 PUSH2 0x6AE SWAP8 PUSH2 0x15AF SWAP4 DUP12 SWAP11 PUSH1 0xE0 DUP13 ADD MSTORE DUP11 DUP3 SUB PUSH2 0x100 DUP13 ADD MSTORE PUSH2 0x1F04 JUMP JUMPDEST SWAP1 DUP9 DUP3 SUB PUSH2 0x120 DUP11 ADD MSTORE PUSH2 0x1F04 JUMP JUMPDEST SWAP4 PUSH2 0x140 DUP8 ADD MSTORE PUSH2 0x160 DUP7 ADD MSTORE PUSH2 0x180 DUP6 ADD MSTORE DUP4 DUP3 SUB PUSH2 0x1A0 DUP6 ADD MSTORE PUSH2 0x1F04 JUMP JUMPDEST CALLVALUE PUSH2 0x322 JUMPI PUSH1 0x20 DUP1 PUSH1 0x3 NOT CALLDATASIZE ADD SLT PUSH2 0x322 JUMPI PUSH1 0x4 CALLDATALOAD PUSH2 0x15F2 PUSH1 0x7 SLOAD DUP3 LT PUSH2 0x2540 JUMP JUMPDEST PUSH1 0x0 MSTORE PUSH1 0x3 DUP2 MSTORE PUSH1 0x40 PUSH1 0x0 KECCAK256 DUP1 SLOAD PUSH2 0x1609 DUP2 PUSH2 0x215F JUMP JUMPDEST SWAP2 PUSH2 0x1617 PUSH1 0x40 MLOAD SWAP4 DUP5 PUSH2 0x1FEF JUMP JUMPDEST DUP2 DUP4 MSTORE PUSH1 0x0 SWAP1 DUP2 MSTORE DUP4 DUP2 KECCAK256 SWAP4 DUP1 DUP5 ADD JUMPDEST DUP4 DUP4 LT PUSH2 0x163C JUMPI PUSH1 0x40 MLOAD DUP1 PUSH2 0x6AE DUP8 DUP3 PUSH2 0x1F29 JUMP JUMPDEST PUSH1 0x1 DUP3 DUP2 SWAP3 PUSH2 0x164A DUP10 PUSH2 0x2010 JUMP JUMPDEST DUP2 MSTORE ADD SWAP7 ADD SWAP3 ADD SWAP2 SWAP5 PUSH2 0x1627 JUMP JUMPDEST CALLVALUE PUSH2 0x322 JUMPI PUSH1 0x0 CALLDATASIZE PUSH1 0x3 NOT ADD SLT PUSH2 0x322 JUMPI PUSH1 0x4 SLOAD PUSH1 0x40 MLOAD PUSH1 0x1 PUSH1 0x1 PUSH1 0xA0 SHL SUB SWAP1 SWAP2 AND DUP2 MSTORE PUSH1 0x20 SWAP1 RETURN JUMPDEST CALLVALUE PUSH2 0x322 JUMPI PUSH1 0x0 CALLDATASIZE PUSH1 0x3 NOT ADD SLT PUSH2 0x322 JUMPI PUSH2 0x169A PUSH2 0x2284 JUMP JUMPDEST PUSH1 0x0 DUP1 SLOAD PUSH1 0x1 PUSH1 0x1 PUSH1 0xA0 SHL SUB NOT DUP2 AND DUP3 SSTORE PUSH1 0x1 PUSH1 0x1 PUSH1 0xA0 SHL SUB AND PUSH32 0x8BE0079C531659141344CD1FD0A4F28419497F9722A3DAAFE3B4186F6B6457E0 DUP3 DUP1 LOG3 STOP JUMPDEST CALLVALUE PUSH2 0x322 JUMPI PUSH1 0x0 CALLDATASIZE PUSH1 0x3 NOT ADD SLT PUSH2 0x322 JUMPI PUSH1 0x20 PUSH1 0x7 SLOAD PUSH1 0x40 MLOAD SWAP1 DUP2 MSTORE RETURN JUMPDEST CALLVALUE PUSH2 0x322 JUMPI PUSH1 0x20 CALLDATASIZE PUSH1 0x3 NOT ADD SLT PUSH2 0x322 JUMPI PUSH1 0x4 CALLDATALOAD PUSH2 0x1714 PUSH2 0x24EA JUMP JUMPDEST PUSH2 0x1721 PUSH1 0x7 SLOAD DUP3 LT PUSH2 0x2540 JUMP JUMPDEST DUP1 PUSH1 0x0 MSTORE PUSH1 0x6 PUSH1 0x20 MSTORE PUSH1 0x40 PUSH1 0x0 KECCAK256 PUSH2 0x1746 PUSH1 0x1 DUP1 PUSH1 0xA0 SHL SUB PUSH1 0x2 DUP4 ADD SLOAD AND CALLER EQ PUSH2 0x2585 JUMP JUMPDEST PUSH1 0x7 DUP2 ADD SWAP1 PUSH1 0xFF DUP3 SLOAD AND PUSH1 0x7 DUP2 LT ISZERO PUSH2 0x505 JUMPI DUP1 PUSH2 0x17DD JUMPI PUSH2 0x79C PUSH1 0x6 PUSH2 0x1770 SWAP4 ADD SLOAD TIMESTAMP LT PUSH2 0x25C4 JUMP JUMPDEST DUP1 SLOAD PUSH1 0xFF NOT AND PUSH1 0x1 SWAP1 DUP2 OR SWAP1 SWAP2 SSTORE PUSH1 0x0 MSTORE PUSH1 0xA PUSH1 0x20 MSTORE PUSH2 0x17B0 DUP2 PUSH32 0xBBC70DB1B6C7AFD11E79C0FB0051300458F1A3ACB8EE9789D9B6B26C61AD9BC7 PUSH2 0x24AC JUMP JUMPDEST CALLER SWAP1 PUSH32 0xA74A28866064B16E695EBBF53F8B0F9AA0BB93885DBBCC373004F1A052CC4248 PUSH1 0x0 DUP1 LOG3 PUSH1 0x1 DUP1 SSTORE STOP JUMPDEST PUSH1 0x40 MLOAD PUSH3 0x461BCD PUSH1 0xE5 SHL DUP2 MSTORE PUSH1 0x20 PUSH1 0x4 DUP3 ADD MSTORE PUSH1 0x1C PUSH1 0x24 DUP3 ADD MSTORE PUSH32 0x52657175657374206E6F7420696E206372656174656420737461746500000000 PUSH1 0x44 DUP3 ADD MSTORE PUSH1 0x64 SWAP1 REVERT JUMPDEST CALLVALUE PUSH2 0x322 JUMPI PUSH1 0x40 CALLDATASIZE PUSH1 0x3 NOT ADD SLT PUSH2 0x322 JUMPI PUSH1 0x4 CALLDATALOAD PUSH2 0x183E PUSH2 0x1F8B JUMP JUMPDEST PUSH2 0x1846 PUSH2 0x2284 JUMP JUMPDEST PUSH2 0x184E PUSH2 0x24EA JUMP JUMPDEST PUSH2 0x185B PUSH1 0x7 SLOAD DUP4 LT PUSH2 0x2540 JUMP JUMPDEST DUP2 PUSH1 0x0 MSTORE PUSH1 0x20 SWAP2 PUSH1 0x6 DUP4 MSTORE PUSH1 0x40 PUSH1 0x0 KECCAK256 SWAP2 PUSH1 0x7 DUP4 ADD SWAP1 PUSH1 0xFF DUP3 SLOAD AND PUSH1 0x7 DUP2 LT ISZERO PUSH2 0x505 JUMPI PUSH1 0x5 SUB PUSH2 0x1B35 JUMPI ISZERO PUSH2 0x1953 JUMPI POP POP PUSH1 0x4 DUP1 SLOAD DUP3 SLOAD PUSH1 0x5 SWAP1 SWAP4 ADD SLOAD PUSH1 0x40 MLOAD PUSH4 0xA9059CBB PUSH1 0xE0 SHL DUP2 MSTORE PUSH1 0x1 PUSH1 0x1 PUSH1 0xA0 SHL SUB SWAP5 DUP6 AND SWAP4 DUP2 ADD SWAP4 SWAP1 SWAP4 MSTORE PUSH1 0x24 DUP4 ADD MSTORE SWAP1 SWAP2 DUP4 SWAP2 DUP4 SWAP2 PUSH1 0x44 SWAP2 DUP4 SWAP2 PUSH1 0x0 SWAP2 AND GAS CALL SWAP1 DUP2 ISZERO PUSH2 0x32E JUMPI PUSH1 0x0 SWAP2 PUSH2 0x191E JUMPI JUMPDEST POP ISZERO PUSH2 0x18EA JUMPI POP PUSH1 0x1 DUP1 SSTORE STOP JUMPDEST PUSH1 0x64 SWAP1 PUSH1 0x40 MLOAD SWAP1 PUSH3 0x461BCD PUSH1 0xE5 SHL DUP3 MSTORE PUSH1 0x4 DUP3 ADD MSTORE PUSH1 0xD PUSH1 0x24 DUP3 ADD MSTORE PUSH13 0x1499599D5B990819985A5B1959 PUSH1 0x9A SHL PUSH1 0x44 DUP3 ADD MSTORE REVERT JUMPDEST SWAP1 POP DUP2 DUP2 DUP2 RETURNDATASIZE DUP4 GT PUSH2 0x194C JUMPI JUMPDEST PUSH2 0x1935 DUP2 DUP4 PUSH2 0x1FEF JUMP JUMPDEST DUP2 ADD SUB SLT PUSH2 0x322 JUMPI PUSH2 0x1946 SWAP1 PUSH2 0x231E JUMP JUMPDEST DUP3 PUSH2 0x18DD JUMP JUMPDEST POP RETURNDATASIZE PUSH2 0x192B JUMP JUMPDEST SWAP2 PUSH1 0x5 DUP2 SWAP5 SWAP3 SWAP5 ADD SLOAD PUSH2 0x1975 PUSH1 0x64 PUSH2 0x196D PUSH1 0xB SLOAD DUP5 PUSH2 0x2602 JUMP JUMPDEST DIV DUP1 SWAP3 PUSH2 0x2615 JUMP JUMPDEST PUSH1 0x4 DUP1 SLOAD PUSH1 0x2 DUP6 ADD SLOAD PUSH1 0x40 MLOAD PUSH4 0xA9059CBB PUSH1 0xE0 SHL DUP1 DUP3 MSTORE PUSH1 0x1 PUSH1 0x1 PUSH1 0xA0 SHL SUB SWAP3 DUP4 AND SWAP5 DUP3 ADD SWAP5 SWAP1 SWAP5 MSTORE PUSH1 0x24 DUP2 ADD SWAP5 SWAP1 SWAP5 MSTORE SWAP3 SWAP1 DUP7 SWAP1 DUP3 SWAP1 PUSH1 0x44 SWAP1 DUP3 SWAP1 PUSH1 0x0 SWAP1 DUP9 AND GAS CALL SWAP1 DUP2 ISZERO PUSH2 0x32E JUMPI PUSH1 0x0 SWAP2 PUSH2 0x1B00 JUMPI JUMPDEST POP ISZERO PUSH2 0x1ABB JUMPI PUSH1 0x4 DUP1 SLOAD PUSH1 0x0 DUP1 SLOAD PUSH1 0x40 MLOAD SWAP5 DUP6 MSTORE DUP6 AND PUSH1 0x1 PUSH1 0x1 PUSH1 0xA0 SHL SUB AND SWAP3 DUP5 ADD SWAP3 SWAP1 SWAP3 MSTORE PUSH1 0x24 DUP4 ADD SWAP5 SWAP1 SWAP5 MSTORE SWAP1 SWAP3 DUP6 SWAP3 DUP5 SWAP3 PUSH1 0x44 SWAP3 DUP5 SWAP3 AND GAS CALL SWAP1 DUP2 ISZERO PUSH2 0x32E JUMPI PUSH1 0x0 SWAP2 PUSH2 0x1A6C JUMPI JUMPDEST POP SWAP1 PUSH1 0x0 DUP1 MLOAD PUSH1 0x20 PUSH2 0x271F DUP4 CODECOPY DUP2 MLOAD SWAP2 MSTORE SWAP4 PUSH2 0x1A2F PUSH1 0xA SWAP4 PUSH2 0x2622 JUMP JUMPDEST PUSH2 0x1A3D PUSH1 0xFF DUP3 SLOAD AND DUP8 PUSH2 0x266E JUMP JUMPDEST PUSH1 0x4 PUSH1 0xFF NOT DUP3 SLOAD AND OR SWAP1 SSTORE PUSH1 0x4 PUSH1 0x0 MSTORE DUP2 DUP4 MSTORE PUSH2 0x1A5E DUP6 PUSH1 0x40 PUSH1 0x0 KECCAK256 PUSH2 0x24AC JUMP JUMPDEST ADD SLOAD PUSH1 0x40 MLOAD SWAP1 DUP2 MSTORE LOG2 PUSH2 0x2DB JUMP JUMPDEST SWAP2 SWAP1 POP DUP3 DUP3 DUP2 RETURNDATASIZE DUP4 GT PUSH2 0x1AB4 JUMPI JUMPDEST PUSH2 0x1A84 DUP2 DUP4 PUSH2 0x1FEF JUMP JUMPDEST DUP2 ADD SUB SLT PUSH2 0x322 JUMPI PUSH1 0x0 DUP1 MLOAD PUSH1 0x20 PUSH2 0x271F DUP4 CODECOPY DUP2 MLOAD SWAP2 MSTORE SWAP4 PUSH2 0x1A2F PUSH2 0x1AAA PUSH1 0xA SWAP5 PUSH2 0x231E JUMP JUMPDEST SWAP3 SWAP4 POP POP SWAP4 PUSH2 0x1A12 JUMP JUMPDEST POP RETURNDATASIZE PUSH2 0x1A7A JUMP JUMPDEST PUSH1 0x40 MLOAD PUSH3 0x461BCD PUSH1 0xE5 SHL DUP2 MSTORE PUSH1 0x4 DUP2 ADD DUP7 SWAP1 MSTORE PUSH1 0x17 PUSH1 0x24 DUP3 ADD MSTORE PUSH32 0x50726F7669646572207061796D656E74206661696C6564000000000000000000 PUSH1 0x44 DUP3 ADD MSTORE PUSH1 0x64 SWAP1 REVERT JUMPDEST SWAP1 POP DUP6 DUP2 DUP2 RETURNDATASIZE DUP4 GT PUSH2 0x1B2E JUMPI JUMPDEST PUSH2 0x1B17 DUP2 DUP4 PUSH2 0x1FEF JUMP JUMPDEST DUP2 ADD SUB SLT PUSH2 0x322 JUMPI PUSH2 0x1B28 SWAP1 PUSH2 0x231E JUMP JUMPDEST DUP9 PUSH2 0x19C7 JUMP JUMPDEST POP RETURNDATASIZE PUSH2 0x1B0D JUMP JUMPDEST PUSH1 0x40 MLOAD PUSH3 0x461BCD PUSH1 0xE5 SHL DUP2 MSTORE PUSH1 0x4 DUP2 ADD DUP7 SWAP1 MSTORE PUSH1 0x14 PUSH1 0x24 DUP3 ADD MSTORE PUSH20 0x14995C5D595CDD081B9BDD08191A5CDC1D5D1959 PUSH1 0x62 SHL PUSH1 0x44 DUP3 ADD MSTORE PUSH1 0x64 SWAP1 REVERT JUMPDEST CALLVALUE PUSH2 0x322 JUMPI PUSH1 0x20 DUP1 PUSH1 0x3 NOT CALLDATASIZE ADD SLT PUSH2 0x322 JUMPI PUSH1 0x4 CALLDATALOAD SWAP1 PUSH2 0x1B8F PUSH2 0x24EA JUMP JUMPDEST PUSH2 0x1B9C PUSH1 0x7 SLOAD DUP4 LT PUSH2 0x2540 JUMP JUMPDEST PUSH1 0x0 DUP3 DUP2 MSTORE PUSH1 0x6 DUP3 MSTORE PUSH1 0x40 SWAP1 KECCAK256 DUP1 SLOAD PUSH1 0x1 PUSH1 0x1 PUSH1 0xA0 SHL SUB SWAP1 DUP2 AND CALLER EQ DUP1 ISZERO PUSH2 0x1DC1 JUMPI JUMPDEST DUP1 ISZERO PUSH2 0x1DB4 JUMPI JUMPDEST ISZERO PUSH2 0x1D7E JUMPI PUSH1 0x7 DUP3 ADD PUSH1 0xFF DUP2 SLOAD AND PUSH1 0x7 DUP2 LT ISZERO PUSH2 0x505 JUMPI DUP1 ISZERO DUP1 ISZERO PUSH2 0x1D74 JUMPI JUMPDEST ISZERO PUSH2 0x1D2F JUMPI PUSH2 0x1BF5 SWAP1 DUP7 PUSH2 0x266E JUMP JUMPDEST PUSH1 0x6 PUSH1 0xFF NOT DUP3 SLOAD AND OR SWAP1 SSTORE PUSH1 0x6 PUSH1 0x0 MSTORE PUSH1 0xA DUP4 MSTORE PUSH2 0x1C17 DUP5 PUSH1 0x40 PUSH1 0x0 KECCAK256 PUSH2 0x24AC JUMP JUMPDEST DUP1 DUP3 SLOAD AND CALLER DUP2 EQ DUP1 ISZERO PUSH2 0x1D22 JUMPI JUMPDEST PUSH2 0x1C56 JUMPI JUMPDEST DUP5 PUSH32 0xEE243F878B7FC2F54E934CA33783D4395D42BC07612E2BD4B8E0E178639F7A28 PUSH1 0x0 DUP1 LOG2 PUSH1 0x1 DUP1 SSTORE STOP JUMPDEST PUSH1 0x4 DUP1 SLOAD PUSH1 0x5 SWAP1 SWAP5 ADD SLOAD PUSH1 0x40 MLOAD PUSH4 0xA9059CBB PUSH1 0xE0 SHL DUP2 MSTORE PUSH1 0x1 PUSH1 0x1 PUSH1 0xA0 SHL SUB SWAP1 SWAP4 AND SWAP2 DUP4 ADD SWAP2 SWAP1 SWAP2 MSTORE PUSH1 0x24 DUP3 ADD MSTORE SWAP2 DUP4 SWAP2 DUP4 SWAP2 AND DUP2 PUSH1 0x0 DUP2 PUSH1 0x44 DUP2 ADD SUB SWAP3 GAS CALL SWAP1 DUP2 ISZERO PUSH2 0x32E JUMPI PUSH1 0x0 SWAP2 PUSH2 0x1CED JUMPI JUMPDEST POP ISZERO PUSH2 0x1CB3 JUMPI DUP1 DUP1 DUP1 PUSH2 0x1C2A JUMP JUMPDEST PUSH1 0x64 SWAP1 PUSH1 0x40 MLOAD SWAP1 PUSH3 0x461BCD PUSH1 0xE5 SHL DUP3 MSTORE PUSH1 0x4 DUP3 ADD MSTORE PUSH1 0x13 PUSH1 0x24 DUP3 ADD MSTORE PUSH19 0x151BDAD95B881C995D1D5C9B8819985A5B1959 PUSH1 0x6A SHL PUSH1 0x44 DUP3 ADD MSTORE REVERT JUMPDEST SWAP1 POP DUP2 DUP2 DUP2 RETURNDATASIZE DUP4 GT PUSH2 0x1D1B JUMPI JUMPDEST PUSH2 0x1D04 DUP2 DUP4 PUSH2 0x1FEF JUMP JUMPDEST DUP2 ADD SUB SLT PUSH2 0x322 JUMPI PUSH2 0x1D15 SWAP1 PUSH2 0x231E JUMP JUMPDEST DUP4 PUSH2 0x1CA5 JUMP JUMPDEST POP RETURNDATASIZE PUSH2 0x1CFA JUMP JUMPDEST POP DUP2 PUSH1 0x0 SLOAD AND CALLER EQ PUSH2 0x1C25 JUMP JUMPDEST PUSH1 0x40 MLOAD PUSH3 0x461BCD PUSH1 0xE5 SHL DUP2 MSTORE PUSH1 0x4 DUP2 ADD DUP7 SWAP1 MSTORE PUSH1 0x1E PUSH1 0x24 DUP3 ADD MSTORE PUSH32 0x43616E6E6F742063616E63656C20696E2063757272656E742073746174650000 PUSH1 0x44 DUP3 ADD MSTORE PUSH1 0x64 SWAP1 REVERT JUMPDEST POP PUSH1 0x1 DUP2 EQ PUSH2 0x1BE6 JUMP JUMPDEST PUSH1 0x40 MLOAD PUSH3 0x461BCD PUSH1 0xE5 SHL DUP2 MSTORE PUSH1 0x4 DUP2 ADD DUP5 SWAP1 MSTORE PUSH1 0xE PUSH1 0x24 DUP3 ADD MSTORE PUSH14 0x139BDD08185D5D1A1BDC9A5E9959 PUSH1 0x92 SHL PUSH1 0x44 DUP3 ADD MSTORE PUSH1 0x64 SWAP1 REVERT JUMPDEST POP DUP1 PUSH1 0x0 SLOAD AND CALLER EQ PUSH2 0x1BC6 JUMP JUMPDEST POP CALLER DUP2 PUSH1 0x2 DUP5 ADD SLOAD AND EQ PUSH2 0x1BBF JUMP JUMPDEST CALLVALUE PUSH2 0x322 JUMPI PUSH1 0x20 CALLDATASIZE PUSH1 0x3 NOT ADD SLT PUSH2 0x322 JUMPI PUSH1 0x4 CALLDATALOAD PUSH2 0x1DEC PUSH2 0x2284 JUMP JUMPDEST PUSH1 0x14 DUP2 GT PUSH2 0x1E25 JUMPI PUSH1 0x20 DUP2 PUSH32 0x45610D581145924DD7090A5017E5F2B1D6F42213BB2E95707FF86846BBFCB1CA SWAP3 PUSH1 0xB SSTORE PUSH1 0x40 MLOAD SWAP1 DUP2 MSTORE LOG1 STOP JUMPDEST PUSH1 0x40 MLOAD PUSH3 0x461BCD PUSH1 0xE5 SHL DUP2 MSTORE PUSH1 0x20 PUSH1 0x4 DUP3 ADD MSTORE PUSH1 0xC PUSH1 0x24 DUP3 ADD MSTORE PUSH12 0x8CCACA40E8DEDE40D0D2CED PUSH1 0xA3 SHL PUSH1 0x44 DUP3 ADD MSTORE PUSH1 0x64 SWAP1 REVERT JUMPDEST CALLVALUE PUSH2 0x322 JUMPI PUSH1 0x20 DUP1 PUSH1 0x3 NOT CALLDATASIZE ADD SLT PUSH2 0x322 JUMPI PUSH1 0x4 CALLDATALOAD PUSH2 0x1E7B PUSH1 0x7 SLOAD DUP3 LT PUSH2 0x2540 JUMP JUMPDEST PUSH1 0x0 MSTORE PUSH1 0x2 DUP2 MSTORE PUSH1 0x40 PUSH1 0x0 KECCAK256 DUP1 SLOAD PUSH2 0x1E92 DUP2 PUSH2 0x215F JUMP JUMPDEST SWAP2 PUSH2 0x1EA0 PUSH1 0x40 MLOAD SWAP4 DUP5 PUSH2 0x1FEF JUMP JUMPDEST DUP2 DUP4 MSTORE PUSH1 0x0 SWAP1 DUP2 MSTORE DUP4 DUP2 KECCAK256 SWAP4 DUP1 DUP5 ADD JUMPDEST DUP4 DUP4 LT PUSH2 0x1EC5 JUMPI PUSH1 0x40 MLOAD DUP1 PUSH2 0x6AE DUP8 DUP3 PUSH2 0x1F29 JUMP JUMPDEST PUSH1 0x1 DUP3 DUP2 SWAP3 PUSH2 0x1ED3 DUP10 PUSH2 0x2010 JUMP JUMPDEST DUP2 MSTORE ADD SWAP7 ADD SWAP3 ADD SWAP2 SWAP5 PUSH2 0x1EB0 JUMP JUMPDEST PUSH1 0x0 JUMPDEST DUP4 DUP2 LT PUSH2 0x1EF4 JUMPI POP POP PUSH1 0x0 SWAP2 ADD MSTORE JUMP JUMPDEST DUP2 DUP2 ADD MLOAD DUP4 DUP3 ADD MSTORE PUSH1 0x20 ADD PUSH2 0x1EE4 JUMP JUMPDEST SWAP1 PUSH1 0x20 SWAP2 PUSH2 0x1F1D DUP2 MLOAD DUP1 SWAP3 DUP2 DUP6 MSTORE DUP6 DUP1 DUP7 ADD SWAP2 ADD PUSH2 0x1EE1 JUMP JUMPDEST PUSH1 0x1F ADD PUSH1 0x1F NOT AND ADD ADD SWAP1 JUMP JUMPDEST PUSH1 0x20 DUP1 DUP3 ADD SWAP1 DUP1 DUP4 MSTORE DUP4 MLOAD DUP1 SWAP3 MSTORE PUSH1 0x40 DUP4 ADD SWAP3 DUP2 PUSH1 0x40 DUP5 PUSH1 0x5 SHL DUP4 ADD ADD SWAP6 ADD SWAP4 PUSH1 0x0 SWAP2 JUMPDEST DUP5 DUP4 LT PUSH2 0x1F5D JUMPI POP POP POP POP POP POP SWAP1 JUMP JUMPDEST SWAP1 SWAP2 SWAP3 SWAP4 SWAP5 SWAP6 DUP5 DUP1 PUSH2 0x1F7B PUSH1 0x1 SWAP4 PUSH1 0x3F NOT DUP7 DUP3 SUB ADD DUP8 MSTORE DUP11 MLOAD PUSH2 0x1F04 JUMP JUMPDEST SWAP9 ADD SWAP4 ADD SWAP4 ADD SWAP2 SWAP5 SWAP4 SWAP3 SWAP1 PUSH2 0x1F4D JUMP JUMPDEST PUSH1 0x24 CALLDATALOAD SWAP1 DUP2 ISZERO ISZERO DUP3 SUB PUSH2 0x322 JUMPI JUMP JUMPDEST SWAP1 PUSH1 0x1 DUP3 DUP2 SHR SWAP3 AND DUP1 ISZERO PUSH2 0x1FCA JUMPI JUMPDEST PUSH1 0x20 DUP4 LT EQ PUSH2 0x1FB4 JUMPI JUMP JUMPDEST PUSH4 0x4E487B71 PUSH1 0xE0 SHL PUSH1 0x0 MSTORE PUSH1 0x22 PUSH1 0x4 MSTORE PUSH1 0x24 PUSH1 0x0 REVERT JUMPDEST SWAP2 PUSH1 0x7F AND SWAP2 PUSH2 0x1FA9 JUMP JUMPDEST PUSH1 0x20 DUP2 ADD SWAP1 DUP2 LT PUSH1 0x1 PUSH1 0x1 PUSH1 0x40 SHL SUB DUP3 GT OR PUSH2 0x1044 JUMPI PUSH1 0x40 MSTORE JUMP JUMPDEST SWAP1 PUSH1 0x1F DUP1 NOT SWAP2 ADD AND DUP2 ADD SWAP1 DUP2 LT PUSH1 0x1 PUSH1 0x1 PUSH1 0x40 SHL SUB DUP3 GT OR PUSH2 0x1044 JUMPI PUSH1 0x40 MSTORE JUMP JUMPDEST SWAP1 PUSH1 0x40 MLOAD SWAP2 DUP3 PUSH1 0x0 DUP3 SLOAD SWAP3 PUSH2 0x2024 DUP5 PUSH2 0x1F9A JUMP JUMPDEST SWAP1 DUP2 DUP5 MSTORE PUSH1 0x1 SWAP5 DUP6 DUP2 AND SWAP1 DUP2 PUSH1 0x0 EQ PUSH2 0x2093 JUMPI POP PUSH1 0x1 EQ PUSH2 0x2050 JUMPI JUMPDEST POP POP PUSH2 0x204E SWAP3 POP SUB DUP4 PUSH2 0x1FEF JUMP JUMPDEST JUMP JUMPDEST SWAP1 SWAP4 SWAP2 POP PUSH1 0x0 MSTORE PUSH1 0x20 SWAP1 DUP2 PUSH1 0x0 KECCAK256 SWAP4 PUSH1 0x0 SWAP2 JUMPDEST DUP2 DUP4 LT PUSH2 0x207B JUMPI POP POP PUSH2 0x204E SWAP4 POP DUP3 ADD ADD CODESIZE DUP1 PUSH2 0x2040 JUMP JUMPDEST DUP6 SLOAD DUP9 DUP5 ADD DUP6 ADD MSTORE SWAP5 DUP6 ADD SWAP5 DUP8 SWAP5 POP SWAP2 DUP4 ADD SWAP2 PUSH2 0x2063 JUMP JUMPDEST SWAP2 POP POP PUSH2 0x204E SWAP5 POP PUSH1 0x20 SWAP3 POP PUSH1 0xFF NOT AND DUP3 DUP5 ADD MSTORE ISZERO ISZERO PUSH1 0x5 SHL DUP3 ADD ADD CODESIZE DUP1 PUSH2 0x2040 JUMP JUMPDEST PUSH1 0x7 DUP2 LT ISZERO PUSH2 0x505 JUMPI PUSH1 0x0 MSTORE PUSH1 0xA PUSH1 0x20 MSTORE PUSH1 0x40 PUSH1 0x0 KECCAK256 SWAP1 JUMP JUMPDEST DUP1 SLOAD DUP3 LT ISZERO PUSH2 0x20E7 JUMPI PUSH1 0x0 MSTORE PUSH1 0x20 PUSH1 0x0 KECCAK256 ADD SWAP1 PUSH1 0x0 SWAP1 JUMP JUMPDEST PUSH4 0x4E487B71 PUSH1 0xE0 SHL PUSH1 0x0 MSTORE PUSH1 0x32 PUSH1 0x4 MSTORE PUSH1 0x24 PUSH1 0x0 REVERT JUMPDEST PUSH1 0x1 PUSH1 0x1 PUSH1 0x40 SHL SUB DUP2 GT PUSH2 0x1044 JUMPI PUSH1 0x1F ADD PUSH1 0x1F NOT AND PUSH1 0x20 ADD SWAP1 JUMP JUMPDEST DUP2 PUSH1 0x1F DUP3 ADD SLT ISZERO PUSH2 0x322 JUMPI DUP1 CALLDATALOAD SWAP1 PUSH2 0x212F DUP3 PUSH2 0x20FD JUMP JUMPDEST SWAP3 PUSH2 0x213D PUSH1 0x40 MLOAD SWAP5 DUP6 PUSH2 0x1FEF JUMP JUMPDEST DUP3 DUP5 MSTORE PUSH1 0x20 DUP4 DUP4 ADD ADD GT PUSH2 0x322 JUMPI DUP2 PUSH1 0x0 SWAP3 PUSH1 0x20 DUP1 SWAP4 ADD DUP4 DUP7 ADD CALLDATACOPY DUP4 ADD ADD MSTORE SWAP1 JUMP JUMPDEST PUSH1 0x1 PUSH1 0x1 PUSH1 0x40 SHL SUB DUP2 GT PUSH2 0x1044 JUMPI PUSH1 0x5 SHL PUSH1 0x20 ADD SWAP1 JUMP JUMPDEST SWAP1 DUP1 PUSH1 0x1F DUP4 ADD SLT ISZERO PUSH2 0x322 JUMPI DUP2 CALLDATALOAD SWAP1 PUSH2 0x218E DUP3 PUSH2 0x215F JUMP JUMPDEST SWAP3 PUSH2 0x219C PUSH1 0x40 MLOAD SWAP5 DUP6 PUSH2 0x1FEF JUMP JUMPDEST DUP3 DUP5 MSTORE PUSH1 0x20 SWAP3 DUP4 DUP1 DUP7 ADD SWAP2 PUSH1 0x5 SHL DUP4 ADD ADD SWAP3 DUP1 DUP5 GT PUSH2 0x322 JUMPI DUP5 DUP4 ADD SWAP2 JUMPDEST DUP5 DUP4 LT PUSH2 0x21CA JUMPI POP POP POP POP POP POP SWAP1 JUMP JUMPDEST DUP3 CALLDATALOAD PUSH1 0x1 PUSH1 0x1 PUSH1 0x40 SHL SUB DUP2 GT PUSH2 0x322 JUMPI DUP7 SWAP2 PUSH2 0x21EB DUP5 DUP5 DUP1 SWAP5 DUP10 ADD ADD PUSH2 0x2118 JUMP JUMPDEST DUP2 MSTORE ADD SWAP3 ADD SWAP2 PUSH2 0x21BA JUMP JUMPDEST PUSH1 0x40 SWAP1 PUSH1 0x3 NOT ADD SLT PUSH2 0x322 JUMPI PUSH1 0x4 CALLDATALOAD SWAP1 PUSH1 0x24 CALLDATALOAD SWAP1 JUMP JUMPDEST SWAP1 PUSH2 0x221D JUMPI PUSH2 0x221A SWAP1 PUSH2 0x2010 JUMP JUMPDEST SWAP1 JUMP JUMPDEST PUSH4 0x4E487B71 PUSH1 0xE0 SHL PUSH1 0x0 MSTORE PUSH1 0x0 PUSH1 0x4 MSTORE PUSH1 0x24 PUSH1 0x0 REVERT JUMPDEST PUSH1 0x4 CALLDATALOAD SWAP1 PUSH1 0x1 PUSH1 0x1 PUSH1 0xA0 SHL SUB DUP3 AND DUP3 SUB PUSH2 0x322 JUMPI JUMP JUMPDEST PUSH1 0x20 SWAP1 DUP2 PUSH1 0x40 DUP2 DUP4 ADD SWAP3 DUP3 DUP2 MSTORE DUP6 MLOAD DUP1 SWAP5 MSTORE ADD SWAP4 ADD SWAP2 PUSH1 0x0 JUMPDEST DUP3 DUP2 LT PUSH2 0x2270 JUMPI POP POP POP POP SWAP1 JUMP JUMPDEST DUP4 MLOAD DUP6 MSTORE SWAP4 DUP2 ADD SWAP4 SWAP3 DUP2 ADD SWAP3 PUSH1 0x1 ADD PUSH2 0x2262 JUMP JUMPDEST PUSH1 0x0 SLOAD PUSH1 0x1 PUSH1 0x1 PUSH1 0xA0 SHL SUB AND CALLER SUB PUSH2 0x2298 JUMPI JUMP JUMPDEST PUSH1 0x64 PUSH1 0x40 MLOAD PUSH3 0x461BCD PUSH1 0xE5 SHL DUP2 MSTORE PUSH1 0x20 PUSH1 0x4 DUP3 ADD MSTORE PUSH1 0x20 PUSH1 0x24 DUP3 ADD MSTORE PUSH32 0x4F776E61626C653A2063616C6C6572206973206E6F7420746865206F776E6572 PUSH1 0x44 DUP3 ADD MSTORE REVERT JUMPDEST DUP2 PUSH1 0x1F DUP3 ADD SLT ISZERO PUSH2 0x322 JUMPI DUP1 MLOAD PUSH2 0x22F2 DUP2 PUSH2 0x20FD JUMP JUMPDEST SWAP3 PUSH2 0x2300 PUSH1 0x40 MLOAD SWAP5 DUP6 PUSH2 0x1FEF JUMP JUMPDEST DUP2 DUP5 MSTORE PUSH1 0x20 DUP3 DUP5 ADD ADD GT PUSH2 0x322 JUMPI PUSH2 0x221A SWAP2 PUSH1 0x20 DUP1 DUP6 ADD SWAP2 ADD PUSH2 0x1EE1 JUMP JUMPDEST MLOAD SWAP1 DUP2 ISZERO ISZERO DUP3 SUB PUSH2 0x322 JUMPI JUMP JUMPDEST PUSH1 0x0 NOT DUP2 EQ PUSH2 0x233A JUMPI PUSH1 0x1 ADD SWAP1 JUMP JUMPDEST PUSH4 0x4E487B71 PUSH1 0xE0 SHL PUSH1 0x0 MSTORE PUSH1 0x11 PUSH1 0x4 MSTORE PUSH1 0x24 PUSH1 0x0 REVERT JUMPDEST DUP2 DUP2 LT PUSH2 0x235B JUMPI POP POP JUMP JUMPDEST PUSH1 0x0 DUP2 SSTORE PUSH1 0x1 ADD PUSH2 0x2350 JUMP JUMPDEST SWAP2 SWAP1 SWAP2 DUP3 MLOAD PUSH1 0x1 PUSH1 0x1 PUSH1 0x40 SHL SUB DUP2 GT PUSH2 0x1044 JUMPI PUSH2 0x2384 DUP3 SLOAD PUSH2 0x1F9A JUMP JUMPDEST PUSH1 0x1F DUP2 GT PUSH2 0x242E JUMPI JUMPDEST POP PUSH1 0x20 DUP1 PUSH1 0x1F DUP4 GT PUSH1 0x1 EQ PUSH2 0x23CA JUMPI POP DUP2 SWAP3 SWAP4 SWAP5 PUSH1 0x0 SWAP3 PUSH2 0x23BF JUMPI JUMPDEST POP POP DUP2 PUSH1 0x1 SHL SWAP2 PUSH1 0x0 NOT SWAP1 PUSH1 0x3 SHL SHR NOT AND OR SWAP1 SSTORE JUMP JUMPDEST ADD MLOAD SWAP1 POP CODESIZE DUP1 PUSH2 0x23A9 JUMP JUMPDEST SWAP1 PUSH1 0x1F NOT DUP4 AND SWAP6 DUP5 PUSH1 0x0 MSTORE DUP3 PUSH1 0x0 KECCAK256 SWAP3 PUSH1 0x0 SWAP1 JUMPDEST DUP9 DUP3 LT PUSH2 0x2416 JUMPI POP POP DUP4 PUSH1 0x1 SWAP6 SWAP7 SWAP8 LT PUSH2 0x23FD JUMPI JUMPDEST POP POP POP DUP2 SHL ADD SWAP1 SSTORE JUMP JUMPDEST ADD MLOAD PUSH1 0x0 NOT PUSH1 0xF8 DUP5 PUSH1 0x3 SHL AND SHR NOT AND SWAP1 SSTORE CODESIZE DUP1 DUP1 PUSH2 0x23F3 JUMP JUMPDEST DUP1 PUSH1 0x1 DUP6 SWAP7 DUP3 SWAP5 SWAP7 DUP7 ADD MLOAD DUP2 SSTORE ADD SWAP6 ADD SWAP4 ADD SWAP1 PUSH2 0x23DE JUMP JUMPDEST PUSH2 0x245B SWAP1 DUP4 PUSH1 0x0 MSTORE PUSH1 0x20 PUSH1 0x0 KECCAK256 PUSH1 0x1F DUP5 ADD PUSH1 0x5 SHR DUP2 ADD SWAP2 PUSH1 0x20 DUP6 LT PUSH2 0x2461 JUMPI JUMPDEST PUSH1 0x1F ADD PUSH1 0x5 SHR ADD SWAP1 PUSH2 0x2350 JUMP JUMPDEST CODESIZE PUSH2 0x238D JUMP JUMPDEST SWAP1 SWAP2 POP DUP2 SWAP1 PUSH2 0x244E JUMP JUMPDEST DUP1 MLOAD DUP3 LT ISZERO PUSH2 0x20E7 JUMPI PUSH1 0x20 SWAP2 PUSH1 0x5 SHL ADD ADD SWAP1 JUMP JUMPDEST DUP1 SLOAD PUSH1 0x1 PUSH1 0x40 SHL DUP2 LT ISZERO PUSH2 0x1044 JUMPI PUSH2 0x249C SWAP2 PUSH1 0x1 DUP3 ADD DUP2 SSTORE PUSH2 0x20CF JUMP JUMPDEST SWAP2 SWAP1 SWAP2 PUSH2 0x221D JUMPI PUSH2 0x204E SWAP2 PUSH2 0x2367 JUMP JUMPDEST SWAP1 DUP2 SLOAD SWAP2 PUSH1 0x1 PUSH1 0x40 SHL DUP4 LT ISZERO PUSH2 0x1044 JUMPI DUP3 PUSH2 0x24CF SWAP2 PUSH1 0x1 PUSH2 0x204E SWAP6 ADD DUP2 SSTORE PUSH2 0x20CF JUMP JUMPDEST SWAP1 SWAP2 SWAP1 DUP3 SLOAD SWAP1 PUSH1 0x3 SHL PUSH1 0x0 NOT DUP2 SHL SWAP3 DUP4 SWAP2 SHL AND SWAP2 NOT AND OR SWAP1 SSTORE JUMP JUMPDEST PUSH1 0x2 PUSH1 0x1 SLOAD EQ PUSH2 0x24FB JUMPI PUSH1 0x2 PUSH1 0x1 SSTORE JUMP JUMPDEST PUSH1 0x40 MLOAD PUSH3 0x461BCD PUSH1 0xE5 SHL DUP2 MSTORE PUSH1 0x20 PUSH1 0x4 DUP3 ADD MSTORE PUSH1 0x1F PUSH1 0x24 DUP3 ADD MSTORE PUSH32 0x5265656E7472616E637947756172643A207265656E7472616E742063616C6C00 PUSH1 0x44 DUP3 ADD MSTORE PUSH1 0x64 SWAP1 REVERT JUMPDEST ISZERO PUSH2 0x2547 JUMPI JUMP JUMPDEST PUSH1 0x40 MLOAD PUSH3 0x461BCD PUSH1 0xE5 SHL DUP2 MSTORE PUSH1 0x20 PUSH1 0x4 DUP3 ADD MSTORE PUSH1 0x16 PUSH1 0x24 DUP3 ADD MSTORE PUSH22 0x14995C5D595CDD08191BD95CC81B9BDD08195E1A5CDD PUSH1 0x52 SHL PUSH1 0x44 DUP3 ADD MSTORE PUSH1 0x64 SWAP1 REVERT JUMPDEST ISZERO PUSH2 0x258C JUMPI JUMP JUMPDEST PUSH1 0x40 MLOAD PUSH3 0x461BCD PUSH1 0xE5 SHL DUP2 MSTORE PUSH1 0x20 PUSH1 0x4 DUP3 ADD MSTORE PUSH1 0x10 PUSH1 0x24 DUP3 ADD MSTORE PUSH16 0x2737BA103A343290383937BB34B232B9 PUSH1 0x81 SHL PUSH1 0x44 DUP3 ADD MSTORE PUSH1 0x64 SWAP1 REVERT JUMPDEST ISZERO PUSH2 0x25CB JUMPI JUMP JUMPDEST PUSH1 0x40 MLOAD PUSH3 0x461BCD PUSH1 0xE5 SHL DUP2 MSTORE PUSH1 0x20 PUSH1 0x4 DUP3 ADD MSTORE PUSH1 0xF PUSH1 0x24 DUP3 ADD MSTORE PUSH15 0x14995C5D595CDD08195E1C1A5C9959 PUSH1 0x8A SHL PUSH1 0x44 DUP3 ADD MSTORE PUSH1 0x64 SWAP1 REVERT JUMPDEST DUP2 DUP2 MUL SWAP3 SWAP2 DUP2 ISZERO SWAP2 DUP5 DIV EQ OR ISZERO PUSH2 0x233A JUMPI JUMP JUMPDEST SWAP2 SWAP1 DUP3 SUB SWAP2 DUP3 GT PUSH2 0x233A JUMPI JUMP JUMPDEST ISZERO PUSH2 0x2629 JUMPI JUMP JUMPDEST PUSH1 0x40 MLOAD PUSH3 0x461BCD PUSH1 0xE5 SHL DUP2 MSTORE PUSH1 0x20 PUSH1 0x4 DUP3 ADD MSTORE PUSH1 0x1C PUSH1 0x24 DUP3 ADD MSTORE PUSH32 0x506C6174666F726D20666565207472616E73666572206661696C656400000000 PUSH1 0x44 DUP3 ADD MSTORE PUSH1 0x64 SWAP1 REVERT JUMPDEST SWAP1 PUSH2 0x2678 SWAP1 PUSH2 0x20B6 JUMP JUMPDEST SWAP1 PUSH1 0x0 JUMPDEST DUP3 SLOAD DUP1 DUP3 LT ISZERO PUSH2 0x2718 JUMPI DUP3 SWAP1 PUSH2 0x2692 DUP4 DUP7 PUSH2 0x20CF JUMP JUMPDEST SWAP3 SWAP1 SLOAD PUSH1 0x3 SWAP4 DUP5 SHL SHR EQ PUSH2 0x26B0 JUMPI POP POP PUSH2 0x26AB SWAP1 PUSH2 0x232B JUMP JUMPDEST PUSH2 0x267C JUMP JUMPDEST SWAP1 SWAP4 SWAP3 POP PUSH1 0x0 NOT SWAP2 DUP3 DUP3 ADD SWAP2 DUP3 GT PUSH2 0x233A JUMPI PUSH2 0x24CF PUSH2 0x26D2 PUSH2 0x26DF SWAP4 DUP7 PUSH2 0x20CF JUMP JUMPDEST SWAP1 SLOAD SWAP1 DUP8 SHL SHR SWAP2 DUP6 PUSH2 0x20CF JUMP JUMPDEST DUP2 SLOAD DUP1 ISZERO PUSH2 0x2702 JUMPI DUP2 ADD SWAP3 PUSH2 0x26F4 DUP5 DUP5 PUSH2 0x20CF JUMP JUMPDEST DUP2 SWAP4 SWAP2 SLOAD SWAP3 SHL SHL NOT AND SWAP1 SSTORE SSTORE JUMP JUMPDEST PUSH4 0x4E487B71 PUSH1 0xE0 SHL PUSH1 0x0 MSTORE PUSH1 0x31 PUSH1 0x4 MSTORE PUSH1 0x24 PUSH1 0x0 REVERT JUMPDEST POP POP POP POP JUMP INVALID PUSH31 0x3D1C85338A9EE9187454178EA54CE1685E9D3E6295EA6D4F3E4393CA921862 LOG2 PUSH5 0x6970667358 0x22 SLT KECCAK256 0xD3 SWAP10 ORIGIN SWAP13 CALLDATALOAD LOG4 PUSH6 0x535D38F3236B 0x4A PUSH16 0x2A8AC00289F43EB659F9B42888200E06 MSTORE8 PUSH5 0x736F6C6343 STOP ADDMOD GT STOP CALLER "},"methodIdentifiers":{"acceptRequest(uint256)":"4ba1f098","aiRegistry()":"eab2edf3","cancelRequest(uint256)":"3015394c","completeRequest(uint256,string)":"ab2cb4f9","createRequest(uint256,string,string[],string[],uint256,uint256,uint256,string)":"832ee7de","cultureToken()":"74d311f4","getInputLanguages(uint256)":"0d497b94","getOutputLanguages(uint256)":"7d524600","getProviderRequests(address)":"a508e864","getRequesterRequests(address)":"e64e8a11","getRequestsByStatus(uint8)":"a97c275b","markRequestAsProcessing(uint256)":"bb2df777","owner()":"8da5cb5b","platformFeePercent()":"8c639a85","providerRequests(address,uint256)":"ab558919","renounceOwnership()":"715018a6","requestCount()":"5badbe4c","requestInputLanguages(uint256,uint256)":"89e3f91e","requestOutputLanguages(uint256,uint256)":"8579a972","requesterRequests(address,uint256)":"dae8c384","requests(uint256)":"81d12c58","resolveDispute(uint256,bool)":"34b25ee2","setPlatformFee(uint256)":"12e8e2c3","statusIndex(uint8,uint256)":"822e69e5","transferOwnership(address)":"f2fde38b","verifyRequest(uint256,bool,uint256)":"fc24db19"}}}}}