{
  "_format": "hh-sol-artifact-1",
  "contractName": "AIRequest",
  "sourceName": "src/contracts/AIRequest.sol",
  "abi": [
    {
      "inputs": [
        {
          "internalType": "address",
          "name": "tokenAddress",
          "type": "address"
        },
        {
          "internalType": "address",
          "name": "registryAddress",
          "type": "address"
        }
      ],
      "stateMutability": "nonpayable",
      "type": "constructor"
    },
    {
      "anonymous": false,
      "inputs": [
        {
          "indexed": true,
          "internalType": "address",
          "name": "previousOwner",
          "type": "address"
        },
        {
          "indexed": true,
          "internalType": "address",
          "name": "newOwner",
          "type": "address"
        }
      ],
      "name": "OwnershipTransferred",
      "type": "event"
    },
    {
      "anonymous": false,
      "inputs": [
        {
          "indexed": false,
          "internalType": "uint256",
          "name": "newFeePercent",
          "type": "uint256"
        }
      ],
      "name": "PlatformFeeUpdated",
      "type": "event"
    },
    {
      "anonymous": false,
      "inputs": [
        {
          "indexed": true,
          "internalType": "uint256",
          "name": "requestId",
          "type": "uint256"
        },
        {
          "indexed": true,
          "internalType": "address",
          "name": "provider",
          "type": "address"
        }
      ],
      "name": "RequestAccepted",
      "type": "event"
    },
    {
      "anonymous": false,
      "inputs": [
        {
          "indexed": true,
          "internalType": "uint256",
          "name": "requestId",
          "type": "uint256"
        }
      ],
      "name": "RequestCancelled",
      "type": "event"
    },
    {
      "anonymous": false,
      "inputs": [
        {
          "indexed": true,
          "internalType": "uint256",
          "name": "requestId",
          "type": "uint256"
        },
        {
          "indexed": false,
          "internalType": "string",
          "name": "outputDataURI",
          "type": "string"
        }
      ],
      "name": "RequestCompleted",
      "type": "event"
    },
    {
      "anonymous": false,
      "inputs": [
        {
          "indexed": true,
          "internalType": "uint256",
          "name": "requestId",
          "type": "uint256"
        },
        {
          "indexed": true,
          "internalType": "address",
          "name": "requester",
          "type": "address"
        },
        {
          "indexed": true,
          "internalType": "uint256",
          "name": "serviceId",
          "type": "uint256"
        },
        {
          "indexed": false,
          "internalType": "uint256",
          "name": "reward",
          "type": "uint256"
        }
      ],
      "name": "RequestCreated",
      "type": "event"
    },
    {
      "anonymous": false,
      "inputs": [
        {
          "indexed": true,
          "internalType": "uint256",
          "name": "requestId",
          "type": "uint256"
        },
        {
          "indexed": false,
          "internalType": "string",
          "name": "disputeReason",
          "type": "string"
        }
      ],
      "name": "RequestDisputed",
      "type": "event"
    },
    {
      "anonymous": false,
      "inputs": [
        {
          "indexed": true,
          "internalType": "uint256",
          "name": "requestId",
          "type": "uint256"
        }
      ],
      "name": "RequestProcessing",
      "type": "event"
    },
    {
      "anonymous": false,
      "inputs": [
        {
          "indexed": true,
          "internalType": "uint256",
          "name": "requestId",
          "type": "uint256"
        },
        {
          "indexed": false,
          "internalType": "uint256",
          "name": "qualityScore",
          "type": "uint256"
        }
      ],
      "name": "RequestVerified",
      "type": "event"
    },
    {
      "inputs": [
        {
          "internalType": "uint256",
          "name": "requestId",
          "type": "uint256"
        }
      ],
      "name": "acceptRequest",
      "outputs": [],
      "stateMutability": "nonpayable",
      "type": "function"
    },
    {
      "inputs": [],
      "name": "aiRegistry",
      "outputs": [
        {
          "internalType": "contract IAIRegistry",
          "name": "",
          "type": "address"
        }
      ],
      "stateMutability": "view",
      "type": "function"
    },
    {
      "inputs": [
        {
          "internalType": "uint256",
          "name": "requestId",
          "type": "uint256"
        }
      ],
      "name": "cancelRequest",
      "outputs": [],
      "stateMutability": "nonpayable",
      "type": "function"
    },
    {
      "inputs": [
        {
          "internalType": "uint256",
          "name": "requestId",
          "type": "uint256"
        },
        {
          "internalType": "string",
          "name": "outputDataURI",
          "type": "string"
        }
      ],
      "name": "completeRequest",
      "outputs": [],
      "stateMutability": "nonpayable",
      "type": "function"
    },
    {
      "inputs": [
        {
          "internalType": "uint256",
          "name": "serviceId",
          "type": "uint256"
        },
        {
          "internalType": "string",
          "name": "requestType",
          "type": "string"
        },
        {
          "internalType": "string[]",
          "name": "inputLanguages",
          "type": "string[]"
        },
        {
          "internalType": "string[]",
          "name": "outputLanguages",
          "type": "string[]"
        },
        {
          "internalType": "uint256",
          "name": "inputTokenCount",
          "type": "uint256"
        },
        {
          "internalType": "uint256",
          "name": "reward",
          "type": "uint256"
        },
        {
          "internalType": "uint256",
          "name": "deadline",
          "type": "uint256"
        },
        {
          "internalType": "string",
          "name": "inputDataURI",
          "type": "string"
        }
      ],
      "name": "createRequest",
      "outputs": [
        {
          "internalType": "uint256",
          "name": "",
          "type": "uint256"
        }
      ],
      "stateMutability": "nonpayable",
      "type": "function"
    },
    {
      "inputs": [],
      "name": "cultureToken",
      "outputs": [
        {
          "internalType": "contract IERC20",
          "name": "",
          "type": "address"
        }
      ],
      "stateMutability": "view",
      "type": "function"
    },
    {
      "inputs": [
        {
          "internalType": "uint256",
          "name": "requestId",
          "type": "uint256"
        }
      ],
      "name": "getInputLanguages",
      "outputs": [
        {
          "internalType": "string[]",
          "name": "",
          "type": "string[]"
        }
      ],
      "stateMutability": "view",
      "type": "function"
    },
    {
      "inputs": [
        {
          "internalType": "uint256",
          "name": "requestId",
          "type": "uint256"
        }
      ],
      "name": "getOutputLanguages",
      "outputs": [
        {
          "internalType": "string[]",
          "name": "",
          "type": "string[]"
        }
      ],
      "stateMutability": "view",
      "type": "function"
    },
    {
      "inputs": [
        {
          "internalType": "address",
          "name": "provider",
          "type": "address"
        }
      ],
      "name": "getProviderRequests",
      "outputs": [
        {
          "internalType": "uint256[]",
          "name": "",
          "type": "uint256[]"
        }
      ],
      "stateMutability": "view",
      "type": "function"
    },
    {
      "inputs": [
        {
          "internalType": "address",
          "name": "requester",
          "type": "address"
        }
      ],
      "name": "getRequesterRequests",
      "outputs": [
        {
          "internalType": "uint256[]",
          "name": "",
          "type": "uint256[]"
        }
      ],
      "stateMutability": "view",
      "type": "function"
    },
    {
      "inputs": [
        {
          "internalType": "enum AIRequest.RequestStatus",
          "name": "status",
          "type": "uint8"
        }
      ],
      "name": "getRequestsByStatus",
      "outputs": [
        {
          "internalType": "uint256[]",
          "name": "",
          "type": "uint256[]"
        }
      ],
      "stateMutability": "view",
      "type": "function"
    },
    {
      "inputs": [
        {
          "internalType": "uint256",
          "name": "requestId",
          "type": "uint256"
        }
      ],
      "name": "markRequestAsProcessing",
      "outputs": [],
      "stateMutability": "nonpayable",
      "type": "function"
    },
    {
      "inputs": [],
      "name": "owner",
      "outputs": [
        {
          "internalType": "address",
          "name": "",
          "type": "address"
        }
      ],
      "stateMutability": "view",
      "type": "function"
    },
    {
      "inputs": [],
      "name": "platformFeePercent",
      "outputs": [
        {
          "internalType": "uint256",
          "name": "",
          "type": "uint256"
        }
      ],
      "stateMutability": "view",
      "type": "function"
    },
    {
      "inputs": [
        {
          "internalType": "address",
          "name": "",
          "type": "address"
        },
        {
          "internalType": "uint256",
          "name": "",
          "type": "uint256"
        }
      ],
      "name": "providerRequests",
      "outputs": [
        {
          "internalType": "uint256",
          "name": "",
          "type": "uint256"
        }
      ],
      "stateMutability": "view",
      "type": "function"
    },
    {
      "inputs": [],
      "name": "renounceOwnership",
      "outputs": [],
      "stateMutability": "nonpayable",
      "type": "function"
    },
    {
      "inputs": [],
      "name": "requestCount",
      "outputs": [
        {
          "internalType": "uint256",
          "name": "",
          "type": "uint256"
        }
      ],
      "stateMutability": "view",
      "type": "function"
    },
    {
      "inputs": [
        {
          "internalType": "uint256",
          "name": "",
          "type": "uint256"
        },
        {
          "internalType": "uint256",
          "name": "",
          "type": "uint256"
        }
      ],
      "name": "requestInputLanguages",
      "outputs": [
        {
          "internalType": "string",
          "name": "",
          "type": "string"
        }
      ],
      "stateMutability": "view",
      "type": "function"
    },
    {
      "inputs": [
        {
          "internalType": "uint256",
          "name": "",
          "type": "uint256"
        },
        {
          "internalType": "uint256",
          "name": "",
          "type": "uint256"
        }
      ],
      "name": "requestOutputLanguages",
      "outputs": [
        {
          "internalType": "string",
          "name": "",
          "type": "string"
        }
      ],
      "stateMutability": "view",
      "type": "function"
    },
    {
      "inputs": [
        {
          "internalType": "address",
          "name": "",
          "type": "address"
        },
        {
          "internalType": "uint256",
          "name": "",
          "type": "uint256"
        }
      ],
      "name": "requesterRequests",
      "outputs": [
        {
          "internalType": "uint256",
          "name": "",
          "type": "uint256"
        }
      ],
      "stateMutability": "view",
      "type": "function"
    },
    {
      "inputs": [
        {
          "internalType": "uint256",
          "name": "",
          "type": "uint256"
        }
      ],
      "name": "requests",
      "outputs": [
        {
          "internalType": "address",
          "name": "requester",
          "type": "address"
        },
        {
          "internalType": "uint256",
          "name": "serviceId",
          "type": "uint256"
        },
        {
          "internalType": "address",
          "name": "provider",
          "type": "address"
        },
        {
          "internalType": "string",
          "name": "requestType",
          "type": "string"
        },
        {
          "internalType": "uint256",
          "name": "inputTokenCount",
          "type": "uint256"
        },
        {
          "internalType": "uint256",
          "name": "reward",
          "type": "uint256"
        },
        {
          "internalType": "uint256",
          "name": "deadline",
          "type": "uint256"
        },
        {
          "internalType": "enum AIRequest.RequestStatus",
          "name": "status",
          "type": "uint8"
        },
        {
          "internalType": "string",
          "name": "inputDataURI",
          "type": "string"
        },
        {
          "internalType": "string",
          "name": "outputDataURI",
          "type": "string"
        },
        {
          "internalType": "uint256",
          "name": "qualityScore",
          "type": "uint256"
        },
        {
          "internalType": "uint256",
          "name": "creationTime",
          "type": "uint256"
        },
        {
          "internalType": "uint256",
          "name": "completionTime",
          "type": "uint256"
        },
        {
          "internalType": "string",
          "name": "disputeReason",
          "type": "string"
        }
      ],
      "stateMutability": "view",
      "type": "function"
    },
    {
      "inputs": [
        {
          "internalType": "uint256",
          "name": "requestId",
          "type": "uint256"
        },
        {
          "internalType": "bool",
          "name": "refundToRequester",
          "type": "bool"
        }
      ],
      "name": "resolveDispute",
      "outputs": [],
      "stateMutability": "nonpayable",
      "type": "function"
    },
    {
      "inputs": [
        {
          "internalType": "uint256",
          "name": "newFeePercent",
          "type": "uint256"
        }
      ],
      "name": "setPlatformFee",
      "outputs": [],
      "stateMutability": "nonpayable",
      "type": "function"
    },
    {
      "inputs": [
        {
          "internalType": "enum AIRequest.RequestStatus",
          "name": "",
          "type": "uint8"
        },
        {
          "internalType": "uint256",
          "name": "",
          "type": "uint256"
        }
      ],
      "name": "statusIndex",
      "outputs": [
        {
          "internalType": "uint256",
          "name": "",
          "type": "uint256"
        }
      ],
      "stateMutability": "view",
      "type": "function"
    },
    {
      "inputs": [
        {
          "internalType": "address",
          "name": "newOwner",
          "type": "address"
        }
      ],
      "name": "transferOwnership",
      "outputs": [],
      "stateMutability": "nonpayable",
      "type": "function"
    },
    {
      "inputs": [
        {
          "internalType": "uint256",
          "name": "requestId",
          "type": "uint256"
        },
        {
          "internalType": "bool",
          "name": "accepted",
          "type": "bool"
        },
        {
          "internalType": "uint256",
          "name": "qualityScore",
          "type": "uint256"
        }
      ],
      "name": "verifyRequest",
      "outputs": [],
      "stateMutability": "nonpayable",
      "type": "function"
    }
  ],
  "bytecode": "0x6080346200017457601f6200291938819003918201601f19168301916001600160401b038311848410176200017957808492604094855283398101031262000174576200005a602062000052836200018f565b92016200018f565b60008054336001600160a01b0319808316821784556040519590946001600160a01b03949093859391908416907f8be0079c531659141344cd1fd0a4f28419497f9722a3daafe3b4186f6b6457e09080a3600180551693841562000132575016918215620000ed5781600454161760045560055416176005556005600b5560006007556040516127749081620001a58239f35b60405162461bcd60e51b815260206004820152601860248201527f496e76616c6964207265676973747279206164647265737300000000000000006044820152606490fd5b62461bcd60e51b815260206004820152601560248201527f496e76616c696420746f6b656e206164647265737300000000000000000000006044820152606490fd5b600080fd5b634e487b7160e01b600052604160045260246000fd5b51906001600160a01b0382168203620001745756fe6080604052600436101561001257600080fd5b60003560e01c80630d497b9414611e5957806312e8e2c314611dd05780633015394c14611b7157806334b25ee2146118225780634ba1f098146116f85780635badbe4c146116da578063715018a61461168157806374d311f4146116585780637d524600146115d057806381d12c58146114a3578063822e69e514611460578063832ee7de14610c225780638579a97214610bec57806389e3f91e14610b9c5780638c639a8514610b7e5780638da5cb5b14610b55578063a508e86414610add578063a97c275b14610a6d578063ab2cb4f91461089c578063ab55891914610852578063bb2df77714610721578063dae8c384146106c9578063e64e8a1114610641578063eab2edf314610618578063f2fde38b146105545763fc24db191461013a57600080fd5b3461032257606036600319011261032257600435610156611f8b565b906044356101626124ea565b61016f6007548310612540565b816000526020906006825260406000209360018060a01b039081865416330361051b57600786019060ff82541690600782101561050557600382036104c0576064851161047b57156103b457506101ca60ff8254168661266e565b600460ff198254161790556004600052600a83526101ec8460406000206124ac565b81600a860155600585015494600084610258610217606461020f600b548c612602565b04809a612615565b938560028160045416920154169460405194858094819363a9059cbb60e01b998a84526004840160209093929193604081019460018060a01b031681520152565b03925af190811561032e5760009161037f575b501561033a57600480546000805460405194855285166001600160a01b0316928401929092526024830197909752949590948492869260449284929091165af192831561032e576000936102e1575b506102d360008051602061271f83398151915293612622565b604051908152a25b60018055005b92508183813d8311610327575b6102f88183611fef565b81010312610322576102d361031b60008051602061271f8339815191529461231e565b93506102ba565b600080fd5b503d6102ee565b6040513d6000823e3d90fd5b60405162461bcd60e51b815260048101859052601f60248201527f50726f766964657220726577617264207472616e73666572206661696c6564006044820152606490fd5b90508481813d83116103ad575b6103968183611fef565b81010312610322576103a79061231e565b3861026b565b503d61038c565b6060949350600d9250906103eb8697927feb48300ae8d9bb9005d6350cdae8612511f5fe9e23226aef75f3a050b6366a109761266e565b600560ff198254161790556005600052600a835261040d8660406000206124ac565b016104188154611f9a565b601f811161045a575b50755175616c697479206e6f742061636365707461626c6560501b90602c820190556016604051928084528301526040820152a26102db565b6104759082600052601f84600020910160051c810190612350565b38610421565b60405162461bcd60e51b815260048101879052601b60248201527f5175616c6974792073636f7265206d75737420626520302d31303000000000006044820152606490fd5b60405162461bcd60e51b815260048101879052601e60248201527f52657175657374206e6f7420696e20636f6d706c6574656420737461746500006044820152606490fd5b634e487b7160e01b600052602160045260246000fd5b60405162461bcd60e51b81526004810185905260116024820152702737ba103a3432903932b8bab2b9ba32b960791b6044820152606490fd5b346103225760203660031901126103225761056d612233565b610575612284565b6001600160a01b039081169081156105c457600054826001600160601b0360a01b821617600055167f8be0079c531659141344cd1fd0a4f28419497f9722a3daafe3b4186f6b6457e0600080a3005b60405162461bcd60e51b815260206004820152602660248201527f4f776e61626c653a206e6577206f776e657220697320746865207a65726f206160448201526564647265737360d01b6064820152608490fd5b34610322576000366003190112610322576005546040516001600160a01b039091168152602090f35b3461032257602080600319360112610322576001600160a01b03610663612233565b1660005260088152604060002090604051908181845491828152019360005281600020916000905b8282106106b2576106ae856106a281890382611fef565b60405191829182612249565b0390f35b83548652948501946001938401939091019061068b565b34610322576040366003190112610322576106e2612233565b6001600160a01b031660009081526008602052604090208054602435919082101561032257602091610713916120cf565b90546040519160031b1c8152f35b346103225760203660031901126103225760043561073d6124ea565b61074a6007548210612540565b806000526006602052604060002061076f60018060a01b036002830154163314612585565b600781019060ff8254166007811015610505576001810361080d5761079c60066107a293015442106125c4565b8361266e565b805460ff19166002908117909155600052600a6020526107e2817fbff4442b8ed600beeb8e26b1279a0f0d14c6edfaec26d968ee13c86f7d4c2ba86124ac565b7f9ca36018c8cfd762ddaa3afaa30d9e218a02a2d3618e27d454abb1862f329ef8600080a260018055005b60405162461bcd60e51b815260206004820152601d60248201527f52657175657374206e6f7420696e2061636365707465642073746174650000006044820152606490fd5b346103225760403660031901126103225761086b612233565b6001600160a01b031660009081526009602052604090208054602435919082101561032257602091610713916120cf565b34610322576040366003190112610322576004356024356001600160401b038111610322576108cf903690600401612118565b906108d86124ea565b6108e56007548210612540565b806000526020916006835260406000209261090d60018060a01b036002860154163314612585565b600784019360ff85541694600786101561050557600186148015610a63575b15610a0a57610940600683015442106125c4565b8351156109c55761097385967f881f663e057ac4d2c1ea5d12f689f065fb14ca20ddb2230a99abeb4a85072fe09661266e565b600360ff198254161790556003600052600a82526109958560406000206124ac565b6109a28360098301612367565b600c429101556109bc604051928284938452830190611f04565b0390a260018055005b60405162461bcd60e51b815260048101849052601860248201527f4f757470757420646174612055524920726571756972656400000000000000006044820152606490fd5b60405162461bcd60e51b815260048101849052602b60248201527f52657175657374206e6f7420696e206163636570746564206f722070726f636560448201526a7373696e6720737461746560a81b6064820152608490fd5b506002861461092c565b346103225760208060031936011261032257600435600781101561032257610a94906120b6565b90604051908181845491828152019360005281600020916000905b828210610ac6576106ae856106a281890382611fef565b835486529485019460019384019390910190610aaf565b3461032257602080600319360112610322576001600160a01b03610aff612233565b1660005260098152604060002090604051908181845491828152019360005281600020916000905b828210610b3e576106ae856106a281890382611fef565b835486529485019460019384019390910190610b27565b34610322576000366003190112610322576000546040516001600160a01b039091168152602090f35b34610322576000366003190112610322576020600b54604051908152f35b3461032257610baa366121f6565b906000526002602052604060002090815481101561032257610bd2610bd8916106ae936120cf565b9061220c565b604051918291602083526020830190611f04565b3461032257610bfa366121f6565b906000526003602052604060002090815481101561032257610bd2610bd8916106ae936120cf565b3461032257610100366003190112610322576024356001600160401b03811161032257610c53903690600401612118565b6044356001600160401b03811161032257610c72903690600401612176565b906064356001600160401b03811161032257610c92903690600401612176565b60e4356001600160401b03811161032257610cb1903690600401612118565b90610cba6124ea565b825115611423578351156113de5780511561139957608435156113495760a43515611304574260c43511156112bf5781511561127a5760055460405163ef0e239b60e01b815260048035908201529390600090859060249082906001600160a01b03165afa801561032e57600094600091611144575b506001600160a01b0385161561110b57156110d1576000602060018060a01b03600454166064604051809481936323b872dd60e01b835233600484015230602484015260a43560448401525af190811561032e57600091611097575b501561105a5760075492610d9f8461232b565b60075560405191826101c08101106001600160401b036101c085011117611044576101c08301604052338352600435602084015260018060a01b03861660408401526060830152608435608083015260a43560a083015260c43560c0830152600060e0830152610100820152604051610e1781611fd4565b600081526101208201526000610140820152426101608201526000610180820152604051610e4481611fd4565b600081526101a0820152826000526006602052604060002060018060a01b038251166001600160601b0360a01b825416178155602082015160018201556002810160018060a01b036040840151166001600160601b0360a01b825416179055610eb4606083015160038301612367565b6080820151600482015560a0820151600582015560c0820151600682015560e0820151916007831015610505576101a0600d91610f4a94600785019060ff80198354169116179055610f0e61010082015160088601612367565b610f2061012082015160098601612367565b610140810151600a850155610160810151600b850155610180810151600c85015501519101612367565b60005b8451811015610f8657610f8190836000526002602052610f7c6040600020610f75838961246b565b519061247f565b61232b565b610f4d565b50925060005b8351811015610fb957610fb490826000526003602052610f7c6040600020610f75838861246b565b610f8c565b506020913360005260088352610fd38260406000206124ac565b60018060a01b031660005260098252610ff08160406000206124ac565b60008052600a82526110068160406000206124ac565b60405160a435815260043590827f41612386090d3716f01a2fa2e0e5b436c89d4479f1bd27e2644fe2ebad825cfe853393a460018055604051908152f35b634e487b7160e01b600052604160045260246000fd5b60405162461bcd60e51b8152602060048201526015602482015274151bdad95b881d1c985b9cd9995c8819985a5b1959605a1b6044820152606490fd5b90506020813d6020116110c9575b816110b260209383611fef565b81010312610322576110c39061231e565b86610d8c565b3d91506110a5565b60405162461bcd60e51b815260206004820152601260248201527153657276696365206e6f742061637469766560701b6044820152606490fd5b60405162461bcd60e51b815260206004820152601160248201527014d95c9d9a58d9481b9bdd08199bdd5b99607a1b6044820152606490fd5b9450503d806000863e6111578186611fef565b610100858281010312610322578451906001600160a01b03821682036103225760208601516001600160401b03811161032257611199908288019088016122dc565b5060408601516001600160401b03811161032257818701601f82890101121561032257808701519060206111cc8361215f565b6111d96040519182611fef565b838152019083890160208460051b838c01010111610322576020818a0101915b60208460051b838c0101018310611243575050505061121a60a0870161231e565b9560c08101516001600160401b0381116103225761123b92820191016122dc565b509386610d30565b8251906001600160401b03821161032257602080929161126d8d838095888c8401930101016122dc565b81520193019290506111f9565b60405162461bcd60e51b815260206004820152601760248201527f496e7075742064617461205552492072657175697265640000000000000000006044820152606490fd5b60405162461bcd60e51b815260206004820152601a60248201527f446561646c696e65206d75737420626520696e206675747572650000000000006044820152606490fd5b60405162461bcd60e51b815260206004820152601760248201527f526577617264206d75737420626520706f7369746976650000000000000000006044820152606490fd5b60405162461bcd60e51b815260206004820152602260248201527f496e70757420746f6b656e20636f756e74206d75737420626520706f73697469604482015261766560f01b6064820152608490fd5b60405162461bcd60e51b815260206004820152601860248201527f4f7574707574206c616e677561676520726571756972656400000000000000006044820152606490fd5b60405162461bcd60e51b815260206004820152601760248201527f496e707574206c616e67756167652072657175697265640000000000000000006044820152606490fd5b60405162461bcd60e51b815260206004820152601560248201527414995c5d595cdd081d1e5c19481c995c5d5a5c9959605a1b6044820152606490fd5b346103225760403660031901126103225760043560078110156103225760243590600052600a6020526040600020805482101561032257602091610713916120cf565b346103225760203660031901126103225760043560009081526006602052604090208054600182015460028301546001600160a01b0392831693921691906114ed60038301612010565b906004830154926005810154946006820154600783015460ff16966008840161151590612010565b9161152260098601612010565b91600a86015497600b87015495600c88015497600d0161154190612010565b98604051809e81526020015260408d01528b6101c06060819201528c0161156791611f04565b9860808c015260a08b015260c08a01526007881015610505576115a06106ae976115af938b9a60e08c01528a82036101008c0152611f04565b908882036101208a0152611f04565b936101408701526101608601526101808501528382036101a0850152611f04565b3461032257602080600319360112610322576004356115f26007548210612540565b60005260038152604060002080546116098161215f565b916116176040519384611fef565b8183526000908152838120938084015b83831061163c57604051806106ae8782611f29565b600182819261164a89612010565b815201960192019194611627565b34610322576000366003190112610322576004546040516001600160a01b039091168152602090f35b346103225760003660031901126103225761169a612284565b600080546001600160a01b0319811682556001600160a01b03167f8be0079c531659141344cd1fd0a4f28419497f9722a3daafe3b4186f6b6457e08280a3005b34610322576000366003190112610322576020600754604051908152f35b34610322576020366003190112610322576004356117146124ea565b6117216007548210612540565b806000526006602052604060002061174660018060a01b036002830154163314612585565b600781019060ff825416600781101561050557806117dd5761079c600661177093015442106125c4565b805460ff19166001908117909155600052600a6020526117b0817fbbc70db1b6c7afd11e79c0fb0051300458f1a3acb8ee9789d9b6b26c61ad9bc76124ac565b33907fa74a28866064b16e695ebbf53f8b0f9aa0bb93885dbbcc373004f1a052cc4248600080a360018055005b60405162461bcd60e51b815260206004820152601c60248201527f52657175657374206e6f7420696e2063726561746564207374617465000000006044820152606490fd5b346103225760403660031901126103225760043561183e611f8b565b611846612284565b61184e6124ea565b61185b6007548310612540565b8160005260209160068352604060002091600783019060ff825416600781101561050557600503611b35571561195357505060048054825460059093015460405163a9059cbb60e01b81526001600160a01b039485169381019390935260248301529091839183916044918391600091165af190811561032e5760009161191e575b50156118ea575060018055005b6064906040519062461bcd60e51b82526004820152600d60248201526c1499599d5b990819985a5b1959609a1b6044820152fd5b90508181813d831161194c575b6119358183611fef565b81010312610322576119469061231e565b826118dd565b503d61192b565b916005819492940154611975606461196d600b5484612602565b048092612615565b60048054600285015460405163a9059cbb60e01b8082526001600160a01b03928316948201949094526024810194909452929086908290604490829060009088165af190811561032e57600091611b00575b5015611abb57600480546000805460405194855285166001600160a01b03169284019290925260248301949094529092859284926044928492165af190811561032e57600091611a6c575b509060008051602061271f83398151915293611a2f600a93612622565b611a3d60ff8254168761266e565b600460ff198254161790556004600052818352611a5e8560406000206124ac565b0154604051908152a26102db565b9190508282813d8311611ab4575b611a848183611fef565b810103126103225760008051602061271f83398151915293611a2f611aaa600a9461231e565b9293505093611a12565b503d611a7a565b60405162461bcd60e51b815260048101869052601760248201527f50726f7669646572207061796d656e74206661696c65640000000000000000006044820152606490fd5b90508581813d8311611b2e575b611b178183611fef565b8101031261032257611b289061231e565b886119c7565b503d611b0d565b60405162461bcd60e51b815260048101869052601460248201527314995c5d595cdd081b9bdd08191a5cdc1d5d195960621b6044820152606490fd5b34610322576020806003193601126103225760043590611b8f6124ea565b611b9c6007548310612540565b6000828152600682526040902080546001600160a01b0390811633148015611dc1575b8015611db4575b15611d7e576007820160ff81541660078110156105055780158015611d74575b15611d2f57611bf5908661266e565b600660ff198254161790556006600052600a8352611c178460406000206124ac565b808254163381148015611d22575b611c56575b847fee243f878b7fc2f54e934ca33783d4395d42bc07612e2bd4b8e0e178639f7a28600080a260018055005b6004805460059094015460405163a9059cbb60e01b81526001600160a01b03909316918301919091526024820152918391839116816000816044810103925af190811561032e57600091611ced575b5015611cb357808080611c2a565b6064906040519062461bcd60e51b825260048201526013602482015272151bdad95b881c995d1d5c9b8819985a5b1959606a1b6044820152fd5b90508181813d8311611d1b575b611d048183611fef565b8101031261032257611d159061231e565b83611ca5565b503d611cfa565b5081600054163314611c25565b60405162461bcd60e51b815260048101869052601e60248201527f43616e6e6f742063616e63656c20696e2063757272656e7420737461746500006044820152606490fd5b5060018114611be6565b60405162461bcd60e51b815260048101849052600e60248201526d139bdd08185d5d1a1bdc9a5e995960921b6044820152606490fd5b5080600054163314611bc6565b50338160028401541614611bbf565b3461032257602036600319011261032257600435611dec612284565b60148111611e25576020817f45610d581145924dd7090a5017e5f2b1d6f42213bb2e95707ff86846bbfcb1ca92600b55604051908152a1005b60405162461bcd60e51b815260206004820152600c60248201526b08ccaca40e8dede40d0d2ced60a31b6044820152606490fd5b346103225760208060031936011261032257600435611e7b6007548210612540565b6000526002815260406000208054611e928161215f565b91611ea06040519384611fef565b8183526000908152838120938084015b838310611ec557604051806106ae8782611f29565b6001828192611ed389612010565b815201960192019194611eb0565b60005b838110611ef45750506000910152565b8181015183820152602001611ee4565b90602091611f1d81518092818552858086019101611ee1565b601f01601f1916010190565b602080820190808352835180925260408301928160408460051b8301019501936000915b848310611f5d5750505050505090565b9091929394958480611f7b600193603f198682030187528a51611f04565b9801930193019194939290611f4d565b60243590811515820361032257565b90600182811c92168015611fca575b6020831014611fb457565b634e487b7160e01b600052602260045260246000fd5b91607f1691611fa9565b602081019081106001600160401b0382111761104457604052565b90601f801991011681019081106001600160401b0382111761104457604052565b906040519182600082549261202484611f9a565b9081845260019485811690816000146120935750600114612050575b505061204e92500383611fef565b565b9093915060005260209081600020936000915b81831061207b57505061204e93508201013880612040565b85548884018501529485019487945091830191612063565b91505061204e94506020925060ff191682840152151560051b8201013880612040565b600781101561050557600052600a602052604060002090565b80548210156120e75760005260206000200190600090565b634e487b7160e01b600052603260045260246000fd5b6001600160401b03811161104457601f01601f191660200190565b81601f820112156103225780359061212f826120fd565b9261213d6040519485611fef565b8284526020838301011161032257816000926020809301838601378301015290565b6001600160401b0381116110445760051b60200190565b9080601f830112156103225781359061218e8261215f565b9261219c6040519485611fef565b828452602092838086019160051b8301019280841161032257848301915b8483106121ca5750505050505090565b82356001600160401b0381116103225786916121eb84848094890101612118565b8152019201916121ba565b6040906003190112610322576004359060243590565b9061221d5761221a90612010565b90565b634e487b7160e01b600052600060045260246000fd5b600435906001600160a01b038216820361032257565b6020908160408183019282815285518094520193019160005b828110612270575050505090565b835185529381019392810192600101612262565b6000546001600160a01b0316330361229857565b606460405162461bcd60e51b815260206004820152602060248201527f4f776e61626c653a2063616c6c6572206973206e6f7420746865206f776e65726044820152fd5b81601f820112156103225780516122f2816120fd565b926123006040519485611fef565b818452602082840101116103225761221a9160208085019101611ee1565b5190811515820361032257565b600019811461233a5760010190565b634e487b7160e01b600052601160045260246000fd5b81811061235b575050565b60008155600101612350565b91909182516001600160401b038111611044576123848254611f9a565b601f811161242e575b50602080601f83116001146123ca5750819293946000926123bf575b50508160011b916000199060031b1c1916179055565b0151905038806123a9565b90601f198316958460005282600020926000905b888210612416575050836001959697106123fd575b505050811b019055565b015160001960f88460031b161c191690553880806123f3565b806001859682949686015181550195019301906123de565b61245b90836000526020600020601f840160051c81019160208510612461575b601f0160051c0190612350565b3861238d565b909150819061244e565b80518210156120e75760209160051b010190565b8054600160401b8110156110445761249c916001820181556120cf565b91909161221d5761204e91612367565b90815491600160401b83101561104457826124cf91600161204e950181556120cf565b90919082549060031b600019811b9283911b16911916179055565b6002600154146124fb576002600155565b60405162461bcd60e51b815260206004820152601f60248201527f5265656e7472616e637947756172643a207265656e7472616e742063616c6c006044820152606490fd5b1561254757565b60405162461bcd60e51b815260206004820152601660248201527514995c5d595cdd08191bd95cc81b9bdd08195e1a5cdd60521b6044820152606490fd5b1561258c57565b60405162461bcd60e51b815260206004820152601060248201526f2737ba103a343290383937bb34b232b960811b6044820152606490fd5b156125cb57565b60405162461bcd60e51b815260206004820152600f60248201526e14995c5d595cdd08195e1c1a5c9959608a1b6044820152606490fd5b8181029291811591840414171561233a57565b9190820391821161233a57565b1561262957565b60405162461bcd60e51b815260206004820152601c60248201527f506c6174666f726d20666565207472616e73666572206661696c6564000000006044820152606490fd5b90612678906120b6565b9060005b82548082101561271857829061269283866120cf565b929054600393841b1c146126b05750506126ab9061232b565b61267c565b909392506000199182820191821161233a576124cf6126d26126df93866120cf565b905490871b1c91856120cf565b81548015612702578101926126f484846120cf565b81939154921b1b1916905555565b634e487b7160e01b600052603160045260246000fd5b5050505056fe7e3d1c85338a9ee9187454178ea54ce1685e9d3e6295ea6d4f3e4393ca921862a2646970667358221220d399329c35a465535d38f3236b4a6f2a8ac00289f43eb659f9b42888200e065364736f6c63430008110033",
  "linkReferences": {},
  "deployedLinkReferences": {}
}