{
  "_format": "hh-sol-artifact-1",
  "contractName": "CultureToken",
  "sourceName": "src/contracts/CultureToken.sol",
  "abi": [
    {
      "inputs": [],
      "stateMutability": "nonpayable",
      "type": "constructor"
    },
    {
      "anonymous": false,
      "inputs": [
        {
          "indexed": true,
          "internalType": "address",
          "name": "owner",
          "type": "address"
        },
        {
          "indexed": true,
          "internalType": "address",
          "name": "spender",
          "type": "address"
        },
        {
          "indexed": false,
          "internalType": "uint256",
          "name": "value",
          "type": "uint256"
        }
      ],
      "name": "Approval",
      "type": "event"
    },
    {
      "anonymous": false,
      "inputs": [
        {
          "indexed": true,
          "internalType": "address",
          "name": "previousOwner",
          "type": "address"
        },
        {
          "indexed": true,
          "internalType": "address",
          "name": "newOwner",
          "type": "address"
        }
      ],
      "name": "OwnershipTransferred",
      "type": "event"
    },
    {
      "anonymous": false,
      "inputs": [
        {
          "indexed": false,
          "internalType": "address",
          "name": "account",
          "type": "address"
        }
      ],
      "name": "Paused",
      "type": "event"
    },
    {
      "anonymous": false,
      "inputs": [
        {
          "indexed": true,
          "internalType": "address",
          "name": "verifier",
          "type": "address"
        },
        {
          "indexed": false,
          "internalType": "uint256",
          "name": "amount",
          "type": "uint256"
        },
        {
          "indexed": false,
          "internalType": "bytes32",
          "name": "translationId",
          "type": "bytes32"
        }
      ],
      "name": "QualityVerificationRewarded",
      "type": "event"
    },
    {
      "anonymous": false,
      "inputs": [
        {
          "indexed": false,
          "internalType": "uint256",
          "name": "newRate",
          "type": "uint256"
        }
      ],
      "name": "RewardRateUpdated",
      "type": "event"
    },
    {
      "anonymous": false,
      "inputs": [
        {
          "indexed": false,
          "internalType": "uint256",
          "name": "amount",
          "type": "uint256"
        }
      ],
      "name": "TeamTokensReleased",
      "type": "event"
    },
    {
      "anonymous": false,
      "inputs": [
        {
          "indexed": true,
          "internalType": "address",
          "name": "from",
          "type": "address"
        },
        {
          "indexed": true,
          "internalType": "address",
          "name": "to",
          "type": "address"
        },
        {
          "indexed": false,
          "internalType": "uint256",
          "name": "value",
          "type": "uint256"
        }
      ],
      "name": "Transfer",
      "type": "event"
    },
    {
      "anonymous": false,
      "inputs": [
        {
          "indexed": true,
          "internalType": "address",
          "name": "translator",
          "type": "address"
        },
        {
          "indexed": false,
          "internalType": "uint256",
          "name": "amount",
          "type": "uint256"
        },
        {
          "indexed": false,
          "internalType": "bytes32",
          "name": "translationId",
          "type": "bytes32"
        }
      ],
      "name": "TranslationRewarded",
      "type": "event"
    },
    {
      "anonymous": false,
      "inputs": [
        {
          "indexed": false,
          "internalType": "address",
          "name": "account",
          "type": "address"
        }
      ],
      "name": "Unpaused",
      "type": "event"
    },
    {
      "inputs": [],
      "name": "COMMUNITY_ALLOCATION",
      "outputs": [
        {
          "internalType": "uint256",
          "name": "",
          "type": "uint256"
        }
      ],
      "stateMutability": "view",
      "type": "function"
    },
    {
      "inputs": [],
      "name": "ECOSYSTEM_ALLOCATION",
      "outputs": [
        {
          "internalType": "uint256",
          "name": "",
          "type": "uint256"
        }
      ],
      "stateMutability": "view",
      "type": "function"
    },
    {
      "inputs": [],
      "name": "INITIAL_SUPPLY",
      "outputs": [
        {
          "internalType": "uint256",
          "name": "",
          "type": "uint256"
        }
      ],
      "stateMutability": "view",
      "type": "function"
    },
    {
      "inputs": [],
      "name": "MAX_SUPPLY",
      "outputs": [
        {
          "internalType": "uint256",
          "name": "",
          "type": "uint256"
        }
      ],
      "stateMutability": "view",
      "type": "function"
    },
    {
      "inputs": [],
      "name": "REWARD_ADJUSTMENT_PERIOD",
      "outputs": [
        {
          "internalType": "uint256",
          "name": "",
          "type": "uint256"
        }
      ],
      "stateMutability": "view",
      "type": "function"
    },
    {
      "inputs": [],
      "name": "TEAM_ALLOCATION",
      "outputs": [
        {
          "internalType": "uint256",
          "name": "",
          "type": "uint256"
        }
      ],
      "stateMutability": "view",
      "type": "function"
    },
    {
      "inputs": [],
      "name": "TEAM_VESTING_DURATION",
      "outputs": [
        {
          "internalType": "uint256",
          "name": "",
          "type": "uint256"
        }
      ],
      "stateMutability": "view",
      "type": "function"
    },
    {
      "inputs": [
        {
          "internalType": "address",
          "name": "recipient",
          "type": "address"
        },
        {
          "internalType": "uint256",
          "name": "amount",
          "type": "uint256"
        }
      ],
      "name": "allocateCommunityRewards",
      "outputs": [],
      "stateMutability": "nonpayable",
      "type": "function"
    },
    {
      "inputs": [
        {
          "internalType": "address",
          "name": "recipient",
          "type": "address"
        },
        {
          "internalType": "uint256",
          "name": "amount",
          "type": "uint256"
        }
      ],
      "name": "allocateEcosystemTokens",
      "outputs": [],
      "stateMutability": "nonpayable",
      "type": "function"
    },
    {
      "inputs": [
        {
          "internalType": "address",
          "name": "owner",
          "type": "address"
        },
        {
          "internalType": "address",
          "name": "spender",
          "type": "address"
        }
      ],
      "name": "allowance",
      "outputs": [
        {
          "internalType": "uint256",
          "name": "",
          "type": "uint256"
        }
      ],
      "stateMutability": "view",
      "type": "function"
    },
    {
      "inputs": [
        {
          "internalType": "address",
          "name": "spender",
          "type": "address"
        },
        {
          "internalType": "uint256",
          "name": "amount",
          "type": "uint256"
        }
      ],
      "name": "approve",
      "outputs": [
        {
          "internalType": "bool",
          "name": "",
          "type": "bool"
        }
      ],
      "stateMutability": "nonpayable",
      "type": "function"
    },
    {
      "inputs": [
        {
          "internalType": "address",
          "name": "account",
          "type": "address"
        }
      ],
      "name": "balanceOf",
      "outputs": [
        {
          "internalType": "uint256",
          "name": "",
          "type": "uint256"
        }
      ],
      "stateMutability": "view",
      "type": "function"
    },
    {
      "inputs": [
        {
          "internalType": "uint256",
          "name": "amount",
          "type": "uint256"
        }
      ],
      "name": "burn",
      "outputs": [],
      "stateMutability": "nonpayable",
      "type": "function"
    },
    {
      "inputs": [],
      "name": "decimals",
      "outputs": [
        {
          "internalType": "uint8",
          "name": "",
          "type": "uint8"
        }
      ],
      "stateMutability": "view",
      "type": "function"
    },
    {
      "inputs": [
        {
          "internalType": "address",
          "name": "spender",
          "type": "address"
        },
        {
          "internalType": "uint256",
          "name": "subtractedValue",
          "type": "uint256"
        }
      ],
      "name": "decreaseAllowance",
      "outputs": [
        {
          "internalType": "bool",
          "name": "",
          "type": "bool"
        }
      ],
      "stateMutability": "nonpayable",
      "type": "function"
    },
    {
      "inputs": [
        {
          "internalType": "address",
          "name": "spender",
          "type": "address"
        },
        {
          "internalType": "uint256",
          "name": "addedValue",
          "type": "uint256"
        }
      ],
      "name": "increaseAllowance",
      "outputs": [
        {
          "internalType": "bool",
          "name": "",
          "type": "bool"
        }
      ],
      "stateMutability": "nonpayable",
      "type": "function"
    },
    {
      "inputs": [],
      "name": "lastRewardUpdate",
      "outputs": [
        {
          "internalType": "uint256",
          "name": "",
          "type": "uint256"
        }
      ],
      "stateMutability": "view",
      "type": "function"
    },
    {
      "inputs": [],
      "name": "name",
      "outputs": [
        {
          "internalType": "string",
          "name": "",
          "type": "string"
        }
      ],
      "stateMutability": "view",
      "type": "function"
    },
    {
      "inputs": [],
      "name": "owner",
      "outputs": [
        {
          "internalType": "address",
          "name": "",
          "type": "address"
        }
      ],
      "stateMutability": "view",
      "type": "function"
    },
    {
      "inputs": [],
      "name": "pause",
      "outputs": [],
      "stateMutability": "nonpayable",
      "type": "function"
    },
    {
      "inputs": [],
      "name": "paused",
      "outputs": [
        {
          "internalType": "bool",
          "name": "",
          "type": "bool"
        }
      ],
      "stateMutability": "view",
      "type": "function"
    },
    {
      "inputs": [
        {
          "internalType": "address",
          "name": "",
          "type": "address"
        }
      ],
      "name": "qualityVerifierRewards",
      "outputs": [
        {
          "internalType": "uint256",
          "name": "",
          "type": "uint256"
        }
      ],
      "stateMutability": "view",
      "type": "function"
    },
    {
      "inputs": [],
      "name": "releaseTeamTokens",
      "outputs": [],
      "stateMutability": "nonpayable",
      "type": "function"
    },
    {
      "inputs": [],
      "name": "renounceOwnership",
      "outputs": [],
      "stateMutability": "nonpayable",
      "type": "function"
    },
    {
      "inputs": [
        {
          "internalType": "address",
          "name": "verifier",
          "type": "address"
        },
        {
          "internalType": "uint256",
          "name": "amount",
          "type": "uint256"
        },
        {
          "internalType": "bytes32",
          "name": "translationId",
          "type": "bytes32"
        }
      ],
      "name": "rewardQualityVerifier",
      "outputs": [],
      "stateMutability": "nonpayable",
      "type": "function"
    },
    {
      "inputs": [
        {
          "internalType": "address",
          "name": "translator",
          "type": "address"
        },
        {
          "internalType": "uint256",
          "name": "translationUnits",
          "type": "uint256"
        },
        {
          "internalType": "bytes32",
          "name": "translationId",
          "type": "bytes32"
        }
      ],
      "name": "rewardTranslator",
      "outputs": [],
      "stateMutability": "nonpayable",
      "type": "function"
    },
    {
      "inputs": [],
      "name": "symbol",
      "outputs": [
        {
          "internalType": "string",
          "name": "",
          "type": "string"
        }
      ],
      "stateMutability": "view",
      "type": "function"
    },
    {
      "inputs": [],
      "name": "teamTokensReleased",
      "outputs": [
        {
          "internalType": "uint256",
          "name": "",
          "type": "uint256"
        }
      ],
      "stateMutability": "view",
      "type": "function"
    },
    {
      "inputs": [],
      "name": "teamVestingStart",
      "outputs": [
        {
          "internalType": "uint256",
          "name": "",
          "type": "uint256"
        }
      ],
      "stateMutability": "view",
      "type": "function"
    },
    {
      "inputs": [],
      "name": "totalSupply",
      "outputs": [
        {
          "internalType": "uint256",
          "name": "",
          "type": "uint256"
        }
      ],
      "stateMutability": "view",
      "type": "function"
    },
    {
      "inputs": [
        {
          "internalType": "address",
          "name": "to",
          "type": "address"
        },
        {
          "internalType": "uint256",
          "name": "amount",
          "type": "uint256"
        }
      ],
      "name": "transfer",
      "outputs": [
        {
          "internalType": "bool",
          "name": "",
          "type": "bool"
        }
      ],
      "stateMutability": "nonpayable",
      "type": "function"
    },
    {
      "inputs": [
        {
          "internalType": "address",
          "name": "from",
          "type": "address"
        },
        {
          "internalType": "address",
          "name": "to",
          "type": "address"
        },
        {
          "internalType": "uint256",
          "name": "amount",
          "type": "uint256"
        }
      ],
      "name": "transferFrom",
      "outputs": [
        {
          "internalType": "bool",
          "name": "",
          "type": "bool"
        }
      ],
      "stateMutability": "nonpayable",
      "type": "function"
    },
    {
      "inputs": [
        {
          "internalType": "address",
          "name": "newOwner",
          "type": "address"
        }
      ],
      "name": "transferOwnership",
      "outputs": [],
      "stateMutability": "nonpayable",
      "type": "function"
    },
    {
      "inputs": [],
      "name": "translationRewardRate",
      "outputs": [
        {
          "internalType": "uint256",
          "name": "",
          "type": "uint256"
        }
      ],
      "stateMutability": "view",
      "type": "function"
    },
    {
      "inputs": [],
      "name": "unpause",
      "outputs": [],
      "stateMutability": "nonpayable",
      "type": "function"
    },
    {
      "inputs": [
        {
          "internalType": "uint256",
          "name": "newRate",
          "type": "uint256"
        }
      ],
      "name": "updateRewardRate",
      "outputs": [],
      "stateMutability": "nonpayable",
      "type": "function"
    }
  ],
  "bytecode": "0x60803462000496576040906001600160401b03908083018281118282101762000480578352600c81526020906b21bab63a3ab932aa37b5b2b760a11b8282015283519084820182811085821117620004805785526004938483526310d5531560e21b848401528151928184116200046b576003908154946001948587811c9716801562000460575b888810146200044b578190601f97888111620003f5575b5088908883116001146200038e5760009262000382575b505060001982851b1c191690851b1782555b80519283116200036d5786548481811c9116801562000362575b878210146200034d5785811162000302575b50859085841160011462000297579383949184926000956200028b575b50501b92600019911b1c19161783555b600554845190336001600160a01b0382167f8be0079c531659141344cd1fd0a4f28419497f9722a3daafe3b4186f6b6457e0600080a36001600160a81b0319163360ff60a01b1981169190911760058190559290156200024c57505060a01c60ff1662000219576002546a52b7d2dcc80cd2e4000000928382018092116200020457506000917fddf252ad1be2c89b69c2b068fc378daa952ba7f163c4a11628f55a4df523b3ef9160025533835282815284832084815401905584519384523393a342600755678ac7230489e80000600855426009555161181490816200049c8239f35b601190634e487b7160e01b6000525260246000fd5b606492519162461bcd60e51b8352820152601060248201526f14185d5cd8589b194e881c185d5cd95960821b6044820152fd5b91509160649362461bcd60e51b845283015260248201527f45524332303a206d696e7420746f20746865207a65726f2061646472657373006044820152fd5b01519350388062000110565b9190601f198416928860005284886000209460005b8a89838310620002ea5750505010620002cf575b50505050811b01835562000120565b01519060f884600019921b161c1916905538808080620002c0565b868601518955909701969485019488935001620002ac565b87600052866000208680860160051c82019289871062000343575b0160051c019085905b82811062000336575050620000f3565b6000815501859062000326565b925081926200031d565b602288634e487b7160e01b6000525260246000fd5b90607f1690620000e1565b604187634e487b7160e01b6000525260246000fd5b015190503880620000b5565b90879350601f19831691866000528a6000209260005b8c828210620003de5750508411620003c5575b505050811b018255620000c7565b015160001983871b60f8161c19169055388080620003b7565b8385015186558b97909501949384019301620003a4565b90915084600052886000208880850160051c8201928b861062000441575b918991869594930160051c01915b828110620004315750506200009e565b6000815585945089910162000421565b9250819262000413565b602289634e487b7160e01b6000525260246000fd5b96607f169662000087565b604186634e487b7160e01b6000525260246000fd5b634e487b7160e01b600052604160045260246000fd5b600080fdfe608060408181526004918236101561001657600080fd5b600092833560e01c91826306fdde031461119757508163095ea7b31461116d5781630f39b1db1461114e57816314c411c714610ff157816318160ddd14610fd257816323b872dd14610f085781632ff2e9dc14610ee2578163313ce56714610ec657816332afc22514610d9a57816332cb6b0c14610d7357816335a2503914610c8557816336bc6f2914610b695781633950935114610b195781633f4ba83a14610a7d57816342966c681461095a5781635c975abb1461093357816370a08231146108fc578163715018a61461089f5781638456cb591461083e57816386d36f50146108205781638da5cb5b146107f757816390534f24146107d057816395d89b41146106b1578163993eb1c51461068a5781639ef3a261146105ca578163a3c2710d146105ab578163a457c2d714610503578163a9059cbb146104d2578163cd881742146104b3578163ce10440f14610368578163d15c087214610330578163dd62ed3e146102e7578163de7c2ed2146102c8578163ea7f9888146102a9578163f2fde38b146101d9575063fd99cbed146101b157600080fd5b346101d557816003193601126101d557602090516a7c13bc4b2c133c560000008152f35b5080fd5b9050346102a55760203660031901126102a5576101f46112b8565b906101fd611313565b6001600160a01b03918216928315610253575050600554826bffffffffffffffffffffffff60a01b821617600555167f8be0079c531659141344cd1fd0a4f28419497f9722a3daafe3b4186f6b6457e08380a380f35b906020608492519162461bcd60e51b8352820152602660248201527f4f776e61626c653a206e6577206f776e657220697320746865207a65726f206160448201526564647265737360d01b6064820152fd5b8280fd5b5050346101d557816003193601126101d5576020906007549051908152f35b5050346101d557816003193601126101d557602090516305a39a808152f35b5050346101d557806003193601126101d557806020926103056112b8565b61030d6112d3565b6001600160a01b0391821683526001865283832091168252845220549051908152f35b5050346101d55760203660031901126101d55760209181906001600160a01b036103586112b8565b168152600a845220549051908152f35b8383346101d557610378366112e9565b610383939293611313565b61038b611606565b6001600160a01b038416938415610470578215610422576008548084029384040361040f57906104018380936103fc6b033b2e3c9fd0803ce80000006103f57f33d802663282b18d6b6d788c72ac5653edddddfa25a2b7dd3073cc2ca72423a4999860025461136b565b111561164d565b61168e565b82519182526020820152a280f35b634e487b7160e01b865260118752602486fd5b835162461bcd60e51b8152602081890152602260248201527f5472616e736c6174696f6e20756e697473206d75737420626520706f73697469604482015261766560f01b6064820152608490fd5b835162461bcd60e51b8152602081890152601a60248201527f496e76616c6964207472616e736c61746f7220616464726573730000000000006044820152606490fd5b5050346101d557816003193601126101d5576020906006549051908152f35b5050346101d557806003193601126101d5576020906104fc6104f26112b8565b602435903361138e565b5160018152f35b905082346105a857826003193601126105a85761051e6112b8565b918360243592338152600160205281812060018060a01b0386168252602052205490828210610557576020856104fc8585038733611504565b608490602086519162461bcd60e51b8352820152602560248201527f45524332303a2064656372656173656420616c6c6f77616e63652062656c6f77604482015264207a65726f60d81b6064820152fd5b80fd5b5050346101d557816003193601126101d5576020906009549051908152f35b919050346102a55760203660031901126102a5578135916105e9611313565b60095462278d0081018091116106775742106106355750816020917f41d466ebd06fb97e7786086ac8b69b7eb7da798592036251291d34e9791cde01936008554260095551908152a180f35b6020606492519162461bcd60e51b8352820152601760248201527f546f6f20736f6f6e20746f2075706461746520726174650000000000000000006044820152fd5b634e487b7160e01b855260118252602485fd5b5050346101d557816003193601126101d557602090516b0121836204bc2ce21e0000008152f35b8383346101d557816003193601126101d557805190828454600181811c908083169283156107c6575b60209384841081146107b3578388529081156107975750600114610742575b505050829003601f01601f191682019267ffffffffffffffff84118385101761072f575082918261072b92528261126f565b0390f35b634e487b7160e01b815260418552602490fd5b8787529192508591837f8a35acfbc15ff81a39ae7d344fd709f28e8600b4aa8c65c6b64bfe7fe36bd19b5b83851061078357505050508301018580806106f9565b80548886018301529301928490820161076d565b60ff1916878501525050151560051b84010190508580806106f9565b634e487b7160e01b895260228a52602489fd5b91607f16916106da565b5050346101d557816003193601126101d557602090516b014adf4b7320334b900000008152f35b5050346101d557816003193601126101d55760055490516001600160a01b039091168152602090f35b5050346101d557816003193601126101d5576020905162278d008152f35b5050346101d557816003193601126101d55760207f62e78cea01bee320cd4e420270b5ea74000d11b0c9f74754ebdbfc544b05a2589161087c611313565b610884611606565b6005805460ff60a01b1916600160a01b17905551338152a180f35b83346105a857806003193601126105a8576108b8611313565b600580546001600160a01b0319811690915581906001600160a01b03167f8be0079c531659141344cd1fd0a4f28419497f9722a3daafe3b4186f6b6457e08280a380f35b5050346101d55760203660031901126101d55760209181906001600160a01b036109246112b8565b16815280845220549051908152f35b5050346101d557816003193601126101d55760209060ff60055460a01c1690519015158152f35b919050346102a55760209081600319360112610a795782359261097b611606565b3315610a2e57610989611606565b33855284835281852054908482106109e05750917fddf252ad1be2c89b69c2b068fc378daa952ba7f163c4a11628f55a4df523b3ef918486959433875286845203818620558360025403600255519283523392a380f35b825162461bcd60e51b8152908101849052602260248201527f45524332303a206275726e20616d6f756e7420657863656564732062616c616e604482015261636560f01b6064820152608490fd5b82608492519162461bcd60e51b8352820152602160248201527f45524332303a206275726e2066726f6d20746865207a65726f206164647265736044820152607360f81b6064820152fd5b8380fd5b9050346102a557826003193601126102a557610a97611313565b6005549060ff8260a01c1615610adf575060ff60a01b1916600555513381527f5db9ee0a495bf2e6ff9c91a7834c1ba4fdd244a5e8aa4e537bd38aeae4b073aa90602090a180f35b606490602084519162461bcd60e51b8352820152601460248201527314185d5cd8589b194e881b9bdd081c185d5cd95960621b6044820152fd5b5050346101d557806003193601126101d5576104fc602092610b62610b3c6112b8565b338352600186528483206001600160a01b0382168452865291849020546024359061136b565b9033611504565b839150346101d557826003193601126101d557610b846112b8565b60243591610b90611313565b610b98611606565b610bac6001600160a01b0383161515611746565b610bb7831515611792565b600254906a52b7d2dcc80cd2e3ffffff198201828111610c7257610c0785610c026b0121836204bc2ce21e00000093610bfc600654610bf68184611739565b92611739565b90611739565b61136b565b11610c2f5750906103fc6b033b2e3c9fd0803ce80000006103f585610c2c969561136b565b80f35b606490602087519162461bcd60e51b8352820152601c60248201527f4578636565647320636f6d6d756e69747920616c6c6f636174696f6e000000006044820152fd5b634e487b7160e01b865260118252602486fd5b839150346101d557826003193601126101d557610ca06112b8565b60243591610cac611313565b610cb4611606565b610cc86001600160a01b0383161515611746565b610cd3831515611792565b600254906a52b7d2dcc80cd2e3ffffff198201828111610c7257610d0b85610c026b014adf4b7320334b900000009360065490611739565b11610d305750906103fc6b033b2e3c9fd0803ce80000006103f585610c2c969561136b565b606490602087519162461bcd60e51b8352820152601c60248201527f457863656564732065636f73797374656d20616c6c6f636174696f6e000000006044820152fd5b5050346101d557816003193601126101d557602090516b033b2e3c9fd0803ce80000008152f35b839150346101d557610dab366112e9565b610db6959295611313565b610dbe611606565b6001600160a01b038616938415610e83578215610e405750610e1a827f72fe849f14f8221173974fc4f0b090f2b0d468f33086e6f1c8d9237343628ab69596976103fc6b033b2e3c9fd0803ce80000006103f58460025461136b565b848652600a602052828620610e3083825461136b565b905582519182526020820152a280f35b606490602085519162461bcd60e51b8352820152601e60248201527f52657761726420616d6f756e74206d75737420626520706f73697469766500006044820152fd5b606490602085519162461bcd60e51b8352820152601860248201527f496e76616c6964207665726966696572206164647265737300000000000000006044820152fd5b5050346101d557816003193601126101d5576020905160128152f35b5050346101d557816003193601126101d557602090516a52b7d2dcc80cd2e40000008152f35b839150346101d55760603660031901126101d557610f246112b8565b610f2c6112d3565b91846044359460018060a01b038416815260016020528181203382526020522054906000198203610f66575b6020866104fc87878761138e565b848210610f8f5750918391610f84602096956104fc95033383611504565b919394819350610f58565b606490602087519162461bcd60e51b8352820152601d60248201527f45524332303a20696e73756666696369656e7420616c6c6f77616e63650000006044820152fd5b5050346101d557816003193601126101d5576020906002549051908152f35b919050346102a557826003193601126102a55761100c611313565b61101860075442611739565b8015611115576305a39a80908181106110e45750506a7c13bc4b2c133c560000005b6110476006548092611739565b9283156110aa575091602091611095827f4856c68262aaf0ccd29dbcbf45f154ee742d5b1ee2afac2ca5606a9b656cd25695610c026b033b2e3c9fd0803ce80000006103f58460025461136b565b6006556110a2823361168e565b51908152a180f35b606490602084519162461bcd60e51b835282015260146024820152734e6f20746f6b656e7320746f2072656c6561736560601b6044820152fd5b6a7c13bc4b2c133c560000009080820291820403611102570461103a565b634e487b7160e01b855260118452602485fd5b815162461bcd60e51b8152602081850152601360248201527215995cdd1a5b99c81b9bdd081cdd185c9d1959606a1b6044820152606490fd5b5050346101d557816003193601126101d5576020906008549051908152f35b5050346101d557806003193601126101d5576020906104fc61118d6112b8565b6024359033611504565b849084346102a557826003193601126102a55782600354600181811c90808316928315611265575b60209384841081146107b357838852908115610797575060011461120f57505050829003601f01601f191682019267ffffffffffffffff84118385101761072f575082918261072b92528261126f565b600387529192508591837fc2575a0e9e593c00f959f8c92f12db2869c3395a3b0502d05e2516446f71f85b5b83851061125157505050508301018580806106f9565b80548886018301529301928490820161123b565b91607f16916111bf565b6020808252825181830181905290939260005b8281106112a457505060409293506000838284010152601f8019910116010190565b818101860151848201604001528501611282565b600435906001600160a01b03821682036112ce57565b600080fd5b602435906001600160a01b03821682036112ce57565b60609060031901126112ce576004356001600160a01b03811681036112ce57906024359060443590565b6005546001600160a01b0316330361132757565b606460405162461bcd60e51b815260206004820152602060248201527f4f776e61626c653a2063616c6c6572206973206e6f7420746865206f776e65726044820152fd5b9190820180921161137857565b634e487b7160e01b600052601160045260246000fd5b6001600160a01b039081169182156114b15716918215611460576113b0611606565b60008281528060205260408120549180831061140c57604082827fddf252ad1be2c89b69c2b068fc378daa952ba7f163c4a11628f55a4df523b3ef958760209652828652038282205586815220818154019055604051908152a3565b60405162461bcd60e51b815260206004820152602660248201527f45524332303a207472616e7366657220616d6f756e7420657863656564732062604482015265616c616e636560d01b6064820152608490fd5b60405162461bcd60e51b815260206004820152602360248201527f45524332303a207472616e7366657220746f20746865207a65726f206164647260448201526265737360e81b6064820152608490fd5b60405162461bcd60e51b815260206004820152602560248201527f45524332303a207472616e736665722066726f6d20746865207a65726f206164604482015264647265737360d81b6064820152608490fd5b6001600160a01b039081169182156115b557169182156115655760207f8c5be1e5ebec7d5bd14f71427d1e84f3dd0314c0f7b2291e5b200ac8c7c3b925918360005260018252604060002085600052825280604060002055604051908152a3565b60405162461bcd60e51b815260206004820152602260248201527f45524332303a20617070726f766520746f20746865207a65726f206164647265604482015261737360f01b6064820152608490fd5b60405162461bcd60e51b8152602060048201526024808201527f45524332303a20617070726f76652066726f6d20746865207a65726f206164646044820152637265737360e01b6064820152608490fd5b60ff60055460a01c1661161557565b60405162461bcd60e51b815260206004820152601060248201526f14185d5cd8589b194e881c185d5cd95960821b6044820152606490fd5b1561165457565b60405162461bcd60e51b815260206004820152601260248201527145786365656473206d617820737570706c7960701b6044820152606490fd5b6001600160a01b03169081156116f4577fddf252ad1be2c89b69c2b068fc378daa952ba7f163c4a11628f55a4df523b3ef60206000926116cc611606565b6116d88160025461136b565b60025584845283825260408420818154019055604051908152a3565b60405162461bcd60e51b815260206004820152601f60248201527f45524332303a206d696e7420746f20746865207a65726f2061646472657373006044820152606490fd5b9190820391821161137857565b1561174d57565b60405162461bcd60e51b815260206004820152601960248201527f496e76616c696420726563697069656e742061646472657373000000000000006044820152606490fd5b1561179957565b60405162461bcd60e51b815260206004820152601760248201527f416d6f756e74206d75737420626520706f7369746976650000000000000000006044820152606490fdfea2646970667358221220d80f7251c26dc2b3f3f429405a50de6cc3869b226a9b428f370b4a3627e9ab5864736f6c63430008110033",
  "linkReferences": {},
  "deployedLinkReferences": {}
}