{
  "_format": "hh-sol-artifact-1",
  "contractName": "AIRegistry",
  "sourceName": "src/contracts/AIRegistry.sol",
  "abi": [
    {
      "inputs": [],
      "stateMutability": "nonpayable",
      "type": "constructor"
    },
    {
      "anonymous": false,
      "inputs": [
        {
          "indexed": false,
          "internalType": "address",
          "name": "account",
          "type": "address"
        }
      ],
      "name": "Paused",
      "type": "event"
    },
    {
      "anonymous": false,
      "inputs": [
        {
          "indexed": true,
          "internalType": "uint256",
          "name": "serviceId",
          "type": "uint256"
        },
        {
          "indexed": false,
          "internalType": "uint256",
          "name": "newScore",
          "type": "uint256"
        }
      ],
      "name": "PerformanceScoreUpdated",
      "type": "event"
    },
    {
      "anonymous": false,
      "inputs": [
        {
          "indexed": true,
          "internalType": "address",
          "name": "provider",
          "type": "address"
        }
      ],
      "name": "ProviderBlacklisted",
      "type": "event"
    },
    {
      "anonymous": false,
      "inputs": [
        {
          "indexed": true,
          "internalType": "address",
          "name": "provider",
          "type": "address"
        }
      ],
      "name": "ProviderRemovedFromBlacklist",
      "type": "event"
    },
    {
      "anonymous": false,
      "inputs": [
        {
          "indexed": true,
          "internalType": "address",
          "name": "provider",
          "type": "address"
        }
      ],
      "name": "ProviderRemovedFromWhitelist",
      "type": "event"
    },
    {
      "anonymous": false,
      "inputs": [
        {
          "indexed": true,
          "internalType": "address",
          "name": "provider",
          "type": "address"
        }
      ],
      "name": "ProviderWhitelisted",
      "type": "event"
    },
    {
      "anonymous": false,
      "inputs": [
        {
          "indexed": true,
          "internalType": "address",
          "name": "provider",
          "type": "address"
        },
        {
          "indexed": false,
          "internalType": "uint256",
          "name": "newScore",
          "type": "uint256"
        }
      ],
      "name": "ReputationScoreUpdated",
      "type": "event"
    },
    {
      "anonymous": false,
      "inputs": [
        {
          "indexed": true,
          "internalType": "bytes32",
          "name": "role",
          "type": "bytes32"
        },
        {
          "indexed": true,
          "internalType": "bytes32",
          "name": "previousAdminRole",
          "type": "bytes32"
        },
        {
          "indexed": true,
          "internalType": "bytes32",
          "name": "newAdminRole",
          "type": "bytes32"
        }
      ],
      "name": "RoleAdminChanged",
      "type": "event"
    },
    {
      "anonymous": false,
      "inputs": [
        {
          "indexed": true,
          "internalType": "bytes32",
          "name": "role",
          "type": "bytes32"
        },
        {
          "indexed": true,
          "internalType": "address",
          "name": "account",
          "type": "address"
        },
        {
          "indexed": true,
          "internalType": "address",
          "name": "sender",
          "type": "address"
        }
      ],
      "name": "RoleGranted",
      "type": "event"
    },
    {
      "anonymous": false,
      "inputs": [
        {
          "indexed": true,
          "internalType": "bytes32",
          "name": "role",
          "type": "bytes32"
        },
        {
          "indexed": true,
          "internalType": "address",
          "name": "account",
          "type": "address"
        },
        {
          "indexed": true,
          "internalType": "address",
          "name": "sender",
          "type": "address"
        }
      ],
      "name": "RoleRevoked",
      "type": "event"
    },
    {
      "anonymous": false,
      "inputs": [
        {
          "indexed": true,
          "internalType": "uint256",
          "name": "serviceId",
          "type": "uint256"
        },
        {
          "indexed": true,
          "internalType": "address",
          "name": "provider",
          "type": "address"
        },
        {
          "indexed": false,
          "internalType": "string",
          "name": "serviceType",
          "type": "string"
        },
        {
          "indexed": false,
          "internalType": "enum AIRegistry.ServiceStatus",
          "name": "status",
          "type": "uint8"
        }
      ],
      "name": "ServiceRegistered",
      "type": "event"
    },
    {
      "anonymous": false,
      "inputs": [
        {
          "indexed": true,
          "internalType": "uint256",
          "name": "serviceId",
          "type": "uint256"
        },
        {
          "indexed": true,
          "internalType": "address",
          "name": "reviewer",
          "type": "address"
        },
        {
          "indexed": false,
          "internalType": "enum AIRegistry.ServiceStatus",
          "name": "decision",
          "type": "uint8"
        },
        {
          "indexed": false,
          "internalType": "string",
          "name": "comment",
          "type": "string"
        }
      ],
      "name": "ServiceReviewed",
      "type": "event"
    },
    {
      "anonymous": false,
      "inputs": [
        {
          "indexed": true,
          "internalType": "uint256",
          "name": "serviceId",
          "type": "uint256"
        },
        {
          "indexed": true,
          "internalType": "address",
          "name": "provider",
          "type": "address"
        },
        {
          "indexed": false,
          "internalType": "enum AIRegistry.ServiceStatus",
          "name": "newStatus",
          "type": "uint8"
        }
      ],
      "name": "ServiceStatusChanged",
      "type": "event"
    },
    {
      "anonymous": false,
      "inputs": [
        {
          "indexed": true,
          "internalType": "uint256",
          "name": "serviceId",
          "type": "uint256"
        },
        {
          "indexed": true,
          "internalType": "address",
          "name": "provider",
          "type": "address"
        }
      ],
      "name": "ServiceUpdated",
      "type": "event"
    },
    {
      "anonymous": false,
      "inputs": [
        {
          "indexed": false,
          "internalType": "address",
          "name": "account",
          "type": "address"
        }
      ],
      "name": "Unpaused",
      "type": "event"
    },
    {
      "anonymous": false,
      "inputs": [
        {
          "indexed": false,
          "internalType": "bool",
          "name": "required",
          "type": "bool"
        }
      ],
      "name": "WhitelistRequirementChanged",
      "type": "event"
    },
    {
      "inputs": [],
      "name": "ADMIN_ROLE",
      "outputs": [
        {
          "internalType": "bytes32",
          "name": "",
          "type": "bytes32"
        }
      ],
      "stateMutability": "view",
      "type": "function"
    },
    {
      "inputs": [],
      "name": "DEFAULT_ADMIN_ROLE",
      "outputs": [
        {
          "internalType": "bytes32",
          "name": "",
          "type": "bytes32"
        }
      ],
      "stateMutability": "view",
      "type": "function"
    },
    {
      "inputs": [],
      "name": "PROVIDER_ROLE",
      "outputs": [
        {
          "internalType": "bytes32",
          "name": "",
          "type": "bytes32"
        }
      ],
      "stateMutability": "view",
      "type": "function"
    },
    {
      "inputs": [],
      "name": "REVIEWER_ROLE",
      "outputs": [
        {
          "internalType": "bytes32",
          "name": "",
          "type": "bytes32"
        }
      ],
      "stateMutability": "view",
      "type": "function"
    },
    {
      "inputs": [
        {
          "internalType": "address",
          "name": "admin",
          "type": "address"
        }
      ],
      "name": "addAdmin",
      "outputs": [],
      "stateMutability": "nonpayable",
      "type": "function"
    },
    {
      "inputs": [
        {
          "internalType": "address",
          "name": "reviewer",
          "type": "address"
        }
      ],
      "name": "addReviewer",
      "outputs": [],
      "stateMutability": "nonpayable",
      "type": "function"
    },
    {
      "inputs": [
        {
          "internalType": "address",
          "name": "",
          "type": "address"
        }
      ],
      "name": "blacklist",
      "outputs": [
        {
          "internalType": "bool",
          "name": "",
          "type": "bool"
        }
      ],
      "stateMutability": "view",
      "type": "function"
    },
    {
      "inputs": [
        {
          "internalType": "address",
          "name": "provider",
          "type": "address"
        }
      ],
      "name": "blacklistProvider",
      "outputs": [],
      "stateMutability": "nonpayable",
      "type": "function"
    },
    {
      "inputs": [
        {
          "internalType": "string",
          "name": "serviceType",
          "type": "string"
        },
        {
          "internalType": "string",
          "name": "language",
          "type": "string"
        },
        {
          "internalType": "uint256",
          "name": "maxPrice",
          "type": "uint256"
        },
        {
          "internalType": "uint256",
          "name": "minScore",
          "type": "uint256"
        }
      ],
      "name": "findServices",
      "outputs": [
        {
          "internalType": "uint256[]",
          "name": "",
          "type": "uint256[]"
        }
      ],
      "stateMutability": "view",
      "type": "function"
    },
    {
      "inputs": [],
      "name": "getApprovedServices",
      "outputs": [
        {
          "internalType": "uint256[]",
          "name": "",
          "type": "uint256[]"
        }
      ],
      "stateMutability": "view",
      "type": "function"
    },
    {
      "inputs": [],
      "name": "getPendingServices",
      "outputs": [
        {
          "internalType": "uint256[]",
          "name": "",
          "type": "uint256[]"
        }
      ],
      "stateMutability": "view",
      "type": "function"
    },
    {
      "inputs": [
        {
          "internalType": "address",
          "name": "provider",
          "type": "address"
        }
      ],
      "name": "getProviderServices",
      "outputs": [
        {
          "internalType": "uint256[]",
          "name": "",
          "type": "uint256[]"
        }
      ],
      "stateMutability": "view",
      "type": "function"
    },
    {
      "inputs": [],
      "name": "getRejectedServices",
      "outputs": [
        {
          "internalType": "uint256[]",
          "name": "",
          "type": "uint256[]"
        }
      ],
      "stateMutability": "view",
      "type": "function"
    },
    {
      "inputs": [
        {
          "internalType": "bytes32",
          "name": "role",
          "type": "bytes32"
        }
      ],
      "name": "getRoleAdmin",
      "outputs": [
        {
          "internalType": "bytes32",
          "name": "",
          "type": "bytes32"
        }
      ],
      "stateMutability": "view",
      "type": "function"
    },
    {
      "inputs": [
        {
          "internalType": "uint256",
          "name": "serviceId",
          "type": "uint256"
        }
      ],
      "name": "getServiceReviewHistory",
      "outputs": [
        {
          "components": [
            {
              "internalType": "uint256",
              "name": "serviceId",
              "type": "uint256"
            },
            {
              "internalType": "address",
              "name": "reviewer",
              "type": "address"
            },
            {
              "internalType": "enum AIRegistry.ServiceStatus",
              "name": "decision",
              "type": "uint8"
            },
            {
              "internalType": "string",
              "name": "comment",
              "type": "string"
            },
            {
              "internalType": "uint256",
              "name": "timestamp",
              "type": "uint256"
            }
          ],
          "internalType": "struct AIRegistry.ReviewRecord[]",
          "name": "",
          "type": "tuple[]"
        }
      ],
      "stateMutability": "view",
      "type": "function"
    },
    {
      "inputs": [
        {
          "internalType": "string",
          "name": "language",
          "type": "string"
        }
      ],
      "name": "getServicesByLanguage",
      "outputs": [
        {
          "internalType": "uint256[]",
          "name": "",
          "type": "uint256[]"
        }
      ],
      "stateMutability": "view",
      "type": "function"
    },
    {
      "inputs": [
        {
          "internalType": "string",
          "name": "serviceType",
          "type": "string"
        }
      ],
      "name": "getServicesByType",
      "outputs": [
        {
          "internalType": "uint256[]",
          "name": "",
          "type": "uint256[]"
        }
      ],
      "stateMutability": "view",
      "type": "function"
    },
    {
      "inputs": [],
      "name": "getSuspendedServices",
      "outputs": [
        {
          "internalType": "uint256[]",
          "name": "",
          "type": "uint256[]"
        }
      ],
      "stateMutability": "view",
      "type": "function"
    },
    {
      "inputs": [
        {
          "internalType": "bytes32",
          "name": "role",
          "type": "bytes32"
        },
        {
          "internalType": "address",
          "name": "account",
          "type": "address"
        }
      ],
      "name": "grantRole",
      "outputs": [],
      "stateMutability": "nonpayable",
      "type": "function"
    },
    {
      "inputs": [
        {
          "internalType": "bytes32",
          "name": "role",
          "type": "bytes32"
        },
        {
          "internalType": "address",
          "name": "account",
          "type": "address"
        }
      ],
      "name": "hasRole",
      "outputs": [
        {
          "internalType": "bool",
          "name": "",
          "type": "bool"
        }
      ],
      "stateMutability": "view",
      "type": "function"
    },
    {
      "inputs": [
        {
          "internalType": "string",
          "name": "",
          "type": "string"
        },
        {
          "internalType": "uint256",
          "name": "",
          "type": "uint256"
        }
      ],
      "name": "languageIndex",
      "outputs": [
        {
          "internalType": "uint256",
          "name": "",
          "type": "uint256"
        }
      ],
      "stateMutability": "view",
      "type": "function"
    },
    {
      "inputs": [],
      "name": "pause",
      "outputs": [],
      "stateMutability": "nonpayable",
      "type": "function"
    },
    {
      "inputs": [],
      "name": "paused",
      "outputs": [
        {
          "internalType": "bool",
          "name": "",
          "type": "bool"
        }
      ],
      "stateMutability": "view",
      "type": "function"
    },
    {
      "inputs": [
        {
          "internalType": "address",
          "name": "",
          "type": "address"
        },
        {
          "internalType": "uint256",
          "name": "",
          "type": "uint256"
        }
      ],
      "name": "providerServices",
      "outputs": [
        {
          "internalType": "uint256",
          "name": "",
          "type": "uint256"
        }
      ],
      "stateMutability": "view",
      "type": "function"
    },
    {
      "inputs": [
        {
          "internalType": "uint256",
          "name": "serviceId",
          "type": "uint256"
        }
      ],
      "name": "reactivateService",
      "outputs": [],
      "stateMutability": "nonpayable",
      "type": "function"
    },
    {
      "inputs": [
        {
          "internalType": "string",
          "name": "serviceType",
          "type": "string"
        },
        {
          "internalType": "string[]",
          "name": "languages",
          "type": "string[]"
        },
        {
          "internalType": "uint256",
          "name": "pricePerToken",
          "type": "uint256"
        },
        {
          "internalType": "string",
          "name": "metadataURI",
          "type": "string"
        }
      ],
      "name": "registerService",
      "outputs": [
        {
          "internalType": "uint256",
          "name": "",
          "type": "uint256"
        }
      ],
      "stateMutability": "nonpayable",
      "type": "function"
    },
    {
      "inputs": [
        {
          "internalType": "address",
          "name": "admin",
          "type": "address"
        }
      ],
      "name": "removeAdmin",
      "outputs": [],
      "stateMutability": "nonpayable",
      "type": "function"
    },
    {
      "inputs": [
        {
          "internalType": "address",
          "name": "provider",
          "type": "address"
        }
      ],
      "name": "removeFromBlacklist",
      "outputs": [],
      "stateMutability": "nonpayable",
      "type": "function"
    },
    {
      "inputs": [
        {
          "internalType": "address",
          "name": "provider",
          "type": "address"
        }
      ],
      "name": "removeFromWhitelist",
      "outputs": [],
      "stateMutability": "nonpayable",
      "type": "function"
    },
    {
      "inputs": [
        {
          "internalType": "address",
          "name": "reviewer",
          "type": "address"
        }
      ],
      "name": "removeReviewer",
      "outputs": [],
      "stateMutability": "nonpayable",
      "type": "function"
    },
    {
      "inputs": [
        {
          "internalType": "bytes32",
          "name": "role",
          "type": "bytes32"
        },
        {
          "internalType": "address",
          "name": "account",
          "type": "address"
        }
      ],
      "name": "renounceRole",
      "outputs": [],
      "stateMutability": "nonpayable",
      "type": "function"
    },
    {
      "inputs": [
        {
          "internalType": "uint256",
          "name": "serviceId",
          "type": "uint256"
        },
        {
          "internalType": "bool",
          "name": "approve",
          "type": "bool"
        },
        {
          "internalType": "string",
          "name": "comment",
          "type": "string"
        }
      ],
      "name": "reviewService",
      "outputs": [],
      "stateMutability": "nonpayable",
      "type": "function"
    },
    {
      "inputs": [
        {
          "internalType": "bytes32",
          "name": "role",
          "type": "bytes32"
        },
        {
          "internalType": "address",
          "name": "account",
          "type": "address"
        }
      ],
      "name": "revokeRole",
      "outputs": [],
      "stateMutability": "nonpayable",
      "type": "function"
    },
    {
      "inputs": [],
      "name": "serviceCount",
      "outputs": [
        {
          "internalType": "uint256",
          "name": "",
          "type": "uint256"
        }
      ],
      "stateMutability": "view",
      "type": "function"
    },
    {
      "inputs": [
        {
          "internalType": "uint256",
          "name": "",
          "type": "uint256"
        },
        {
          "internalType": "uint256",
          "name": "",
          "type": "uint256"
        }
      ],
      "name": "serviceReviews",
      "outputs": [
        {
          "internalType": "uint256",
          "name": "serviceId",
          "type": "uint256"
        },
        {
          "internalType": "address",
          "name": "reviewer",
          "type": "address"
        },
        {
          "internalType": "enum AIRegistry.ServiceStatus",
          "name": "decision",
          "type": "uint8"
        },
        {
          "internalType": "string",
          "name": "comment",
          "type": "string"
        },
        {
          "internalType": "uint256",
          "name": "timestamp",
          "type": "uint256"
        }
      ],
      "stateMutability": "view",
      "type": "function"
    },
    {
      "inputs": [
        {
          "internalType": "string",
          "name": "",
          "type": "string"
        },
        {
          "internalType": "uint256",
          "name": "",
          "type": "uint256"
        }
      ],
      "name": "serviceTypeIndex",
      "outputs": [
        {
          "internalType": "uint256",
          "name": "",
          "type": "uint256"
        }
      ],
      "stateMutability": "view",
      "type": "function"
    },
    {
      "inputs": [
        {
          "internalType": "uint256",
          "name": "",
          "type": "uint256"
        }
      ],
      "name": "services",
      "outputs": [
        {
          "internalType": "address",
          "name": "provider",
          "type": "address"
        },
        {
          "internalType": "string",
          "name": "serviceType",
          "type": "string"
        },
        {
          "internalType": "uint256",
          "name": "performanceScore",
          "type": "uint256"
        },
        {
          "internalType": "uint256",
          "name": "pricePerToken",
          "type": "uint256"
        },
        {
          "internalType": "enum AIRegistry.ServiceStatus",
          "name": "status",
          "type": "uint8"
        },
        {
          "internalType": "string",
          "name": "metadataURI",
          "type": "string"
        },
        {
          "internalType": "uint256",
          "name": "reputationScore",
          "type": "uint256"
        },
        {
          "internalType": "uint256",
          "name": "registrationTime",
          "type": "uint256"
        },
        {
          "internalType": "uint256",
          "name": "lastUpdateTime",
          "type": "uint256"
        },
        {
          "internalType": "string",
          "name": "rejectionReason",
          "type": "string"
        }
      ],
      "stateMutability": "view",
      "type": "function"
    },
    {
      "inputs": [
        {
          "internalType": "bool",
          "name": "required",
          "type": "bool"
        }
      ],
      "name": "setWhitelistRequired",
      "outputs": [],
      "stateMutability": "nonpayable",
      "type": "function"
    },
    {
      "inputs": [
        {
          "internalType": "enum AIRegistry.ServiceStatus",
          "name": "",
          "type": "uint8"
        },
        {
          "internalType": "uint256",
          "name": "",
          "type": "uint256"
        }
      ],
      "name": "statusIndex",
      "outputs": [
        {
          "internalType": "uint256",
          "name": "",
          "type": "uint256"
        }
      ],
      "stateMutability": "view",
      "type": "function"
    },
    {
      "inputs": [
        {
          "internalType": "bytes4",
          "name": "interfaceId",
          "type": "bytes4"
        }
      ],
      "name": "supportsInterface",
      "outputs": [
        {
          "internalType": "bool",
          "name": "",
          "type": "bool"
        }
      ],
      "stateMutability": "view",
      "type": "function"
    },
    {
      "inputs": [
        {
          "internalType": "uint256",
          "name": "serviceId",
          "type": "uint256"
        }
      ],
      "name": "suspendService",
      "outputs": [],
      "stateMutability": "nonpayable",
      "type": "function"
    },
    {
      "inputs": [],
      "name": "unpause",
      "outputs": [],
      "stateMutability": "nonpayable",
      "type": "function"
    },
    {
      "inputs": [
        {
          "internalType": "uint256",
          "name": "serviceId",
          "type": "uint256"
        },
        {
          "internalType": "uint256",
          "name": "newScore",
          "type": "uint256"
        }
      ],
      "name": "updatePerformanceScore",
      "outputs": [],
      "stateMutability": "nonpayable",
      "type": "function"
    },
    {
      "inputs": [
        {
          "internalType": "address",
          "name": "provider",
          "type": "address"
        },
        {
          "internalType": "uint256",
          "name": "newScore",
          "type": "uint256"
        }
      ],
      "name": "updateReputationScore",
      "outputs": [],
      "stateMutability": "nonpayable",
      "type": "function"
    },
    {
      "inputs": [
        {
          "internalType": "uint256",
          "name": "serviceId",
          "type": "uint256"
        },
        {
          "internalType": "string",
          "name": "serviceType",
          "type": "string"
        },
        {
          "internalType": "string[]",
          "name": "languages",
          "type": "string[]"
        },
        {
          "internalType": "uint256",
          "name": "pricePerToken",
          "type": "uint256"
        },
        {
          "internalType": "string",
          "name": "metadataURI",
          "type": "string"
        }
      ],
      "name": "updateService",
      "outputs": [],
      "stateMutability": "nonpayable",
      "type": "function"
    },
    {
      "inputs": [
        {
          "internalType": "address",
          "name": "",
          "type": "address"
        }
      ],
      "name": "whitelist",
      "outputs": [
        {
          "internalType": "bool",
          "name": "",
          "type": "bool"
        }
      ],
      "stateMutability": "view",
      "type": "function"
    },
    {
      "inputs": [
        {
          "internalType": "address",
          "name": "provider",
          "type": "address"
        }
      ],
      "name": "whitelistProvider",
      "outputs": [],
      "stateMutability": "nonpayable",
      "type": "function"
    },
    {
      "inputs": [],
      "name": "whitelistRequired",
      "outputs": [
        {
          "internalType": "bool",
          "name": "",
          "type": "bool"
        }
      ],
      "stateMutability": "view",
      "type": "function"
    }
  ],
  "bytecode": "0x6080604081815234620001065760ff199081600154166001556001600255600090818052602090828252808320338452825260ff818420541615620000d0575b7fa49807205ce4d355092ef5a8a18f56e8913cf4a201fbe287825b095693c2177591828452838152818420338552815260ff82852054161562000097575b505050600455600c5416600c5561432490816200010c8239f35b8284528381528184209033855252822060018482541617905533903390600080516020620044308339815191528480a43880806200007d565b8280528282528083203384528252808320600185825416179055333384600080516020620044308339815191528180a46200003f565b600080fdfe608080604052600436101561001357600080fd5b60003560e01c90816301ffc9a7146131925750806303731b9e14613148578063062375261461312a5780631785f53c146130df578063210c714014612c2b578063248a9ca314612bfc57806324c20a3414612bc15780632f2ff15d14612b0e57806336568abe14612a7c5780633b129a5614612a535780633f4ba83a146129bf578063434034f3146121085780634b03a7261461206c5780634f2c3aef14612003578063537df3b614611f9d57806354aeaacc14611c025780635c975abb14611bdf5780635d9a997814611b435780637048027514611af857806373a82b5f14611a3657806375b238fc14611a0d5780637e805213146118a2578063822e69e5146118645780638456cb591461180b578063877e0f1214611558578063881dcf4a14611526578063887873b6146114895780638ab1d681146114235780638e4f96061461132757806391d14854146112da5780639747ac5f146112625780639b19251a146112235780639c72bae2146111935780639ecfb555146111025780639ed823c514610ac4578063a217fddf14610aa8578063b5c12f4d14610a46578063c22c4f4314610966578063c7c12b2a146107f3578063c8dc85381461059f578063c9442dac146104e1578063cda01abc14610445578063d337e833146103f0578063d547741f146103af578063e7f498701461030f578063e92a135914610296578063f9f92be4146102575763fb08f3a11461022f57600080fd5b3461025257600036600319011261025257602060ff600c54166040519015158152f35b600080fd5b34610252576020366003190112610252576001600160a01b036102786131e5565b16600052600a602052602060ff604060002054166040519015158152f35b346102525760207f9f7698c113c1793c9d780c2f02ea1d87a91536b4bb72a66f2f41b5ed3ea31c4f6102c736613431565b6102d2939193613c40565b6102da61373d565b6102e76004548510614034565b6102f46064821115614139565b836000526003825280600360406000200155604051908152a2005b3461025257602080600319360112610252576004356001600160401b038111610252576103418291369060040161323f565b91908260405193849283378101600881520301902090604051908181845491828152019360005281600020916000905b82821061039857610394856103888189038261337b565b6040519182918261329c565b0390f35b835486529485019460019384019390910190610371565b34610252576040366003190112610252576103ee6004356103ce6131fb565b908060005260006020526103e96001604060002001546139a3565b613aad565b005b3461025257602061041861040336613400565b929081604051938285809451938492016132e4565b8101600881520301902080548210156102525760209161043791613211565b90546040519160031b1c8152f35b3461025257600036600319011261025257600960209081526040517f6cde3cea4b3a3fb2488b2808bae7556f4a405e50f65e1794383bc026131b13c380548083526000918252828401937f0ada41edf8798b24cf95700ae04a399923583f100f59bcda0e41724a1960ba8b92905b8282106104ca57610394856103888189038261337b565b8354865294850194600193840193909101906104b3565b3461025257602080600319360112610252576104fb6131e5565b610503613870565b6000805160206142af83398151915291826000526000815261052c6001604060002001546139a3565b600083815280825260408082206001600160a01b0390941680835293835290205460ff1661055657005b82600052600081526040600020908260005252604060002060ff19815416905533917ff6391f5c32d9c69d2a47ea670b442974b53935d1edc7fd64eb21e047a839171b600080a4005b3461025257602080600319360112610252576004356105bc613c40565b33600052600a825260ff6105d7816040600020541615613cca565b80600c54166107d6575b6105ee6004548310614034565b6000828152600384526040902080546001600160a01b0392908316331480806107bd575b8015610762575b610622906140fc565b80610732575b80610702575b610685575b9060008051602061428f8339815191529291610656600583019182541686614204565b600160ff19825416179055600160005260098552610678846040600020613ca7565b54169260405160018152a3005b8060058301541660048110156106ec576003146106335760405162461bcd60e51b815260048101869052602260248201527f43616e6e6f7420726561637469766174652072656a6563746564207365727669604482015261636560f01b6064820152608490fd5b634e487b7160e01b600052602160045260246000fd5b506000805160206142af83398151915260005260008552604060002033600052855280604060002054161561062e565b506000805160206142cf833981519152600052600085526040600020336000528552806040600020541615610628565b506000805160206142cf83398151915260005260008652604060002033600052865281604060002054168061061957506000805160206142af8339815191526000908152808752604080822033835288529020548216610619565b508160058401541660048110156106ec57600314610612565b33600052600b83526107ee8160406000205416613d16565b6105e1565b346102525760208060031936011261025257600435610810613c40565b61081d6004548210614034565b8060005260039182815260018060a01b03806040600020541633148015610936575b8015610909575b61084f906140fc565b8260005283825260ff6005604060002001541660048110156106ec576001036108cd579060008051602061428f83398151915291836000528482526040600020600581016108a160ff82541687614204565b8660ff1982541617905585600052600983526108c1856040600020613ca7565b541693604051908152a3005b60405162461bcd60e51b815260048101839052601460248201527314d95c9d9a58d9481b9bdd08185c1c1c9bdd995960621b6044820152606490fd5b506000805160206142af83398151915260009081528083526040808220338352845290205460ff16610846565b506000805160206142cf83398151915260005260008252604060002033600052825260ff6040600020541661083f565b3461025257602036600319011261025257600435600090815260036020526040902080546001600160a01b03166103946109a26001840161349d565b9260038101549060048101549060ff600582015416610a276109c66006840161349d565b94600784015495610a1a6008860154946109e7600a6009890154980161349d565b97610a056040519d8e9d8e528d610140908160208201520190613307565b9460408d015260608c015260808b01906132d7565b88820360a08a0152613307565b9360c087015260e0860152610100850152838203610120850152613307565b34610252576020366003190112610252576004358015158091036102525760207f43a77bebe4caebfec965f4a1aea8984f4a538818b415cc79e7b5149b986d55b191610a90613870565b60ff19600c541660ff821617600c55604051908152a1005b3461025257600036600319011261025257602060405160008152f35b346102525760a036600319011261025257602480356001600160401b03811161025257610af590369060040161323f565b916044356001600160401b03811161025257610b1590369060040161326c565b906084356001600160401b03811161025257610b3590369060040161323f565b929095610b40613c40565b610b48613fe0565b33600052600a602052610b6360ff6040600020541615613cca565b60ff600c54166110e3575b610b7d60045460043510614034565b60043560005260036020523360018060a01b0360406000205416036110ac57610ba7811515613d62565b610bb2821515613da6565b610bbf6064351515613df2565b610bca841515613e37565b60043560005260036020526040600020956000604051610c0281610bf46020820160018d01614079565b03601f19810183528261337b565b60208151910120604051602081019085858337610c2f60208288810160008382015203808452018261337b565b5190201480159061109c575b611094575b80611065575b8061102c575b80610ff3575b610f7e575b6001600160401b038211610f69578190610c8182610c7860018b0154613463565b60018b01613eb5565b600090601f8311600114610ef857600092610eed575b50508160011b916000199060031b1c19161760018601555b6002850191610cbe8284613efa565b60009283526020832090805b838510610def575050505050606435600484015560068301916001600160401b038211610ddb5750610d0681610d008454613463565b84613eb5565b6000601f8211600114610d755781929394600092610d6a575b50508160011b916000199060031b1c19161790555b600942910155336004357f2144e7d4cb056ccbc6789ba118e00e7196bff25806748a0935d6e71577d5eca0600080a36001600255005b013590508480610d1f565b601f198216948360005260206000209160005b878110610dc3575083600195969710610da9575b505050811b019055610d34565b0135600019600384901b60f8161c19169055848080610d9c565b90926020600181928686013581550194019101610d88565b634e487b7160e01b60009081526041600452fd5b610df98183613f8d565b906001600160401b038211610ed857610e1c82610e168754613463565b87613eb5565b600090601f8311600114610e68579282600194936020938695600092610e5d575b5050600019600383901b1c191690841b1786555b01930194019391610cca565b013590508e80610e3d565b8560005260206000209160005b601f1985168110610ec0575083602093600196938796938794601f19811610610ea6575b505050811b018655610e51565b0135600019600384901b60f8161c191690558e8080610e99565b90926020600181928686013581550194019101610e75565b88634e487b7160e01b60005260416004526000fd5b013590508880610c97565b909250600188016000526020600020906000935b601f1984168510610f51576001945083601f19811610610f37575b505050811b016001860155610caf565b0135600019600384901b60f8161c19169055888080610f27565b81810135835560209485019460019093019201610f0c565b85634e487b7160e01b60005260416004526000fd5b60058701610f9260ff825416600435614204565b805460ff19169055600080526009602052610fcf6004357fec8156718a8372b1db44bb411437d0870f3e3790d4a08526d024ce1b0b668f6b613ca7565b60405160008152339060008051602061428f833981519152602060043592a3610c57565b503360009081527f5c91a81dd90adcbb976f07115cdaa60f95931610e4c2893856278a1e5607a9cc602052604090205460ff1615610c52565b503360009081527f7d7ffb7a348e1c6a02869081a26547b49160dd3df72d1d75a570eb9b698292ec602052604090205460ff1615610c4c565b5060ff600588015416600481101561107f57600114610c46565b86634e487b7160e01b60005260216004526000fd5b506001610c40565b5060643560048901541415610c3b565b60405162461bcd60e51b8152602060048201526010818701526f2737ba103a343290383937bb34b232b960811b6044820152606490fd5b33600052600b6020526110fd60ff60406000205416613d16565b610b6e565b346102525761111036613431565b90600052600560205260406000209081548110156102525761113191613447565b508054600182015491611189600361114b6002840161349d565b92015491611178604051958695865260018060a01b038116602087015260ff604087019160a01c166132d7565b60a0606085015260a0840190613307565b9060808301520390f35b3461025257602080600319360112610252576004356001600160401b038111610252576111c58291369060040161323f565b91908260405193849283378101600781520301902090604051908181845491828152019360005281600020916000905b82821061120c57610394856103888189038261337b565b8354865294850194600193840193909101906111f5565b34610252576020366003190112610252576001600160a01b036112446131e5565b16600052600b602052602060ff604060002054166040519015158152f35b3461025257602080600319360112610252576001600160a01b036112846131e5565b1660005260068152604060002090604051908181845491828152019360005281600020916000905b8282106112c357610394856103888189038261337b565b8354865294850194600193840193909101906112ac565b34610252576040366003190112610252576112f36131fb565b600435600052600060205260406000209060018060a01b0316600052602052602060ff604060002054166040519015158152f35b34610252576040366003190112610252576113406131e5565b6024359061134c613c40565b61135461373d565b6113616064831115614139565b60018060a01b03168060005260209160068352604060002092604051808583829754938481520190600052836000209260005b8582821061140d575050506113ab9250038561337b565b60005b84518110156113e157806113c56113dc9287613c93565b516000526003835283600760406000200155613c84565b6113ae565b507fe00f1b5d37e934593fb70fcb5fd4703e66f533b6f2560437ec119178a815812d91604051908152a2005b855484526001958601958a955093019201611394565b346102525760203660031901126102525761143c6131e5565b611444613870565b6001600160a01b03166000818152600b60205260408120805460ff191690557fb25d8dded8157c6db52f0a2c448e38fffc3cfcc4728770df8f62b860adc0ff769080a2005b3461025257600036600319011261025257600960209081526040517f92e85d02570a8092d09a6e3a57665bc3815a2699a4074001bf1ccabf660f5a3680548083526000918252828401937ff5918152dffd4c0c585ca2588ca9b8191bd01a7fbff2737f8e5b9361e056218e92600192915b8282106115115761039486610388818a038261337b565b845487529586019593830193908301906114fa565b3461025257602061153961040336613400565b8101600781520301902080548210156102525760209161043791613211565b3461025257602080600319360112610252576115726131e5565b61157a613870565b60018060a01b03169081600052600a815260406000206001809160ff199082828254161790556006845260406000206040519081868254918281520191600052866000209060005b888282106117f85750505050816115da91038261337b565b6000925b61160b575b857f75cc0c39959b93cfb9c185a893db66a82721241056d77aaa748148e83a53533c600080a2005b80518310156117f35761161e8382613c93565b51928360005260039384875260059460ff8660406000200154169560048710156106ec578780971461165d575b50505061165790613c84565b926115de565b829189918b9460005281835260406000200181888254161790558760005260098083526040600020896000905b6116cc575b505091816116579695949360008051602061428f8339815191529360005282526116bd846040600020613ca7565b604051908152a390888061164b565b919496979899929550809350548c8c828410156117e4575050866116f08386613211565b905490881b1c14611716575061170590613c84565b928a928299989796948d969361168a565b909150600098979694989592939519918282019182116117ce5761174d6117406117689387613211565b9054908c1b1c9186613211565b90919082549060031b600019811b9283911b16911916179055565b825480156117b8578998611657968d9560008051602061428f833981519152948e9401906117aa6117998383613211565b8154906000199060031b1b19169055565b55919394959681935061168f565b634e487b7160e01b600052603160045260246000fd5b634e487b7160e01b600052601160045260246000fd5b9450959299989796949161168f565b6115e3565b83548552889794019392830192016115c2565b3461025257600036600319011261025257611824613870565b61182c613c40565b600160ff19815416176001557f62e78cea01bee320cd4e420270b5ea74000d11b0c9f74754ebdbfc544b05a2586020604051338152a1005b346102525760403660031901126102525760043560048110156102525761188d6024359161332c565b80548210156102525760209161043791613211565b3461025257602080600319360112610252576004356118c46004548210614034565b600052600581526040600020908154916118dd83613e7b565b926118eb604051948561337b565b8084528284018092600052836000206000915b8383106119a65750505050604051918083019381845251809452604083019360408160051b85010192916000955b8287106119395785850386f35b909192938280600192603f1989820301855287519081518152848060a01b03838301511683820152611973604083015160408301906132d7565b61198c6060808401519060a08091850152830190613307565b91608080910151910152960192019601959291909261192c565b6004866001926040999899516119bb81613345565b855481526119e160ff86880154878060a01b0381168685015260a01c1660408301613e92565b6119ed6002870161349d565b6060820152600386015460808201528152019201920191909594956118fe565b346102525760003660031901126102525760206040516000805160206142cf8339815191528152f35b346102525760208060031936011261025257611a506131e5565b611a58613870565b6000805160206142af833981519152918260005260008152611a816001604060002001546139a3565b600083815280825260408082206001600160a01b0390941680835293835290205460ff1615611aac57005b826000526000815260406000209082600052526040600020600160ff1982541617905533917f2f8788117e7eff1d82e926ec794901d17c78024a50270940304540a733656f0d600080a4005b346102525760208060031936011261025257611b126131e5565b611b1a613543565b6000805160206142cf833981519152918260005260008152611a816001604060002001546139a3565b3461025257600036600319011261025257600960209081526040517fec8156718a8372b1db44bb411437d0870f3e3790d4a08526d024ce1b0b668f6b80548083526000918252828401937f067ef11c6b6e72bed28df18c3c4b2e4babb6f289abc7d1edc03515deafa274ce92905b828210611bc857610394856103888189038261337b565b835486529485019460019384019390910190611bb1565b3461025257600036600319011261025257602060ff600154166040519015158152f35b34610252576080366003190112610252576001600160401b0360043581811161025257611c3390369060040161323f565b909160243590811161025257611c4d90369060040161323f565b91600092600092600454935b848110611e2b5750611c6a85613e7b565b94611c78604051968761337b565b808652611c87601f1991613e7b565b0136602087013760009260005b858110611ca95760405180610394898261329c565b80600052600360205260ff6005604060002001541660048110156106ec5760011480611dd2575b80611db5575b80611d98575b80611d16575b611cf5575b611cf090613c84565b611c94565b93611d0e8186611d08611cf0948b613c93565b52613c84565b949050611ce7565b5080600052600360205260026040600020018054611d3381613e7b565b91611d41604051938461337b565b81835260208301906000526020600020906000905b838210611d7b5750505050611d7690611d7036878761339c565b9061417b565b611ce2565b600160208192611d8a8661349d565b815201930191019091611d56565b508060005260036020526064356003604060002001541015611cdc565b508060005260036020526044356004604060002001541115611cd6565b508060005260036020526001604060002001604051611df981610bf4602082018095614079565b5190206040516020810190848b8337611e2260208287810160008382015203808452018261337b565b51902014611cd0565b806000526003602081815260ff6005604060002001541660048110156106ec5760018091149283611f48575b83611f2b575b83611f0f575b83611e94575b505050611e7f575b611e7a90613c84565b611c59565b94611e8c611e7a91613c84565b959050611e71565b909192508360005282526002604060002001805490611eb282613e7b565b93611ec0604051958661337b565b8285526000918252808220918186015b848210611ef457505050505050611eec90611d7036868661339c565b888080611e69565b85838192611f018761349d565b815201940191019092611ed0565b9250836000528282526064358360406000200154101592611e63565b925083600052828252604435600460406000200154111592611e5d565b92508360005282825280604060002001604051611f6c81610bf48682018095614079565b51902060405183810190898d8337611f9385828c810160008382015203808452018261337b565b5190201492611e57565b3461025257602036600319011261025257611fb66131e5565b611fbe613870565b6001600160a01b03166000818152600a60205260408120805460ff191690557f9c0a2cbc93d3bd0beb87d80912dee9d82982a06e470b5b1ab1a619faf49f36049080a2005b346102525760203660031901126102525761201c6131e5565b612024613870565b6001600160a01b03166000818152600b60205260408120805460ff191660011790557f329351c57e04823d76f0e141efccd5278bd9d07db94f06e83603b7046da6aebb9080a2005b3461025257600036600319011261025257600960209081526040517fc575c31fea594a6eb97c8e9d3f9caee4c16218c6ef37e923234c0fe9014a61e780548083526000918252828401937f0c4bcf2d962d2967567161e2c07ee166d0a7fbac816b34859338e95768fe2ad492905b8282106120f157610394856103888189038261337b565b8354865294850194600193840193909101906120da565b34610252576080366003190112610252576004356001600160401b0381116102525761213890369060040161323f565b906024356001600160401b0381116102525761215890369060040161326c565b90926064356001600160401b0381116102525761217990369060040161323f565b939092612184613c40565b61218c613fe0565b33600052600a6020526121a760ff6040600020541615613cca565b60ff600c54166129a0575b6121bd831515613d62565b6121c8811515613da6565b6121d56044351515613df2565b6121e0851515613e37565b600454946121ed86613c84565b6004553360009081527fdab4e631801846581f9fbf7cc705fd56a1100dfcb2e68bee3369bfda4c2016c960205260409020547f18d9ff454de989bd126b06bd404b47ede75f9e65543e94e8d212f89d7dcbb87c9060ff1615612910575b503360009081527f7d7ffb7a348e1c6a02869081a26547b49160dd3df72d1d75a570eb9b698292ec602052604081205490959060ff1680156128d8575b6128cf575b60405191826101608101106001600160401b03610160850111176126ae5761016083016040523383526122c036878761339c565b60208401526122ce84613e7b565b6122db604051918261337b565b84815260208101368660051b8c0111610252578a905b8660051b8c0182106128a3575050604084015260006060840152604435608084015261232c91906123258860a08601613e92565b369161339c565b60c0820152600060e082015242610100820152426101208201526040518060208101106001600160401b036020830111176126ae57602081016040526000815261014082015285600052600360205260406000209060018060a01b038151166bffffffffffffffffffffffff60a01b83541617825560208101518051906001600160401b0382116126ae5781906123d3826123ca6001880154613463565b60018801613eb5565b602090601f831160011461283157600092612826575b50508160011b916000199060031b1c19161760018301555b60028201604082015160208151916124198385613efa565b01916000526020600020916000905b828210612743575050505060608101516003830155608081015160048301556005820160a082015160048110156106ec5760ff8019835416911617905560c08101518051906001600160401b0382116126ae576124958261248c6006870154613463565b60068701613eb5565b602090601f83116001146126cf57610140939291600091836126c4575b50508160011b916000199060031b1c19161760068401555b60e081015160078401556101008101516008840155610120810151600984015501518051906001600160401b0382116126ae576125178261250e600a860154613463565b600a8601613eb5565b602090601f831160011461263e57600a929160009183612633575b50508160011b916000199060031b1c1916179101555b33600052600660205261255f856040600020613ca7565b61257d85604051858582376020818781016007815203019020613ca7565b61258f8561258a8661332c565b613ca7565b60005b8181106125f65760208686817f397ed5c5950f50dc1b12c93dd8160d07f386910a58b47c6e4e1f0c1ac8b27308886125e36125d98a60405193604085526040850191613fbf565b94878301906132d7565b8033940390a36001600255604051908152f35b8061262987602061260f61262e9560051b8c018c613f8d565b919082604051938492833781016008815203019020613ca7565b613c84565b612592565b015190508a80612532565b90600a840160005260206000209160005b601f19851681106126965750918391600193600a95601f1981161061267d575b505050811b01910155612548565b015160001960f88460031b161c191690558a808061266f565b9192602060018192868501518155019401920161264f565b634e487b7160e01b600052604160045260246000fd5b015190508b806124b2565b906006850160005260206000209160005b601f198516811061272b57509183916001936101409695601f19811610612712575b505050811b0160068401556124ca565b015160001960f88460031b161c191690558b8080612702565b919260206001819286850151815501940192016126e0565b80518051906001600160401b0382116126ae5761276a826127648854613463565b88613eb5565b602090601f83116001146127b65792826001949360209386956000926127ab575b5050600019600383901b1c191690841b1787555b01940191019092612428565b01519050388061278b565b908660005260206000209160005b601f198516811061280e575083602093600196938796938794601f198116106127f5575b505050811b01875561279f565b015160001960f88460031b161c191690553880806127e8565b919260206001819286850151815501940192016127c4565b015190508a806123e9565b9250600185016000526020600020906000935b601f1984168510612888576001945083601f1981161061286f575b505050811b016001830155612401565b015160001960f88460031b161c191690558a808061285f565b81810151835560209485019460019093019290910190612844565b6001600160401b0382351161025257602080916128c48e36908635016133e2565b8152019101906122f1565b6001955061228c565b503360009081527f5c91a81dd90adcbb976f07115cdaa60f95931610e4c2893856278a1e5607a9cc602052604090205460ff16612287565b80600052600060205261292a6001604060002001546139a3565b80600052600060205260406000203360005260205260ff6040600020541661224a578060005260006020526040600020336000526020526040600020600160ff19825416179055339033907f2f8788117e7eff1d82e926ec794901d17c78024a50270940304540a733656f0d600080a48761224a565b33600052600b6020526129ba60ff60406000205416613d16565b6121b2565b34610252576000366003190112610252576129d8613870565b60015460ff811615612a175760ff19166001557f5db9ee0a495bf2e6ff9c91a7834c1ba4fdd244a5e8aa4e537bd38aeae4b073aa6020604051338152a1005b60405162461bcd60e51b815260206004820152601460248201527314185d5cd8589b194e881b9bdd081c185d5cd95960621b6044820152606490fd5b346102525760003660031901126102525760206040516000805160206142af8339815191528152f35b3461025257604036600319011261025257612a956131fb565b336001600160a01b03821603612ab1576103ee90600435613aad565b60405162461bcd60e51b815260206004820152602f60248201527f416363657373436f6e74726f6c3a2063616e206f6e6c792072656e6f756e636560448201526e103937b632b9903337b91039b2b63360891b6064820152608490fd5b3461025257604036600319011261025257600435612b2a6131fb565b816000526000602052612b446001604060002001546139a3565b81600052600060205260406000209060018060a01b0316908160005260205260ff6040600020541615612b7357005b8160005260006020526040600020816000526020526040600020600160ff1982541617905533917f2f8788117e7eff1d82e926ec794901d17c78024a50270940304540a733656f0d600080a4005b346102525760003660031901126102525760206040517f18d9ff454de989bd126b06bd404b47ede75f9e65543e94e8d212f89d7dcbb87c8152f35b346102525760203660031901126102525760043560005260006020526020600160406000200154604051908152f35b3461025257606036600319011261025257602480358015158103610252576001600160401b0360443581811161025257612c6990369060040161323f565b939091612c74613c40565b612c7c61373d565b612c8b60045460043510614034565b600435600052600360205260ff6005604060002001541660048110156130ca57613086576004356000526003602052604060002093612cd360ff600587015416600435614204565b15612fa457600160ff196005860154161760058501556000600a8501612cf98154613463565b601f8111612f85575b50555b612d1b60043561258a60ff60058801541661332c565b600435600052600560205260406000209060ff6005860154169260405192612d4284613345565b600435845260208401338152612d5c604086019687613e92565b612d67368a8961339c565b9160608601928352426080870152805490600160401b821015612f705790612d9491600182018155613447565b969096612f5b5785518755905160018701805492519092916001600160a01b0316906004811015612f465760ff60a01b9060a01b16916affffffffffffffffffffff60a81b161717905551908151928311610ddb5750612e0482612dfb6002870154613463565b60028701613eb5565b602090601f8311600114612ed257918060039492608094600092612ec7575b50508160011b9160001990861b1c19161760028501555b015191015560ff600583015416927f8a8a8a274520948649fe0877e302505267404f56552766b8d6d7b2cd95550716604051612e7681876132d7565b6040602082015280612e913395600435956040840191613fbf565b0390a3546040516001600160a01b0390911691612eaf9082906132d7565b60008051602061428f833981519152602060043592a3005b015190508980612e23565b906002850160005260206000209160005b601f1985168110612f2e5750926003949260019260809583601f19811610612f16575b505050811b016002850155612e3a565b015160001983881b60f8161c19169055898080612f06565b91926020600181928685015181550194019201612ee3565b85634e487b7160e01b60005260216004526000fd5b83634e487b7160e01b60005260006004526000fd5b84634e487b7160e01b60005260416004526000fd5b81835260208320612f9e91601f0160051c810190613e9e565b87612d02565b60058401805460ff19166002179055600a840181861161307157612fd286612fcc8354613463565b83613eb5565b856000601f821160011461300b57600091613000575b508660011b906000198860031b1c1916179055612d05565b905084013587612fe8565b60008381526020812092508890601f198216905b81811061305657501061303c575b5050600186811b019055612d05565b850135600019600389901b60f8161c19169055868061302d565b8884013585556001909401936020938401938b93500161301f565b82634e487b7160e01b60005260416004526000fd5b60405162461bcd60e51b815260206004820152601a818401527f53657276696365206e6f742070656e64696e67207265766965770000000000006044820152606490fd5b82634e487b7160e01b60005260216004526000fd5b3461025257602080600319360112610252576130f96131e5565b613101613543565b6000805160206142cf83398151915291826000526000815261052c6001604060002001546139a3565b34610252576000366003190112610252576020600454604051908152f35b34610252576040366003190112610252576131616131e5565b6001600160a01b03166000908152600660205260409020805460243591908210156102525760209161043791613211565b34610252576020366003190112610252576004359063ffffffff60e01b821680920361025257602091637965db0b60e01b81149081156131d4575b5015158152f35b6301ffc9a760e01b149050836131cd565b600435906001600160a01b038216820361025257565b602435906001600160a01b038216820361025257565b80548210156132295760005260206000200190600090565b634e487b7160e01b600052603260045260246000fd5b9181601f84011215610252578235916001600160401b038311610252576020838186019501011161025257565b9181601f84011215610252578235916001600160401b038311610252576020808501948460051b01011161025257565b6020908160408183019282815285518094520193019160005b8281106132c3575050505090565b8351855293810193928101926001016132b5565b9060048210156106ec5752565b60005b8381106132f75750506000910152565b81810151838201526020016132e7565b90602091613320815180928185528580860191016132e4565b601f01601f1916010190565b60048110156106ec576000526009602052604060002090565b60a081019081106001600160401b038211176126ae57604052565b608081019081106001600160401b038211176126ae57604052565b90601f801991011681019081106001600160401b038211176126ae57604052565b9291926001600160401b0382116126ae57604051916133c5601f8201601f19166020018461337b565b829481845281830111610252578281602093846000960137010152565b9080601f83011215610252578160206133fd9335910161339c565b90565b604060031982011261025257600435906001600160401b0382116102525761342a916004016133e2565b9060243590565b6040906003190112610252576004359060243590565b80548210156132295760005260206000209060021b0190600090565b90600182811c92168015613493575b602083101461347d57565b634e487b7160e01b600052602260045260246000fd5b91607f1691613472565b90604051918260008254926134b184613463565b90818452600194858116908160001461352057506001146134dd575b50506134db9250038361337b565b565b9093915060005260209081600020936000915b8183106135085750506134db935082010138806134cd565b855488840185015294850194879450918301916134f0565b9150506134db94506020925060ff191682840152151560051b82010138806134cd565b3360009081527fad3228b676f7d3cd4284a5443f17f1962b36e491b30a40b2405849e597ba5fb5602090815260408083205490929060ff161561358557505050565b61358e33613b32565b908084519061359c82613360565b6042825284820192606036853782511561372957603084538251906001918210156137295790607860218501536041915b8183116136bb575050506136795760486136759386936136599361364a985198899376020b1b1b2b9b9a1b7b73a3937b61d1030b1b1b7bab73a1604d1b8a860152613621815180928c6037890191016132e4565b8401917001034b99036b4b9b9b4b733903937b6329607d1b6037840152518093868401906132e4565b0103602881018752018561337b565b5192839262461bcd60e51b845260048401526024830190613307565b0390fd5b60648486519062461bcd60e51b825280600483015260248201527f537472696e67733a20686578206c656e67746820696e73756666696369656e746044820152fd5b909192600f81166010811015613715576f181899199a1a9b1b9c1cb0b131b232b360811b901a6136eb8587613b21565b5360041c928015613701576000190191906135cd565b634e487b7160e01b82526011600452602482fd5b634e487b7160e01b83526032600452602483fd5b634e487b7160e01b81526032600452602490fd5b3360009081527f5c91a81dd90adcbb976f07115cdaa60f95931610e4c2893856278a1e5607a9cc602090815260408083205490926000805160206142af8339815191529160ff161561378f5750505050565b61379833613b32565b918451906137a582613360565b6042825284820192606036853782511561372957603084538251906001918210156137295790607860218501536041915b81831161382a575050506136795760486136759386936136599361364a985198899376020b1b1b2b9b9a1b7b73a3937b61d1030b1b1b7bab73a1604d1b8a860152613621815180928c6037890191016132e4565b909192600f81166010811015613715576f181899199a1a9b1b9c1cb0b131b232b360811b901a61385a8587613b21565b5360041c928015613701576000190191906137d6565b3360009081527f7d7ffb7a348e1c6a02869081a26547b49160dd3df72d1d75a570eb9b698292ec602090815260408083205490926000805160206142cf8339815191529160ff16156138c25750505050565b6138cb33613b32565b918451906138d882613360565b6042825284820192606036853782511561372957603084538251906001918210156137295790607860218501536041915b81831161395d575050506136795760486136759386936136599361364a985198899376020b1b1b2b9b9a1b7b73a3937b61d1030b1b1b7bab73a1604d1b8a860152613621815180928c6037890191016132e4565b909192600f81166010811015613715576f181899199a1a9b1b9c1cb0b131b232b360811b901a61398d8587613b21565b5360041c92801561370157600019019190613909565b600090808252602090828252604092838120338252835260ff8482205416156139cc5750505050565b6139d533613b32565b918451906139e282613360565b6042825284820192606036853782511561372957603084538251906001918210156137295790607860218501536041915b818311613a67575050506136795760486136759386936136599361364a985198899376020b1b1b2b9b9a1b7b73a3937b61d1030b1b1b7bab73a1604d1b8a860152613621815180928c6037890191016132e4565b909192600f81166010811015613715576f181899199a1a9b1b9c1cb0b131b232b360811b901a613a978587613b21565b5360041c92801561370157600019019190613a13565b9060009180835282602052604083209160018060a01b03169182845260205260ff604084205416613add57505050565b80835282602052604083208284526020526040832060ff1981541690557ff6391f5c32d9c69d2a47ea670b442974b53935d1edc7fd64eb21e047a839171b339380a4565b908151811015613229570160200190565b60405190606082018281106001600160401b038211176126ae57604052602a82526020820160403682378251156132295760309053815160019081101561322957607860218401536029905b808211613bd2575050613b8e5790565b606460405162461bcd60e51b815260206004820152602060248201527f537472696e67733a20686578206c656e67746820696e73756666696369656e746044820152fd5b9091600f81166010811015613c2b576f181899199a1a9b1b9c1cb0b131b232b360811b901a613c018486613b21565b5360041c918015613c16576000190190613b7e565b60246000634e487b7160e01b81526011600452fd5b60246000634e487b7160e01b81526032600452fd5b60ff60015416613c4c57565b60405162461bcd60e51b815260206004820152601060248201526f14185d5cd8589b194e881c185d5cd95960821b6044820152606490fd5b60001981146117ce5760010190565b80518210156132295760209160051b010190565b90815491600160401b8310156126ae578261174d9160016134db95018155613211565b15613cd157565b60405162461bcd60e51b815260206004820152601760248201527f50726f766964657220697320626c61636b6c69737465640000000000000000006044820152606490fd5b15613d1d57565b60405162461bcd60e51b815260206004820152601b60248201527f50726f7669646572206973206e6f742077686974656c697374656400000000006044820152606490fd5b15613d6957565b60405162461bcd60e51b815260206004820152601560248201527414d95c9d9a58d9481d1e5c19481c995c5d5a5c9959605a1b6044820152606490fd5b15613dad57565b60405162461bcd60e51b815260206004820152601e60248201527f4174206c65617374206f6e65206c616e677561676520726571756972656400006044820152606490fd5b15613df957565b60405162461bcd60e51b81526020600482015260166024820152755072696365206d75737420626520706f73697469766560501b6044820152606490fd5b15613e3e57565b60405162461bcd60e51b815260206004820152601560248201527413595d1859185d1848155492481c995c5d5a5c9959605a1b6044820152606490fd5b6001600160401b0381116126ae5760051b60200190565b60048210156106ec5752565b818110613ea9575050565b60008155600101613e9e565b9190601f8111613ec457505050565b6134db926000526020600020906020601f840160051c83019310613ef0575b601f0160051c0190613e9e565b9091508190613ee3565b600160401b82116126ae57805491808255828110613f1757505050565b600091825260209081832093840193015b838110613f355750505050565b80613f4260019254613463565b80613f4f575b5001613f28565b601f908181118414613f675750508381555b38613f48565b83613f8092848852868820920160051c82019101613e9e565b8383812081835555613f61565b903590601e198136030182121561025257018035906001600160401b0382116102525760200191813603831361025257565b908060209392818452848401376000828201840152601f01601f1916010190565b6002805414613fef5760028055565b60405162461bcd60e51b815260206004820152601f60248201527f5265656e7472616e637947756172643a207265656e7472616e742063616c6c006044820152606490fd5b1561403b57565b60405162461bcd60e51b815260206004820152601660248201527514d95c9d9a58d948191bd95cc81b9bdd08195e1a5cdd60521b6044820152606490fd5b60009291815461408881613463565b926001918083169081156140e157506001146140a5575b50505050565b90919293945060005260209081600020906000915b8583106140d0575050505001903880808061409f565b8054858401529183019181016140ba565b60ff191684525050508115159091020191503880808061409f565b1561410357565b60405162461bcd60e51b815260206004820152600e60248201526d139bdd08185d5d1a1bdc9a5e995960921b6044820152606490fd5b1561414057565b60405162461bcd60e51b8152602060048201526013602482015272053636f7265206d75737420626520302d31303606c1b6044820152606490fd5b9060005b82518110156141fc576141928184613c93565b516040908151906020916141c28382816141b581830196878151938492016132e4565b810103808452018261337b565b51902091516141de828201928287516141b58187858c016132e4565b519020146141f4576141ef90613c84565b61417f565b505050600190565b505050600090565b9061420e9061332c565b60005b81548082101561409f57836142268385613211565b919054600392831b1c1461424457505061423f90613c84565b614211565b9293506000199291908381019081116117ce576142749261426861174d9287613211565b9054911b1c9185613211565b815480156117b857019061428b6117998383613211565b5556fe397e06b86124fd79c8de6dbc8e223eaea1487a70eea5cbd84ee142b000273879c10c77be35aff266144ed64c26a1fa104bae2f284ae99ac4a34203454704a185a49807205ce4d355092ef5a8a18f56e8913cf4a201fbe287825b095693c21775a264697066735822122091b8d509e22d7f6f44400670d59d9b36c02a2786f220b75811c2170c1aa2d62d64736f6c634300081100332f8788117e7eff1d82e926ec794901d17c78024a50270940304540a733656f0d",
  "linkReferences": {},
  "deployedLinkReferences": {}
}