{
  "_format": "hh-sol-artifact-1",
  "contractName": "AICapabilityNFT",
  "sourceName": "src/contracts/AICapabilityNFT.sol",
  "abi": [
    {
      "inputs": [
        {
          "internalType": "address",
          "name": "tokenAddress",
          "type": "address"
        }
      ],
      "stateMutability": "nonpayable",
      "type": "constructor"
    },
    {
      "anonymous": false,
      "inputs": [
        {
          "indexed": true,
          "internalType": "address",
          "name": "owner",
          "type": "address"
        },
        {
          "indexed": true,
          "internalType": "address",
          "name": "approved",
          "type": "address"
        },
        {
          "indexed": true,
          "internalType": "uint256",
          "name": "tokenId",
          "type": "uint256"
        }
      ],
      "name": "Approval",
      "type": "event"
    },
    {
      "anonymous": false,
      "inputs": [
        {
          "indexed": true,
          "internalType": "address",
          "name": "owner",
          "type": "address"
        },
        {
          "indexed": true,
          "internalType": "address",
          "name": "operator",
          "type": "address"
        },
        {
          "indexed": false,
          "internalType": "bool",
          "name": "approved",
          "type": "bool"
        }
      ],
      "name": "ApprovalForAll",
      "type": "event"
    },
    {
      "anonymous": false,
      "inputs": [
        {
          "indexed": true,
          "internalType": "uint256",
          "name": "tokenId",
          "type": "uint256"
        },
        {
          "indexed": true,
          "internalType": "address",
          "name": "owner",
          "type": "address"
        },
        {
          "indexed": false,
          "internalType": "enum AICapabilityNFT.CapabilityType",
          "name": "capabilityType",
          "type": "uint8"
        }
      ],
      "name": "CapabilityMinted",
      "type": "event"
    },
    {
      "anonymous": false,
      "inputs": [
        {
          "indexed": true,
          "internalType": "uint256",
          "name": "tokenId",
          "type": "uint256"
        },
        {
          "indexed": false,
          "internalType": "enum AICapabilityNFT.CapabilityType",
          "name": "capabilityType",
          "type": "uint8"
        }
      ],
      "name": "CapabilityUpdated",
      "type": "event"
    },
    {
      "anonymous": false,
      "inputs": [
        {
          "indexed": true,
          "internalType": "address",
          "name": "previousOwner",
          "type": "address"
        },
        {
          "indexed": true,
          "internalType": "address",
          "name": "newOwner",
          "type": "address"
        }
      ],
      "name": "OwnershipTransferred",
      "type": "event"
    },
    {
      "anonymous": false,
      "inputs": [
        {
          "indexed": true,
          "internalType": "uint256",
          "name": "tokenId",
          "type": "uint256"
        },
        {
          "indexed": false,
          "internalType": "uint256",
          "name": "newScore",
          "type": "uint256"
        }
      ],
      "name": "PerformanceScoreUpdated",
      "type": "event"
    },
    {
      "anonymous": false,
      "inputs": [
        {
          "indexed": true,
          "internalType": "address",
          "name": "from",
          "type": "address"
        },
        {
          "indexed": true,
          "internalType": "address",
          "name": "to",
          "type": "address"
        },
        {
          "indexed": true,
          "internalType": "uint256",
          "name": "tokenId",
          "type": "uint256"
        }
      ],
      "name": "Transfer",
      "type": "event"
    },
    {
      "anonymous": false,
      "inputs": [
        {
          "indexed": true,
          "internalType": "uint256",
          "name": "tokenId",
          "type": "uint256"
        },
        {
          "indexed": false,
          "internalType": "uint256",
          "name": "newValidUntil",
          "type": "uint256"
        }
      ],
      "name": "ValidityExtended",
      "type": "event"
    },
    {
      "inputs": [
        {
          "internalType": "address",
          "name": "to",
          "type": "address"
        },
        {
          "internalType": "uint256",
          "name": "tokenId",
          "type": "uint256"
        }
      ],
      "name": "approve",
      "outputs": [],
      "stateMutability": "nonpayable",
      "type": "function"
    },
    {
      "inputs": [
        {
          "internalType": "address",
          "name": "owner",
          "type": "address"
        }
      ],
      "name": "balanceOf",
      "outputs": [
        {
          "internalType": "uint256",
          "name": "",
          "type": "uint256"
        }
      ],
      "stateMutability": "view",
      "type": "function"
    },
    {
      "inputs": [
        {
          "internalType": "uint256",
          "name": "",
          "type": "uint256"
        }
      ],
      "name": "capabilities",
      "outputs": [
        {
          "internalType": "enum AICapabilityNFT.CapabilityType",
          "name": "capabilityType",
          "type": "uint8"
        },
        {
          "internalType": "uint256",
          "name": "performanceScore",
          "type": "uint256"
        },
        {
          "internalType": "uint256",
          "name": "validUntil",
          "type": "uint256"
        },
        {
          "internalType": "string",
          "name": "modelVersion",
          "type": "string"
        },
        {
          "internalType": "string",
          "name": "metadataURI",
          "type": "string"
        }
      ],
      "stateMutability": "view",
      "type": "function"
    },
    {
      "inputs": [
        {
          "internalType": "enum AICapabilityNFT.CapabilityType",
          "name": "",
          "type": "uint8"
        },
        {
          "internalType": "uint256",
          "name": "",
          "type": "uint256"
        }
      ],
      "name": "capabilityTypeIndex",
      "outputs": [
        {
          "internalType": "uint256",
          "name": "",
          "type": "uint256"
        }
      ],
      "stateMutability": "view",
      "type": "function"
    },
    {
      "inputs": [],
      "name": "cultureToken",
      "outputs": [
        {
          "internalType": "contract IERC20",
          "name": "",
          "type": "address"
        }
      ],
      "stateMutability": "view",
      "type": "function"
    },
    {
      "inputs": [
        {
          "internalType": "uint256",
          "name": "tokenId",
          "type": "uint256"
        },
        {
          "internalType": "uint256",
          "name": "additionalTime",
          "type": "uint256"
        }
      ],
      "name": "extendValidity",
      "outputs": [],
      "stateMutability": "nonpayable",
      "type": "function"
    },
    {
      "inputs": [
        {
          "internalType": "uint256",
          "name": "tokenId",
          "type": "uint256"
        }
      ],
      "name": "getApproved",
      "outputs": [
        {
          "internalType": "address",
          "name": "",
          "type": "address"
        }
      ],
      "stateMutability": "view",
      "type": "function"
    },
    {
      "inputs": [
        {
          "internalType": "string",
          "name": "language",
          "type": "string"
        }
      ],
      "name": "getCapabilitiesByLanguage",
      "outputs": [
        {
          "internalType": "uint256[]",
          "name": "",
          "type": "uint256[]"
        }
      ],
      "stateMutability": "view",
      "type": "function"
    },
    {
      "inputs": [
        {
          "internalType": "address",
          "name": "owner",
          "type": "address"
        }
      ],
      "name": "getCapabilitiesByOwner",
      "outputs": [
        {
          "internalType": "uint256[]",
          "name": "",
          "type": "uint256[]"
        }
      ],
      "stateMutability": "view",
      "type": "function"
    },
    {
      "inputs": [
        {
          "internalType": "enum AICapabilityNFT.CapabilityType",
          "name": "capabilityType",
          "type": "uint8"
        }
      ],
      "name": "getCapabilitiesByType",
      "outputs": [
        {
          "internalType": "uint256[]",
          "name": "",
          "type": "uint256[]"
        }
      ],
      "stateMutability": "view",
      "type": "function"
    },
    {
      "inputs": [
        {
          "internalType": "uint256",
          "name": "tokenId",
          "type": "uint256"
        }
      ],
      "name": "getCapabilityMetadata",
      "outputs": [
        {
          "internalType": "enum AICapabilityNFT.CapabilityType",
          "name": "capabilityType",
          "type": "uint8"
        },
        {
          "internalType": "string[]",
          "name": "supportedLanguages",
          "type": "string[]"
        },
        {
          "internalType": "uint256",
          "name": "performanceScore",
          "type": "uint256"
        },
        {
          "internalType": "uint256",
          "name": "validUntil",
          "type": "uint256"
        },
        {
          "internalType": "string",
          "name": "modelVersion",
          "type": "string"
        },
        {
          "internalType": "string",
          "name": "metadataURI",
          "type": "string"
        }
      ],
      "stateMutability": "view",
      "type": "function"
    },
    {
      "inputs": [
        {
          "internalType": "address",
          "name": "owner",
          "type": "address"
        },
        {
          "internalType": "address",
          "name": "operator",
          "type": "address"
        }
      ],
      "name": "isApprovedForAll",
      "outputs": [
        {
          "internalType": "bool",
          "name": "",
          "type": "bool"
        }
      ],
      "stateMutability": "view",
      "type": "function"
    },
    {
      "inputs": [
        {
          "internalType": "uint256",
          "name": "tokenId",
          "type": "uint256"
        }
      ],
      "name": "isCapabilityValid",
      "outputs": [
        {
          "internalType": "bool",
          "name": "",
          "type": "bool"
        }
      ],
      "stateMutability": "view",
      "type": "function"
    },
    {
      "inputs": [
        {
          "internalType": "string",
          "name": "",
          "type": "string"
        },
        {
          "internalType": "uint256",
          "name": "",
          "type": "uint256"
        }
      ],
      "name": "languageIndex",
      "outputs": [
        {
          "internalType": "uint256",
          "name": "",
          "type": "uint256"
        }
      ],
      "stateMutability": "view",
      "type": "function"
    },
    {
      "inputs": [
        {
          "internalType": "address",
          "name": "to",
          "type": "address"
        },
        {
          "internalType": "enum AICapabilityNFT.CapabilityType",
          "name": "capabilityType",
          "type": "uint8"
        },
        {
          "internalType": "string[]",
          "name": "supportedLanguages",
          "type": "string[]"
        },
        {
          "internalType": "uint256",
          "name": "validityPeriod",
          "type": "uint256"
        },
        {
          "internalType": "string",
          "name": "modelVersion",
          "type": "string"
        },
        {
          "internalType": "string",
          "name": "metadataURI",
          "type": "string"
        }
      ],
      "name": "mintCapability",
      "outputs": [
        {
          "internalType": "uint256",
          "name": "",
          "type": "uint256"
        }
      ],
      "stateMutability": "nonpayable",
      "type": "function"
    },
    {
      "inputs": [],
      "name": "name",
      "outputs": [
        {
          "internalType": "string",
          "name": "",
          "type": "string"
        }
      ],
      "stateMutability": "view",
      "type": "function"
    },
    {
      "inputs": [],
      "name": "owner",
      "outputs": [
        {
          "internalType": "address",
          "name": "",
          "type": "address"
        }
      ],
      "stateMutability": "view",
      "type": "function"
    },
    {
      "inputs": [
        {
          "internalType": "uint256",
          "name": "tokenId",
          "type": "uint256"
        }
      ],
      "name": "ownerOf",
      "outputs": [
        {
          "internalType": "address",
          "name": "",
          "type": "address"
        }
      ],
      "stateMutability": "view",
      "type": "function"
    },
    {
      "inputs": [],
      "name": "renounceOwnership",
      "outputs": [],
      "stateMutability": "nonpayable",
      "type": "function"
    },
    {
      "inputs": [
        {
          "internalType": "address",
          "name": "from",
          "type": "address"
        },
        {
          "internalType": "address",
          "name": "to",
          "type": "address"
        },
        {
          "internalType": "uint256",
          "name": "tokenId",
          "type": "uint256"
        }
      ],
      "name": "safeTransferFrom",
      "outputs": [],
      "stateMutability": "nonpayable",
      "type": "function"
    },
    {
      "inputs": [
        {
          "internalType": "address",
          "name": "from",
          "type": "address"
        },
        {
          "internalType": "address",
          "name": "to",
          "type": "address"
        },
        {
          "internalType": "uint256",
          "name": "tokenId",
          "type": "uint256"
        },
        {
          "internalType": "bytes",
          "name": "data",
          "type": "bytes"
        }
      ],
      "name": "safeTransferFrom",
      "outputs": [],
      "stateMutability": "nonpayable",
      "type": "function"
    },
    {
      "inputs": [
        {
          "internalType": "address",
          "name": "operator",
          "type": "address"
        },
        {
          "internalType": "bool",
          "name": "approved",
          "type": "bool"
        }
      ],
      "name": "setApprovalForAll",
      "outputs": [],
      "stateMutability": "nonpayable",
      "type": "function"
    },
    {
      "inputs": [
        {
          "internalType": "bytes4",
          "name": "interfaceId",
          "type": "bytes4"
        }
      ],
      "name": "supportsInterface",
      "outputs": [
        {
          "internalType": "bool",
          "name": "",
          "type": "bool"
        }
      ],
      "stateMutability": "view",
      "type": "function"
    },
    {
      "inputs": [],
      "name": "symbol",
      "outputs": [
        {
          "internalType": "string",
          "name": "",
          "type": "string"
        }
      ],
      "stateMutability": "view",
      "type": "function"
    },
    {
      "inputs": [
        {
          "internalType": "uint256",
          "name": "index",
          "type": "uint256"
        }
      ],
      "name": "tokenByIndex",
      "outputs": [
        {
          "internalType": "uint256",
          "name": "",
          "type": "uint256"
        }
      ],
      "stateMutability": "view",
      "type": "function"
    },
    {
      "inputs": [
        {
          "internalType": "address",
          "name": "owner",
          "type": "address"
        },
        {
          "internalType": "uint256",
          "name": "index",
          "type": "uint256"
        }
      ],
      "name": "tokenOfOwnerByIndex",
      "outputs": [
        {
          "internalType": "uint256",
          "name": "",
          "type": "uint256"
        }
      ],
      "stateMutability": "view",
      "type": "function"
    },
    {
      "inputs": [
        {
          "internalType": "uint256",
          "name": "tokenId",
          "type": "uint256"
        }
      ],
      "name": "tokenURI",
      "outputs": [
        {
          "internalType": "string",
          "name": "",
          "type": "string"
        }
      ],
      "stateMutability": "view",
      "type": "function"
    },
    {
      "inputs": [],
      "name": "totalSupply",
      "outputs": [
        {
          "internalType": "uint256",
          "name": "",
          "type": "uint256"
        }
      ],
      "stateMutability": "view",
      "type": "function"
    },
    {
      "inputs": [
        {
          "internalType": "address",
          "name": "from",
          "type": "address"
        },
        {
          "internalType": "address",
          "name": "to",
          "type": "address"
        },
        {
          "internalType": "uint256",
          "name": "tokenId",
          "type": "uint256"
        }
      ],
      "name": "transferFrom",
      "outputs": [],
      "stateMutability": "nonpayable",
      "type": "function"
    },
    {
      "inputs": [
        {
          "internalType": "address",
          "name": "newOwner",
          "type": "address"
        }
      ],
      "name": "transferOwnership",
      "outputs": [],
      "stateMutability": "nonpayable",
      "type": "function"
    },
    {
      "inputs": [
        {
          "internalType": "uint256",
          "name": "tokenId",
          "type": "uint256"
        },
        {
          "internalType": "string[]",
          "name": "supportedLanguages",
          "type": "string[]"
        },
        {
          "internalType": "string",
          "name": "modelVersion",
          "type": "string"
        },
        {
          "internalType": "string",
          "name": "metadataURI",
          "type": "string"
        }
      ],
      "name": "updateCapability",
      "outputs": [],
      "stateMutability": "nonpayable",
      "type": "function"
    },
    {
      "inputs": [
        {
          "internalType": "uint256",
          "name": "tokenId",
          "type": "uint256"
        },
        {
          "internalType": "uint256",
          "name": "newScore",
          "type": "uint256"
        }
      ],
      "name": "updatePerformanceScore",
      "outputs": [],
      "stateMutability": "nonpayable",
      "type": "function"
    }
  ],
  "bytecode": "0x608034620003ea57601f90601f19906001600160401b039062002d90388190038581018516830184811184821017620003d457839282916040528339602092839181010312620003ea57516001600160a01b038082169590939091869003620003ea576200006c620003ef565b91600d83526c4149204361706162696c69747960981b8484015262000090620003ef565b6005815264041494341560dc1b85820152835196838811620003d4576000978854956001968781811c91168015620003c9575b89821014620003b55790818684931162000362575b50889086831160011462000301578b92620002f5575b5050600019600383901b1c191690861b1788555b8151938411620002e15784548581811c91168015620002d6575b87821014620002c25790818486959493116200026b575b50869284116001146200020a57508792620001fe575b5050600019600383901b1c191690821b1790555b600a5460018060a01b0319933385831617600a557f8be0079c531659141344cd1fd0a4f28419497f9722a3daafe3b4186f6b6457e0604051943393169180a38315620001bd575050600c541617600c556040516129809081620004108239f35b62461bcd60e51b82526004820152601560248201527f496e76616c696420746f6b656e20616464726573730000000000000000000000604482015260649150fd5b01519050388062000149565b85895286892086959093929116895b888282106200025457505084116200023a575b505050811b0190556200015d565b015160001960f88460031b161c191690553880806200022c565b838501518655889790950194938401930162000219565b90919293508589528689208480870160051c820192898810620002b8575b9187968992969594930160051c01915b828110620002a957505062000133565b8b815587965088910162000299565b9250819262000289565b634e487b7160e01b89526022600452602489fd5b90607f16906200011c565b634e487b7160e01b88526041600452602488fd5b015190503880620000ee565b9084899416918c80528a8d20928d5b8c8282106200034b575050841162000331575b505050811b01885562000102565b015160001960f88460031b161c1916905538808062000323565b8385015186558c9790950194938401930162000310565b9091508a8052888b208680850160051c8201928b8610620003ab575b918a91869594930160051c01915b8281106200039c575050620000d8565b8d81558594508a91016200038c565b925081926200037e565b634e487b7160e01b8b52602260045260248bfd5b90607f1690620000c3565b634e487b7160e01b600052604160045260246000fd5b600080fd5b60408051919082016001600160401b03811183821017620003d45760405256fe608080604052600436101561001357600080fd5b60003560e01c90816301ffc9a714611ad35750806306fdde0314611a30578063081812fc14611a12578063095ea7b31461189857806318160ddd1461187a5780631b69e1671461182657806323b872dd1461180257806328282565146111155780632f745c59146110ee5780633219824014610f7057806342842e0e14610f3d5780634f6ccce714610eba5780636352211e14610e8a57806368428ea114610e4757806370a0823114610e1c578063715018a614610dbf57806373372c4e14610ce057806374d311f414610cb757806386e918b414610c2e5780638a409c1114610b9e5780638da5cb5b14610b7557806392ce6ba014610acb57806395d89b4114610a00578063a22cb4651461092e578063a89c1f58146108b2578063b88d4fde1461082b578063c109920b14610441578063c87b56dd146103d7578063d337e8331461035e578063e92a1359146102a3578063e985e9c51461024d5763f2fde38b1461017f57600080fd5b3461024857602036600319011261024857610198611ba0565b6101a0611eb0565b6001600160a01b039081169081156101f457600a54826bffffffffffffffffffffffff60a01b821617600a55167f8be0079c531659141344cd1fd0a4f28419497f9722a3daafe3b4186f6b6457e0600080a3005b60405162461bcd60e51b815260206004820152602660248201527f4f776e61626c653a206e6577206f776e657220697320746865207a65726f206160448201526564647265737360d01b6064820152608490fd5b600080fd5b3461024857604036600319011261024857610266611ba0565b61026e611bb6565b9060018060a01b03809116600052600560205260406000209116600052602052602060ff604060002054166040519015158152f35b34610248576102b136611cd3565b6102b9611eb0565b6000828152600260205260409020546102dc906001600160a01b03161515612907565b606481116103235760207f9f7698c113c1793c9d780c2f02ea1d87a91536b4bb72a66f2f41b5ed3ea31c4f9183600052600d825280600260406000200155604051908152a2005b60405162461bcd60e51b8152602060048201526013602482015272053636f7265206d75737420626520302d31303606c1b6044820152606490fd5b34610248576040366003190112610248576004356001600160401b0381116102485761038e903690600401611e92565b6103aa6020602435928160405193828580945193849201611b58565b8101600f8152030190208054821015610248576020916103c991611cbb565b90546040519160031b1c8152f35b346102485760203660031901126102485760043560008181526002602052604090205461040e906001600160a01b03161515612907565b600052600d60205261043d6104296005604060002001611d5f565b604051918291602083526020830190611b7b565b0390f35b34610248576080366003190112610248576004356024356001600160401b03811161024857610474903690600401611c01565b906044356001600160401b03811161024857610494903690600401611c31565b906064356001600160401b038111610248576104b4903690600401611c31565b9290936104bf611eb0565b6000878152600260205260409020546104e2906001600160a01b03161515612907565b6104ed86151561269f565b6104f88215156126eb565b610503841515612730565b86600052600d602052604060002095600187019161052182846127a2565b60009283526020832090805b83851061074257505050505060048501916001600160401b0382116106b65781906105628261055c8654611ce9565b86612835565b600090601f83116001146106d7576000926106cc575b50508160011b916000199060031b1c19161790555b60058301916001600160401b0382116106b6576105b4826105ae8554611ce9565b85612835565b600090601f831160011461062757928260ff937f717d9681cbf883e1a9b7fbd533f31e96c27f9c039477f0de61ac597cd86bcdff969360209660009261061c575b50508160011b916000199060031b1c19161790555b54166106196040518092611c5e565ba2005b0135905088806105f5565b601f198316918460005260206000209260005b81811061069e5750937f717d9681cbf883e1a9b7fbd533f31e96c27f9c039477f0de61ac597cd86bcdff9693602096936001938360ff9810610684575b505050811b01905561060a565b0135600019600384901b60f8161c19169055888080610677565b9193602060018192878701358155019501920161063a565b634e487b7160e01b600052604160045260246000fd5b013590508780610578565b909150601f198316918460005260206000209260005b81811061072a5750908460019594939210610710575b505050811b01905561058d565b0135600019600384901b60f8161c19169055878080610703565b919360206001819287870135815501950192016106ed565b61074c8183612889565b906001600160401b0382116106b65761076f826107698754611ce9565b87612835565b600090601f83116001146107bb5792826001949360209386956000926107b0575b5050600019600383901b1c191690841b1786555b0193019401939161052d565b013590503880610790565b8560005260206000209160005b601f1985168110610813575083602093600196938796938794601f198116106107f9575b505050811b0186556107a4565b0135600019600384901b60f8161c191690553880806107ec565b909260206001819286860135815501940191016107c8565b3461024857608036600319011261024857610844611ba0565b61084c611bb6565b90606435906044356001600160401b0383116102485736602384011215610248576108b0936108886108ab943690602481600401359101611e5b565b9261089b6108968433612105565b61202c565b6108a68383836121cd565b612518565b6120e1565b005b3461024857602080600319360112610248576004356006811015610248576108d990611c6b565b90604051908181845491828152019360005281600020916000905b8282106109175761043d8561090b81890382611d3e565b60405191829182611e05565b8354865294850194600193840193909101906108f4565b3461024857604036600319011261024857610947611ba0565b60243590811515809203610248576001600160a01b0316903382146109bb57336000526005602052604060002082600052602052604060002060ff1981541660ff83161790556040519081527f17307eab39ab6107e8899845ad3d59bd9653f200f220920489ca2b5937696c3160203392a3005b60405162461bcd60e51b815260206004820152601960248201527f4552433732313a20617070726f766520746f2063616c6c6572000000000000006044820152606490fd5b346102485760003660031901126102485760405160006001805490610a2482611ce9565b80855291818116908115610aa45750600114610a4b575b61043d8461042981860382611d3e565b600081815292507fb10e2d527612073b26eecdfd717e6a320cf44b4afac2b0732d9fcbe2b7fa0cf65b828410610a8c57505050810160200161042982610a3b565b80546020858701810191909152909301928101610a74565b60ff191660208087019190915292151560051b850190920192506104299150839050610a3b565b346102485760208060031936011261024857610ae5611ba0565b90610aef82611f08565b90610af982612774565b92610b076040519485611d3e565b828452601f19610b1684612774565b01368386013760005b838110610b34576040518061043d8782611e05565b610b3e81836125a3565b908551811015610b5f57610b5a91848260051b8801015261287a565b610b1f565b634e487b7160e01b600052603260045260246000fd5b3461024857600036600319011261024857600a546040516001600160a01b039091168152602090f35b3461024857602080600319360112610248576004356001600160401b03811161024857610bd082913690600401611c31565b91908260405193849283378101600f81520301902090604051908181845491828152019360005281600020916000905b828210610c175761043d8561090b81890382611d3e565b835486529485019460019384019390910190610c00565b3461024857602036600319011261024857600435600052600d602052610c8e604060002061043d60ff82541691610ca96002820154916003810154610c816005610c7a60048501611d5f565b9301611d5f565b9360405197888098611c5e565b6020870152604086015260a0606086015260a0850190611b7b565b908382036080850152611b7b565b3461024857600036600319011261024857600c546040516001600160a01b039091168152602090f35b3461024857610cee36611cd3565b610cf6611eb0565b600082815260026020526040902054610d19906001600160a01b03161515612907565b8015610d7b5781600052600d602052610d3b6003604060002001918254612631565b905580600052600d6020527fb850f53ab0c375cbff8c82b0f0af076bd0fb8b4be2498564c1871e571504d1536020600360406000200154604051908152a2005b606460405162461bcd60e51b815260206004820152602060248201527f4164646974696f6e616c2074696d65206d75737420626520706f7369746976656044820152fd5b3461024857600036600319011261024857610dd8611eb0565b600a80546001600160a01b031981169091556000906001600160a01b03167f8be0079c531659141344cd1fd0a4f28419497f9722a3daafe3b4186f6b6457e08280a3005b34610248576020366003190112610248576020610e3f610e3a611ba0565b611f08565b604051908152f35b346102485760403660031901126102485760043560068110156102485760243590600052600e60205260406000208054821015610248576020916103c991611cbb565b34610248576020366003190112610248576020610ea8600435611fcb565b6040516001600160a01b039091168152f35b3461024857602036600319011261024857600435600854811015610ee3576103c9602091611c84565b60405162461bcd60e51b815260206004820152602c60248201527f455243373231456e756d657261626c653a20676c6f62616c20696e646578206f60448201526b7574206f6620626f756e647360a01b6064820152608490fd5b34610248576108b06108ab610f5136611bcc565b9060405192610f5f84611d23565b6000845261089b6108968433612105565b346102485760208060031936011261024857600435600081815260026020526040902054610fa8906001600160a01b03161515612907565b600052600d815260406000209060ff82541691600190818101906002810154600382015490835495610fd987612774565b96610fe76040519889611d3e565b8088528188018096600052826000206000915b8383106110c0575050505061101d600561101660048701611d5f565b9501611d5f565b956040519889986110328a60c0810193611c5e565b60c0848b01525180915260e089019260e08260051b8b010197936000905b838210611089578b8061043d8d61107b8e8e8e8e604088015260608701528582036080870152611b7b565b9083820360a0850152611b7b565b91806110aa8698999a9b82979496989d9e60df199082030186528d51611b7b565b9b01920192018b9a999897969593919492611050565b988085819798999a9b6110d69d9e979d85611d5f565b8152019201920191909a99939a989796959498610ffa565b34610248576040366003190112610248576020610e3f61110c611ba0565b602435906125a3565b346102485760c03660031901126102485761112e611ba0565b60066024351015610248576044356001600160401b03811161024857611158903690600401611c01565b90916084356001600160401b03811161024857611179903690600401611c31565b60a4939193356001600160401b0381116102485761119b903690600401611c31565b6111a3611eb0565b6111ae84151561269f565b606435156117be576111c18315156126eb565b6111cc811515612730565b6001600b54019586600b556040516111e381611d23565b600081526001600160a01b0387161561177a576000888152600260205260409020546112fb916108ab91611223906001600160a01b031615155b156128bb565b6008548a600052600960205260406000205561123e8a61263e565b61124789611f08565b6001600160a01b038a8116600090815260066020908152604080832085845282528083208f90558e835260078252808320949094556002905291909120546112919116151561121d565b6001600160a01b0389166000818152600360209081526040808320805460010190558d83526002909152812080546001600160a01b031916831790558b91907fddf252ad1be2c89b69c2b068fc378daa952ba7f163c4a11628f55a4df523b3ef8180a489896123f8565b61130760643542612631565b93604051948560c08101106001600160401b0360c0880111176106b65760c08601604052602435865261133987612774565b6113466040519182611d3e565b87815260208101368960051b8d0111610248578b905b8960051b8d01821061174e575050602087015260006040870152606086015261139893929161138c913691611e5b565b60808501523691611e5b565b60a082015283600052600d6020526040600020815160068110156117385760ff8019835416911617815560018101602083015160208151916113da83856127a2565b01916000526020600020916000905b8282106116555750505050604082015160028201556060820151600382015560808201518051906001600160401b0382116106b6576114388261142f6004860154611ce9565b60048601612835565b602090601f83116001146115e057918060a094926005946000926115d5575b50508160011b916000199060031b1c19161760048201555b019101518051906001600160401b0382116106b65781906114948261055c8654611ce9565b602090601f831160011461156f57600092611564575b50508160011b916000199060031b1c19161790555b6114d3836114ce602435611c6b565b61267c565b60005b8181106115275760208484817f8c3d2377db8a2a67bb53c0fd7b6dbd6edc99bd4ef32813f859a725841bfd7673846040519361151485602435611c5e565b6001600160a01b031693a3604051908152f35b8061155a85602061154061155f9560051b8a018a612889565b91908260405193849283378101600f81520301902061267c565b61287a565b6114d6565b0151905087806114aa565b6000858152602081209350601f198516905b8181106115bd57509084600195949392106115a4575b505050811b0190556114bf565b015160001960f88460031b161c19169055878080611597565b92936020600181928786015181550195019301611581565b015190508a80611457565b906004840160005260206000209160005b601f198516811061163d57509260a0949260019260059583601f19811610611624575b505050811b01600482015561146f565b015160001960f88460031b161c191690558a8080611614565b919260206001819286850151815501940192016115f1565b80518051906001600160401b0382116106b65761167c826116768854611ce9565b88612835565b602090601f83116001146116c85792826001949360209386956000926116bd575b5050600019600383901b1c191690841b1787555b019401910190926113e9565b015190508f8061169d565b908660005260206000209160005b601f1985168110611720575083602093600196938796938794601f19811610611707575b505050811b0187556116b1565b015160001960f88460031b161c191690558f80806116fa565b919260206001819286850151815501940192016116d6565b634e487b7160e01b600052602160045260246000fd5b6001600160401b03823511610248576020809161176f8f3690863501611e92565b81520191019061135c565b606460405162461bcd60e51b815260206004820152602060248201527f4552433732313a206d696e7420746f20746865207a65726f20616464726573736044820152fd5b606460405162461bcd60e51b815260206004820152602060248201527f56616c696469747920706572696f64206d75737420626520706f7369746976656044820152fd5b34610248576108b061181336611bcc565b916118216108968433612105565b6121cd565b346102485760203660031901126102485760043560008181526002602052604090205461185d906001600160a01b03161515612907565b600052600d60205260206003604060002001546040519042108152f35b34610248576000366003190112610248576020600854604051908152f35b34610248576040366003190112610248576118b1611ba0565b602435906001600160a01b0380806118c885611fcb565b169216918083146119c35780331490811561199e575b501561193357600083815260046020526040902080546001600160a01b0319168317905561190b83611fcb565b167f8c5be1e5ebec7d5bd14f71427d1e84f3dd0314c0f7b2291e5b200ac8c7c3b925600080a4005b60405162461bcd60e51b815260206004820152603d60248201527f4552433732313a20617070726f76652063616c6c6572206973206e6f7420746f60448201527f6b656e206f776e6572206f7220617070726f76656420666f7220616c6c0000006064820152608490fd5b9050600052600560205260406000203360005260205260ff60406000205416846118de565b60405162461bcd60e51b815260206004820152602160248201527f4552433732313a20617070726f76616c20746f2063757272656e74206f776e656044820152603960f91b6064820152608490fd5b34610248576020366003190112610248576020610ea8600435611fee565b346102485760003660031901126102485760405160008054611a5181611ce9565b80845290600190818116908115610aa45750600114611a7a5761043d8461042981860382611d3e565b600080805292507f290decd9548b62a8d60345a988386fc84ba6bc95484008f6362f93160ef3e5635b828410611abb57505050810160200161042982610a3b565b80546020858701810191909152909301928101611aa3565b34610248576020366003190112610248576004359063ffffffff60e01b82168092036102485760209163780e9d6360e01b8114908115611b15575b5015158152f35b6380ac58cd60e01b811491508115611b47575b8115611b36575b5083611b0e565b6301ffc9a760e01b14905083611b2f565b635b5e139f60e01b81149150611b28565b60005b838110611b6b5750506000910152565b8181015183820152602001611b5b565b90602091611b9481518092818552858086019101611b58565b601f01601f1916010190565b600435906001600160a01b038216820361024857565b602435906001600160a01b038216820361024857565b6060906003190112610248576001600160a01b0390600435828116810361024857916024359081168103610248579060443590565b9181601f84011215610248578235916001600160401b038311610248576020808501948460051b01011161024857565b9181601f84011215610248578235916001600160401b038311610248576020838186019501011161024857565b9060068210156117385752565b600681101561173857600052600e602052604060002090565b600854811015610b5f5760086000527ff3f7a9fe364faab93b216da50a3214154f22a0a2b415b23a84c8169e8b636ee30190600090565b8054821015610b5f5760005260206000200190600090565b6040906003190112610248576004359060243590565b90600182811c92168015611d19575b6020831014611d0357565b634e487b7160e01b600052602260045260246000fd5b91607f1691611cf8565b602081019081106001600160401b038211176106b657604052565b90601f801991011681019081106001600160401b038211176106b657604052565b9060405191826000825492611d7384611ce9565b908184526001948581169081600014611de25750600114611d9f575b5050611d9d92500383611d3e565b565b9093915060005260209081600020936000915b818310611dca575050611d9d93508201013880611d8f565b85548884018501529485019487945091830191611db2565b915050611d9d94506020925060ff191682840152151560051b8201013880611d8f565b6020908160408183019282815285518094520193019160005b828110611e2c575050505090565b835185529381019392810192600101611e1e565b6001600160401b0381116106b657601f01601f191660200190565b929192611e6782611e40565b91611e756040519384611d3e565b829481845281830111610248578281602093846000960137010152565b9080601f8301121561024857816020611ead93359101611e5b565b90565b600a546001600160a01b03163303611ec457565b606460405162461bcd60e51b815260206004820152602060248201527f4f776e61626c653a2063616c6c6572206973206e6f7420746865206f776e65726044820152fd5b6001600160a01b03168015611f2857600052600360205260406000205490565b60405162461bcd60e51b815260206004820152602960248201527f4552433732313a2061646472657373207a65726f206973206e6f7420612076616044820152683634b21037bbb732b960b91b6064820152608490fd5b15611f8657565b60405162461bcd60e51b815260206004820152601860248201527f4552433732313a20696e76616c696420746f6b656e20494400000000000000006044820152606490fd5b6000908152600260205260409020546001600160a01b0316611ead811515611f7f565b600081815260026020526040902054612011906001600160a01b03161515611f7f565b6000908152600460205260409020546001600160a01b031690565b1561203357565b60405162461bcd60e51b815260206004820152602d60248201527f4552433732313a2063616c6c6572206973206e6f7420746f6b656e206f776e6560448201526c1c881bdc88185c1c1c9bdd9959609a1b6064820152608490fd5b60809060208152603260208201527f4552433732313a207472616e7366657220746f206e6f6e20455243373231526560408201527131b2b4bb32b91034b6b83632b6b2b73a32b960711b60608201520190565b156120e857565b60405162461bcd60e51b8152806121016004820161208e565b0390fd5b906001600160a01b03808061211984611fcb565b1693169183831493841561214c575b508315612136575b50505090565b61214291929350611fee565b1614388080612130565b909350600052600560205260406000208260005260205260ff604060002054169238612128565b1561217a57565b60405162461bcd60e51b815260206004820152602560248201527f4552433732313a207472616e736665722066726f6d20696e636f72726563742060448201526437bbb732b960d91b6064820152608490fd5b6121f1916121da84611fcb565b6001600160a01b0393848416939185168414612173565b8382169384156123a7578391826122ee575061223b926008548760005260096020526040600020556122228761263e565b8286036122bb575b5061223486611fcb565b1614612173565b7fddf252ad1be2c89b69c2b068fc378daa952ba7f163c4a11628f55a4df523b3ef60008481526004602052604081206bffffffffffffffffffffffff60a01b9081815416905583825260036020526040822060001981540190558482526040822060018154019055858252600260205284604083209182541617905580a4565b6122c490611f08565b6040600087815260066020528181208382526020528882822055888152600760205220553861222a565b858303612300575b5061223b92612222565b61230b919250611f08565b6000198101919082116123915761223b928492600090888252602090600782526040918284205482810361235a575b508a845283838120558684526006815282842091845252812055926122f6565b878552600682528385208386528252838520548886526006835284862082875283528085872055855260078252838520553861233a565b634e487b7160e01b600052601160045260246000fd5b60405162461bcd60e51b8152602060048201526024808201527f4552433732313a207472616e7366657220746f20746865207a65726f206164646044820152637265737360e01b6064820152608490fd5b9192600092909190803b1561250e57612446946040518092630a85bd0160e11b9485835233600484015287602484015260448301526080606483015281878160209a8b966084830190611b7b565b03926001600160a01b03165af18491816124ca575b506124b9575050503d6000146124b1573d61247581611e40565b906124836040519283611d3e565b81528091833d92013e5b805191826124ae5760405162461bcd60e51b8152806121016004820161208e565b01fd5b50606061248d565b6001600160e01b0319161492509050565b9091508581813d8311612507575b6124e28183611d3e565b8101031261250357516001600160e01b03198116810361250357903861245b565b8480fd5b503d6124d8565b5050915050600190565b9293600093909291803b15612598579484916125729660405180948193630a85bd0160e11b9788845233600485015260018060a01b0380921660248501526044840152608060648401528260209b8c976084830190611b7b565b0393165af18491816124ca57506124b9575050503d6000146124b1573d61247581611e40565b505050915050600190565b6125ac81611f08565b8210156125d85760018060a01b0316600052600660205260406000209060005260205260406000205490565b60405162461bcd60e51b815260206004820152602b60248201527f455243373231456e756d657261626c653a206f776e657220696e646578206f7560448201526a74206f6620626f756e647360a81b6064820152608490fd5b9190820180921161239157565b60085490600160401b8210156106b657612661826001611d9d9401600855611c84565b90919082549060031b600019811b9283911b16911916179055565b90815491600160401b8310156106b65782612661916001611d9d95018155611cbb565b156126a657565b60405162461bcd60e51b815260206004820152601e60248201527f4174206c65617374206f6e65206c616e677561676520726571756972656400006044820152606490fd5b156126f257565b60405162461bcd60e51b8152602060048201526016602482015275135bd9195b081d995c9cda5bdb881c995c5d5a5c995960521b6044820152606490fd5b1561273757565b60405162461bcd60e51b815260206004820152601560248201527413595d1859185d1848155492481c995c5d5a5c9959605a1b6044820152606490fd5b6001600160401b0381116106b65760051b60200190565b818110612796575050565b6000815560010161278b565b600160401b82116106b6578054918082558281106127bf57505050565b600091825260209081832093840193015b8381106127dd5750505050565b806127ea60019254611ce9565b806127f7575b50016127d0565b601f90818111841461280f5750508381555b386127f0565b8361282892848852868820920160051c8201910161278b565b8383812081835555612809565b9190601f811161284457505050565b611d9d926000526020600020906020601f840160051c83019310612870575b601f0160051c019061278b565b9091508190612863565b60001981146123915760010190565b903590601e198136030182121561024857018035906001600160401b0382116102485760200191813603831361024857565b156128c257565b60405162461bcd60e51b815260206004820152601c60248201527f4552433732313a20746f6b656e20616c7265616479206d696e746564000000006044820152606490fd5b1561290e57565b60405162461bcd60e51b8152602060048201526014602482015273151bdad95b88191bd95cc81b9bdd08195e1a5cdd60621b6044820152606490fdfea26469706673582212205b2305e2c6b7bbf4ce0d83aac09a238091f2c998913fcee4d853b13a2c45d41764736f6c63430008110033",
  "linkReferences": {},
  "deployedLinkReferences": {}
}